:1000000000000120B5020000DD020000755900006B
:10001000E1020000E3020000E50200000000000031
:10002000000000000000000000000000E7020000E7
:10003000E902000000000000EB020000ED020000F9
:10004000FDBF0000EF020000B1C00000EF020000A1
:10005000EF020000EF020000DDB90000EF02000037
:10006000EF020000EF020000EF020000EF020000CC
:10007000EF020000EF020000EF020000EF020000BC
:10008000EF020000F93B0000EF020000EF02000069
:10009000EF020000EF020000EF020000EF0200009C
:1000A000EF020000EF020000EF020000EF0200008C
:1000B000EF020000EF02000000000000000000005E
:1000C000EF020000EF020000EF020000EF0200006C
:1000D000EF020000EF020000EF020000000000004D
:1000E0000000000000000000000000000000000010
:1000F0000000000000000000000000000000000000
:1001000000000000000000000000000000000000EF
:1001100000000000000000000000000000000000DF
:1001200000000000000000000000000000000000CF
:1001300000000000000000000000000000000000BF
:1001400000000000000000000000000000000000AF
:10015000000000000000000000000000000000009F
:10016000000000000000000000000000000000008F
:10017000000000000000000000000000000000007F
:10018000000000000000000000000000000000006F
:10019000000000000000000000000000000000005F
:1001A000000000000000000000000000000000004F
:1001B000000000000000000000000000000000003F
:1001C000000000000000000000000000000000002F
:1001D000000000000000000000000000000000001F
:1001E000000000000000000000000000000000000F
:1001F00000000000000000000000000000000000FF
:1002000010B5054C237833B9044B13B10448AFF350
:1002100000800123237010BD640400200000000052
:10022000582D010008B5034B1BB103490348AFF338
:10023000008008BD0000000068040020582D010067
:10024000154B002B08BF134B9D46A3F5803A0021A8
:100250008B460F461348144A121A0EF009F80F4B3A
:10026000002B00D098470E4B002B00D09847002061
:10027000002104000D000D48002802D00C48AFF307
:1002800000800DF089FF200029000DF0C5FA0DF067
:100290006FFF00BF00000800000001200000000008
:1002A0000000000064040020A81E002000000000E0
:1002B000000000000649074A074B9B1A03DD043B78
:1002C000C858D050FBDC0DF073FDFFF7B9FF0000FC
:1002D000003001000000002064040020FEE7FEE77B
:1002E000FEE7FEE7FEE7FEE7FEE7FEE7FEE7FEE7E6
:1002F000704700BF00B583B0002201A906480AF08C
:10030000CDFE30B9054A01981368013313600AF035
:10031000E5FC03B05DF804FBEC2D0100FC040020BB
:1003200038B58368D3F854339B0703D500221146B0
:1003300009F06AF9084C094D094824F47F64012347
:1003400024F00F041A462B70214600230AF03EFBCE
:10035000044B1C6038BD00BFFF3F0100700500204A
:1003600044030020F404002070B58368D3F85433AC
:100370009B0782B0054603D50022114609F044F9D7
:10038000154C164A24F47F6428464FF48056082101
:1003900024F00F0407F006F923462846104A009679
:1003A000082107F0FFF80F4B01961B680E4A1C1B33
:1003B000642303FB04F3284600941B0B082107F079
:1003C000F1F80A4B0A4A1B682846082102B0BDE82A
:1003D000704007F0E7B800BFFF3F010000F00000E9
:1003E00014F00000F404002044F00000FC0400209D
:1003F00074F0000000238B540A460068194607F089
:10040000D1B800BF2DE9F043354D364E87B00746D1
:10041000DFF8EC80002202A938460AF03FFE0446CD
:10042000034603A940200C22002C4CD1DDF8089093
:1004300028604846CDE9034405940AF0C5FC03A9A9
:100440000C2230460DF0F0FE9DF80C3003F0030353
:10045000012B29D0022B2DD1BDF80E40A409342C3C
:1004600028BF3424033424F003040C2322464846D6
:1004700041460AF0A9FC2B680C34A342CAD31A4A9D
:10048000029B116819480093324623462C600AF0FB
:10049000DBF9D8B104280FD010281AD0144940F243
:1004A0003D1005F043FBB3E7BDF80C40C4F38314E3
:1004B000A400DAE72C60ADE702980AF00FFC0D4AC1
:1004C0001368013313600C4805F03AFC07B0BDE82F
:1004D000F08302980AF002FC084B01221A7097E799
:1004E000F804002000050020F4040020440300204C
:1004F0008CF00000FC040020C004002070050020E7
:100500000C050020F0B5164B1D7883B00DB103B07B
:10051000F0BD02AE0F4608460AF0DCFB114C46F86F
:10052000087D314620460AF02DFD002201A948B180
:1005300020460AF0B3FD0028F3D101980AF0CEFB63
:100540000135EEE7084B09481C682C441C6005F097
:10055000D3FB0028DBD10348FFF754FF03B0F0BD05
:1005600070050020082E0100FC040020C0040020BB
:10057000184A137883B90378012B0FD170B54368FB
:100580000446D3B1144A1368013313606069F8B1AB
:10059000BDE870400AF0A2BB012B00D07047037881
:1005A000022BFBD10D4B816823F47F6323F00F03F3
:1005B0009942F3D10023137070470949094D0A6825
:1005C0002E6809482B6032440A60FFF71BFFDDE705
:1005D00070BD00BF70050020FC040020FF3F01003B
:1005E000F4040020F8040020082E010000B583B0B8
:1005F000002201A906480AF051FD30B9054A0198C8
:100600001368013313600AF069FB03B05DF804FB63
:10061000082E0100FC0400202DE9F043354D364E34
:1006200087B08046354F002202A940460AF036FDC9
:100630000446034603A940200C22002C53D1DDF8C8
:10064000089028604846CDE9034405940AF0BCFBB5
:1006500003A90C2230460DF0E7FD9DF80C3003F0A5
:100660000303012B28D0022B2CD1BDF80E40A40986
:10067000342C28BF3424033424F003040C232246F2
:10068000484639460AF0A0FB2B680C34A342CAD373
:100690001B4F029B39681B480093324623462C604F
:1006A0000AF0D2F880B93B682A68029813443B608C
:1006B0000AF014FB114FB6E7BDF80C40C4F38314E5
:1006C000A400DBE72C60AEE7102805D00E4940F20D
:1006D0003D1005F02BFAA5E702980AF0FFFA0B4B44
:1006E00001221A709EE70A4805F02AFB07B0BDE810
:1006F000F08300BFF8040020000500200C05002056
:10070000F4040020440300208CF000007005002059
:10071000C0040020F0B5134F3B78012B83B001D10A
:1007200003B0F0BD02AD0E4608460AF0D3FA0E4CF7
:1007300045F8086D294620460AF024FC002201A94C
:1007400040B120460AF0AAFC0028F3D101980AF033
:10075000C5FAEFE73B78022BE2D10348FFF75CFFD5
:1007600003B0F0BD70050020EC2D010070B5002233
:1007700086B01C491C480AF02DF820B11B4B012201
:100780001A7006B070BD194A194B1A4D0221012684
:10079000044611701848C3F88460FFF73DFF2346F4
:1007A00066F30103052262F3C50303948DF80C3050
:1007B000039B124A1248009462F39F23039302465C
:1007C0000360C0E90144296807480C230AF03CF89B
:1007D0002B680C480C332B6006B0BDE87040FFF767
:1007E0001BBF00BF941401004403002070050020CB
:1007F00000E100E0F4040020082E0100C8EF000032
:1008000000050020EC2D0100F0B58368D3F85433C7
:100810009B0787B0064663D4344D25F47F6525F0E9
:100820000F0500240127002C08BF2C462146304824
:100830000AF066F988B3227802F00302012A2346FF
:1008400004F10C0047D0022A27D16488A409342C73
:1008500028BF3424033424F003040022ADF816200A
:10086000CDF81220234A99889F68ADF8101003979D
:1008700016601A7802F00301012904441BD00229F2
:1008800013D1C2F3C2028DF8142059881A4B89097A
:1008900003AA02F019F90027C5E727B13046174A25
:1008A000022106F07FFE07B0F0BD154940F29D2001
:1008B00005F03CF9EFE7C2F3C2028DF814201A8864
:1008C0001B680D490091C2F383120146980A03ABDD
:1008D00002F016F8DFE72488C4F38314A400BCE711
:1008E0000022114608F090FE96E700BFFF3F01008E
:1008F000440300207405002000000020ECEF0000FD
:100900008CF00000F8B51B4D1B4E25F47F6525F0DB
:100910000F05014605F6FF7330460022C6E9035372
:1009200009F058FF074688B92C46214630460AF0A0
:10093000E7F830B1237803F00303012B15D0022B25
:1009400006D00E4A0E4B146000221A703846F8BDCD
:1009500063889B09342B28BF3423033323F003031C
:100960000C34E41808BF2C46DFE72388C3F3831355
:100970009B00F5E7FF3F010044030020F404002042
:1009800070050020F0B595B0084600240F461546C6
:100990001E460AF09FF91A990D91384623460C22FB
:1009A00005A9089509960A948DF82C400C940AF034
:1009B0000BFADDE906029DF814300292012103F0E2
:1009C00003028A4203908DF8111027D0022A04D026
:1009D00038460AF083F915B0F0BDBDF81650C3F3E0
:1009E000C2038DF81030AD090C26082D2C4628BF07
:1009F0000824334622460EA938460AF0E5F92D1B95
:100A0000214608AB02AA0EA8264402F05DF8002D8C
:100A1000EBD138460AF062F915B0F0BDBDF81460AC
:100A2000059DC6F38316C3F3C204B2000EA938466F
:100A30000C238DF81040C5F395250AF0C5F908ABD5
:100A4000324628460EA9009302AB01F059FF384602
:100A50000AF044F915B0F0BD704700BF00B583B08F
:100A6000044B0093044A4023FFF78CFF03B05DF86A
:100A700004FB00BF7D0A00007C05002038B50F484C
:100A80000F4D03780F4CEB5C0025D2B2257053B9A3
:100A90000C300BF0FFFD58B90B4B1B7813B12378CA
:100AA000002BFCD038BD04300CF0CCF90028F3D07A
:100AB000064A532102F018FAEEE700BF18000020A2
:100AC000241E0020BC0500207805002058F20000FC
:100AD00070B51448144A0378D35C88B0EBB90C3075
:100AE0000BF048FD114D0FCD6C460FC495E80F007B
:100AF00008AD062645F8206D84E80F00294600223F
:100B000008480AF049FE18B1094A432102F0ECF9FD
:100B1000084B00221A7008B070BD04300CF0FEF8CB
:100B2000E0E700BF18000020241E00202CF2000087
:100B300058F2000078050020064B8B6004284FF027
:100B40000003CB604B609CBF034B53F820300B601D
:100B5000704700BFE8F500000CF60000C368DB68D2
:100B600000225A71704700BFC368DB6801225A71C6
:100B7000704700BF30B40E4B0E4D0F4CED1A0022E3
:100B80002D09C1E90242C1E900220BD003EB051592
:100B9000DC682479FF2C02D0904205D0013210335A
:100BA000AB42F5D130BC70479B680B6030BC7047DE
:100BB000542F0100A42F010020F600000129034654
:100BC00004D08168D1F85413890704D5002218464F
:100BD000114608F019BD00B5D2E90031054A83B0CD
:100BE000CDE90021044A022106F0DCFC03B05DF8E7
:100BF00004FB00BF70F3000064F300008368D3F8C7
:100C000054339B0733D42DE9F0471B4C1B4E361B46
:100C1000360982B028D00746DFF868A0DFF8689070
:100C2000DFF8688004EB06160CE06D79CDF804C09F
:100C3000002D0CBF55464D460095103406F0B2FC11
:100C4000A64211D0D4E902E595F804C0BCF1FF0F2B
:100C5000734642464FF008013846E6D1084A103440
:100C600006F0A0FCA642EDD102B0BDE8F08700225C
:100C7000114608F0C9BC00BF542F0100A42F010089
:100C80009CF3000090F3000088F30000BCF3000028
:100C9000F0B5344C85B004F5836005F039F804F202
:100CA000144005F035F8D4E9013703EA0702D01CF7
:100CB00004EB800114F8200010F0040042D003F18E
:100CC000030C0E7806F00306012E654635D0022E81
:100CD00002F1030621D004EB86010028F1D104EBD8
:100CE00082020133D26801923B4004EB830302F09D
:100CF0000302012ADE682ED0022A25D1BDF8063073
:100D00009B090333360C05EB9305174805F00CF8E7
:100D100000B16560304605B0F0BD4B880CEB931315
:100D200007EA0302D11C03F1030C14F82100654605
:100D300004EB810100F00400CFE70B88C3F38313B9
:100D40006344EDE7DD1CCAE708494FF4BF7004F0C7
:100D5000EDFE0026D9E7BDF80430C3F38313360C4B
:100D60001D44D2E7580700206C0B0020ECF4000073
:100D70002DE9F041104C114D52F8046C2D1B2D093A
:100D8000074610D004EB051502E01034AC420AD03F
:100D9000A16830460DF001FC0028F6D1E36801227D
:100DA0005A71BDE8F08133463846054A0221BDE854
:100DB000F04106F0F7BB00BF542F0100A42F010043
:100DC0004CF300002DE9F0410F4C104D52F8046C2B
:100DD0002D1B2D0907460FD004EB051502E010343A
:100DE000AC4209D0A16830460DF0D7FB0028F6D1FF
:100DF000E3685871BDE8F08133463846044A022161
:100E0000BDE8F04106F0CEBB542F0100A42F010035
:100E10004CF3000070B4104A104E114C921B00238A
:100E2000D208C1E902434B600CD00E4D2C88A04281
:100E300004D10CE035F82340A04206D001339A4299
:100E4000F8D100220A6070BC704706EBC306326816
:100E50000A6070BC704700BF542F01005C2E010077
:100E6000E8F500006C0300202DE9F04FCB683E4E02
:100E7000DFF820915B79A6EB090685B08B46F60872
:100E80008046002B6BD0394A394B0821404606F08A
:100E900089FB384A0821404606F084FB76B3364D7C
:100EA000DFF8F4A0B70000240023EA5AA2423AD0A7
:100EB00004339F42F9D15146002335F82320A24242
:100EC00041D001339E42F8D100208446D64600230B
:100ED00035F82320A24223D001339E42F8D10023CB
:100EE00084450ED8254A0292CDE9001E0134244AD9
:100EF0000821404606F056FBA642D5D105B0BDE814
:100F0000F08F204A0292CDE9001E01341C4A0821CC
:100F1000404606F047FBB442C6D105B0BDE8F08FAD
:100F200059F83330DCE7DBF80C20174912795958AF
:100F300002EB4202072393400B40D340DBB2134A3B
:100F400052F82310B8E709EBC30393F806C00F4B20
:100F50006046042828BF042053F820E0B7E70C4A75
:100F6000022106F01FFB8EE7542F010058F5000008
:100F70004CF5000078F500006C0300208023010090
:100F8000B8F50000D0F50000E8030020F8F50000F7
:100F900038F500005C2E010030F5000013460A46CB
:100FA000C168FFF761BF00BF2DE9F047124C134D38
:100FB00052F8046C2D1B2D09804615D01746894622
:100FC00004EB051502E01034A5420DD0A1683046AF
:100FD0000DF0E3FA0028F6D13B464A46214640464A
:100FE000BDE8F047FFF740BF33464046044A0221C0
:100FF000BDE8F04706F0D6BA542F0100A42F010037
:101000004CF300002DE9F04FB24C002385B0C4F83A
:101010001834BFF34F8FD4E9015605EA0602D31CFA
:1010200004EB830114F8233058071AD527680B788E
:1010300003F00303012B45D0022B03D14B8803356A
:1010400005EB931506EA0502D4F81804D31C04EB4B
:10105000830130B9AF4240F2C08014F823305B07FF
:10106000E5D404EB8202691CAB1C31403340D068EC
:10107000019004EB810204EB830300F00300D268CB
:10108000DB680228CDE9022305F1030800F0348172
:10109000012800F0A680D4F810543DB12B682846F2
:1010A0009B689847EB681D68002DF7D18A4B5B88D9
:1010B000012B0DD8D4E90030C01A18BF012005B0AB
:1010C000BDE8F08F0B880335C3F383131D44B9E7E4
:1010D0000020A568DFF81892804F02F091FAD4E959
:1010E0000132D4F8008013440133A3EB0803A7EBCB
:1010F0000907022B4FEAD70700F25781784E0121EA
:10110000304604F0E1FDFFF7C3FD0146304604F030
:10111000DBFDD4E901322168134401335B1A022B51
:10112000EDD90A40033205230331002044F8223070
:10113000216002F07FFA0021694804F097FD80F3F6
:101140001006684BBFB2A3EB0909B7EBD90F80F0CB
:101150001F8108F101032B4004EB830347EA064794
:10116000DF6008F10206D4F80C3498472E4004EBF7
:10117000860605EA08050335F06014F825305A495B
:10118000022262F3C50304F8253034F825306FF3EA
:10119000891324F8253054F8252061F39F22134643
:1011A000012161F301036FF3820344F8252004F861
:1011B000253094F82034002B3FF47CAFD4E90003B1
:1011C000834208D0FFF71EFF00283FF473AFD4E935
:1011D00000038342F6D103466EE7676005B0BDE8C1
:1011E000F08FBDF804704148C7F38313062B28BF66
:1011F0000623D91C63F389178900ADF8047009F040
:101200000DFDC7F3C207814600283FF444AF09F043
:1012100061FD00230C2201A9484609F081FDBDF8BB
:10122000043013F4707F00F0CD806FF0020BABEB55
:10123000050B0C2506EA080103312B46042204EBBA
:101240008101484609F06CFDBDF8043008F1010A3F
:101250000BEB0A02C3F383139342D04605F1040556
:10126000E8D8D4F81834002B40F08C80D4F810540F
:10127000FDB1DFF880800726EB685A79B2B11A79A0
:10128000BDF8080002EB420158F8200006FA01F20E
:10129000052F02EA000208BF0327CA40BA4205D35D
:1012A0002B6849461B6828469847EB681D68002D47
:1012B000E2D1484609F012FD002002F0A1F9D4F86D
:1012C00018340BB9C4F804A0002002F0B3F9D4E933
:1012D0000030F1E65807002080030020842E010032
:1012E000740B0020542F010068F70000A42F0100A8
:1012F0005C2E0100E8030020BDF8063032489DF85E
:1013000004704FEA931A5546A02D28BFA02565F317
:101310008F1305F10C01ADF8063009F07FFCC7F31F
:10132000C207814600283FF4B6AE26EA080B0BF14F
:10133000010B09F0CFFC4FEA8B0B00230C2201A913
:10134000484609F0EDFC5D4531D9EBB2BBF1000F29
:1013500024D006EA0801A3EB0B03033104EB81015F
:10136000DDB25A460C23484609F0DAFC2A460BF156
:101370000C031649484609F0D3FC0AF1030A08EBAE
:101380009A0A6EE7484609F0A9FCD4E9003093E6D2
:101390000F4940F2A31004F0C9FBDAE62A460C23F9
:1013A0000A49484609F0BCFCE7E74146B9E606EAC7
:1013B0000801033104EB81012A460C23484609F059
:1013C000AFFCDAE7C2464CE7A42F01006407002017
:1013D000ECF400002DE9F04F8E4B8F4C52F8049C3A
:1013E000A3EB04085FEA181885B0064611D017462B
:1013F0000D4604EB081802E01034A04509D0A1689E
:1014000048460DF0CAF80028F6D15DB905B0BDE830
:10141000F08F824A4B463046022105B0BDE8F04FBE
:1014200006F0C0B8E3687E49386893F80490072254
:101430000DF0CDF8002866D1012D00F0DE80DFF838
:101440000C8204460A2258F8041B78680DF0BFF895
:1014500058B10134052CF5D17B68724A304602211F
:1014600005B0BDE8F04F06F09DB8E3B2022D019340
:1014700040F0BF806C4C6D4BA3EB04085FEAD808CA
:101480002746C3D009EB490307229A400292019AEA
:10149000DFF8A4A10194DFF8A4914FEA880802FACA
:1014A00003FB0025144609E0019B53F8153006F0B4
:1014B00079F80435A84507F10807A7D0BB79A342FE
:1014C0004A464FF002013046EED355F80A20029901
:1014D00082EA0B030B405340C3F3C202C3F38211F1
:1014E0008A4238BF0A4603F007018A4238BF0A46DB
:1014F0004F4945F80A30C3F342206918824238BF89
:1015000002464A80D5E708224A4938680DF05FF85C
:1015100000287AD1012D0190ACD0012303F1804342
:10152000013B09EB4909A7F1040A07EB83070723ED
:101530003D4C3E4A03FA09F30293019BA2EB0408D7
:101540004FEAD80803FA09F3B3460AEB850A464680
:101550000393A04657F8044F002E43D0C146002500
:1015600004E00135AE4209F108093AD020222146B3
:1015700058F835000DF02BF80028F2D1AE4230D0EB
:1015800099F80620019B9A4223D32B4C039B54F8D5
:10159000252002982649534003405340C3F3C2021A
:1015A000C3F38210824238BF024603F00700824232
:1015B00038BF0246C3F3422001EB8501824238BFA7
:1015C000024644F825304A80BA45C3D105B0BDE88B
:1015D000F08FD9F80030194A0221584605F0E2FF91
:1015E000F2E73C68164A23460221584605F0DAFF26
:1015F000EAE77FF60BAF022390E7124A304602215A
:1016000005B0BDE8F04F05F0CDBF3B680E4A30464F
:1016100025E700BFA42F0100542F01004CF3000068
:10162000B4F200002CF300005C2E0100542F0100E6
:101630006C030020D4F20000E8030020F4F2000064
:1016400018F30000BCF20000DCF20000F8F5000026
:101650002DE9F0478368D3F85443C4F3400488B0BD
:10166000002C40F0998001AB054605AA43F22741C2
:1016700041F26E0005940194CDE90644029403F012
:101680002DFB0346002800F08E800A287CD15C4B9D
:101690005B88012B78D9DFF890A1DFF89081594F52
:1016A0002046DAF8084001F0ABFFDAE90132DAF857
:1016B000009013440133A3EB0903A7EB0807022BA7
:1016C0004FEAD70700F299800AF21C460121304602
:1016D00004F0FAFAFFF7DCFA0146304604F0F4FAB7
:1016E000DAE90132DAF80010134401335B1A022BF5
:1016F000ECD90A4003320523033100204AF8223096
:10170000CAF8001001F096FF00213F4804F0AEFA3D
:1017100080F310063D4BBFB2A3EB0808B7EBD80F20
:1017200065D209F1010323400AEB830347EA064728
:10173000DF6009F10206DAF80C34984726400AEB1C
:10174000860604EA09040334F0601AF824303049AC
:10175000022262F3C5030AF824303AF824306FF30A
:1017600089132AF824305AF8242061F39F22134663
:10177000012161F301036FF382034AF824200AF880
:1017800024309AF820346BBB2846224A022105F007
:1017900009FF08B0BDE8F0870022114607F034FFCA
:1017A00008B0BDE8F08703A905A8CDE9033303F02D
:1017B00009F90028E8D11848184A0499121A0CF0BF
:1017C00033FD05A803F026F90028DDD12846144A88
:1017D000082105F0E7FE08B0BDE8F087FFF712FC2E
:1017E0000028D1D0DAE900329A42F7D1CCE70D498E
:1017F00040F2A31004F09AF993E7494679E700BF55
:1018000080030020842E0100740B0020542F01005F
:10181000E0F3000020F40000E8030020640400204E
:1018200008F40000ECF40000580700205C2E0100D2
:101830002DE9F04F8368D3F85443C4F3400489B0D2
:1018400014BBB44BB4490693C91A890807910646DC
:10185000B24D029402AA6B4643F2274141F26E0058
:101860000094CDE903440194059503F037FA8046CE
:1018700088B10A2800F0AC803046A94A022105F060
:1018800091FE09B0BDE8F08F0022114607F0BCFEC2
:1018900009B0BDE8F08F02A805A903F07FF9A14BBC
:1018A0005B88022B074609D8002FE5D130469E4AB7
:1018B000082105F077FE09B0BDE8F08F9B4B9C4DE9
:1018C000DFF884B2AC684046A3EB0B0901F098FE48
:1018D000D5E90132D5F800A013440133A3EB0A0384
:1018E000032B4FEAD90900F20B8105F21C480121B4
:1018F000404604F0E9F9FFF7CBF90146404604F011
:10190000E3F9D5E901322968134401335B1A032B4B
:10191000EDD90A400332452345F822300431002036
:10192000296001F087FE0AF10303234005EB8303DE
:1019300000218048DF6004F099F980F310087E4BA5
:101940001FFA89F9A3EB0B0BB9EBDB0F80F0D28008
:101950000AF10103234005EB830349EA0842DA60F8
:101960000AF10208D5F80C34984708EA040805EB98
:10197000880804EA0A040334C8F80C0015F8243077
:101980006E48032262F3C50305F8243035F824308D
:10199000012161F3891325F8243055F8242060F3E0
:1019A0009F22134661F301036FF3820345F824205D
:1019B00005F8243095F820342BB975E7FFF722FBA2
:1019C00000283FF471AFD5E900329A42F6D16BE7B7
:1019D00002A805A903F044F8524B5B88022B074686
:1019E0007FF662AF514B524DDFF85CA12046A3EB6E
:1019F0000A09AC6801F004FED5E90132D5F800B05F
:101A000013440133A3EB0B03032B4FEAD9097FD80F
:101A100005F21C480121404604F056F9FFF738F959
:101A20000146404604F050F9D5E9013229681344D3
:101A300001335B1A032BEDD90A400332452345F8E5
:101A4000223004310020296001F0F4FD0BF1030382
:101A5000234005EB830300213648DF6004F006F9DC
:101A600080F31008344B1FFA89F9A3EB0A0AB9EB8B
:101A7000DA0F47D20BF10103234005EB830349EA58
:101A80000842DA600BF10208D5F80C34984708EAEE
:101A9000040805EB880804EA0B040334C8F80C00BA
:101AA00015F824302648032262F3C50305F82430D4
:101AB00035F82430012161F3891325F8243055F8D5
:101AC000242060F39F22134661F301036FF3820326
:101AD00045F8242005F8243095F820342BB9E3E6A6
:101AE000FFF790FA00283FF4DFAED5E900329A42C2
:101AF000F6D1D9E6134940F2A31004F017F827E70E
:101B0000514606E70F4940F2A31004F00FF8B1E781
:101B1000594691E7E8030020640400206E10273442
:101B2000C4F4000080030020ACF40000842E010007
:101B300058070020740B0020542F010044F40000CB
:101B400078F40000ECF400005C2E010001B970474D
:101B50002DE9F04FC368DB6885B089461746834698
:101B60007A4910681D7907220CF031FD00286ED1EA
:101B7000B9F1010F00F0DE80754E04460A2256F8D6
:101B8000041B78680CF023FD58B10134052CF5D105
:101B90007B68704A5846022105B0BDE8F04F05F059
:101BA00001BDE3B2B9F1020F019340F0C0806A4C6D
:101BB0006A4F3F1BFF08264646D0019B029405EB67
:101BC00045051A46AA404FF0070A0AFA05FADFF857
:101BD0009891DFF898810192BF0000251C4609E02A
:101BE000029B53F81530043505F0DCFCAF4206F1DA
:101BF000080629D0B379A34242464FF00201584665
:101C0000EED355F80920019B534003EA0A035340E1
:101C1000C3F3C202C3F382118A4238BF0A4603F0FB
:101C200007018A4238BF0A464D4945F80930C3F3D7
:101C300042206918824205F1040538BF0246AF42CE
:101C40004A8006F10806D5D105B0BDE8F08F08221C
:101C5000444938680CF0BBFC002873D1B9F1010F7E
:101C60000190A4D0012303F18043013B05EB45051E
:101C70003A1F07EB83070723AB40374C374E0293DD
:101C8000019B361BAB4002EB8909F6080393A04683
:101C900057F8044F002E43D0C246002504E001351A
:101CA000AE420AF1080A3AD02022214658F83500FF
:101CB0000CF08DFC0028F2D1AE4230D09AF806200C
:101CC000019B9A4223D3284C039B54F82520029869
:101CD0002349534003405340C3F3C202C3F382106D
:101CE000824238BF024603F00700824238BF0246F4
:101CF000C3F3422001EB8501824238BF024644F81B
:101D000025304A80B945C3D105B0BDE8F08FDAF877
:101D10000030164A0221584605F044FCF2E73C68C0
:101D2000134A23460221584605F03CFCEAE78BD9CA
:101D3000022398E70F4A5846022105B0BDE8F04F4C
:101D400005F030BC3B680C4A24E700BFB4F2000049
:101D5000F8F500002CF300005C2E0100542F010068
:101D60006C030020D4F20000E8030020F4F200002D
:101D700018F30000BCF20000DCF200002DE9F84F7F
:101D800000284DD0294C0023FF2205460846C4F800
:101D90001834A260C4E90033C4F8143484F8203441
:101DA00000F082FF2248C4F80C5408F035FF814649
:101DB00010B14846BDE8F88FDFF888801D4F1E48F7
:101DC000A7EB080709F006FAFF08F2D0DFF86CB0BD
:101DD0004D460026344608EBC50AA5424FF01402D2
:101DE00008D058F83410DAF800000CF0F0FB0028A6
:101DF000C8BF01360134A742EFD12BF82560013569
:101E0000BD42E6D10D4B0E490BEB850500225A80F1
:101E100004339D4241F8042BF9D14846BDE8F88FC0
:101E20004FF007094846BDE8F88F00BF580700206B
:101E3000A42F0100542F0100DCF500006C030020EA
:101E4000E80300205C2E010021B9124B03EBC00017
:101E500000687047104A0F49521AD20815D030B4A2
:101E60000E4D2B88834212D0002303E035F8234027
:101E7000844205D001339A42F8D1002030BC70472B
:101E800001EBC300006830BC70471046704708463D
:101E9000F8E700BF5C2E0100542F01006C03002006
:101EA000094B013903EBC00003290BD8DFE801F02F
:101EB0000208060402207047407970470079704795
:101EC00004207047002070475C2E01002DE9F04788
:101ED000DFF80C91074600208846D9F8084001F049
:101EE0008FFBD9E90132D9F80060134401339B1B01
:101EF000022B6AD809F21C450121284603F0E4FEB2
:101F0000FEF7C6FE0146284603F0DEFED9E901329F
:101F1000D9F80010134401335B1A022BECD90A40A4
:101F2000033205230331002049F82230C9F800109C
:101F300001F080FB0021264803F098FE80F3100A90
:101F4000244B254A3D0C9B1AB5EBD30F37D2731C9B
:101F5000234009EB830345EA0A45DD60D9F80C34D8
:101F6000B51C9847254009EB850534400334E860EB
:101F700019F8243067F3C50309F8243039F8243000
:101F80006FF3891329F8243059F8242068F39F222D
:101F90001346012161F301036FF3820349F8242002
:101FA00009F8243099F820341BB906E0FFF72AF825
:101FB00018B1D9E900329A42F8D1BDE8F087074953
:101FC00040F2A31003F0B2FDC1E73146A7E700BF1E
:101FD000740B0020542F01005C2E0100ECF4000073
:101FE000580700202DE9F047DFF818A10746002028
:101FF00091468846DAF8084001F002FBDAE901323E
:10200000DAF80060134401339B1B032B70D80AF2EB
:102010001C450121284603F057FEFEF739FE014614
:10202000284603F051FEDAE90132DAF800101344D1
:1020300001335B1A032BECD90A40033204314523E8
:1020400000204AF82230CAF8001001F0F3FAF31C1D
:1020500023400AEB830300212648C3F80C9003F0C9
:1020600005FE80F31009244B244A3D0C9B1AB5EB66
:10207000D30F37D2731C23400AEB830345EA09458B
:10208000DD60DAF80C34B51C984725400AEB85056D
:1020900034400334E8601AF8243067F3C5030AF8C3
:1020A00024303AF82430012161F389132AF82430CE
:1020B0005AF8242068F39F22134661F301036FF35B
:1020C00082034AF824200AF824309AF820341BB9F5
:1020D00006E0FEF797FF18B1DAE900329A42F8D12C
:1020E000BDE8F087064940F2A31003F01FFDC1E7E9
:1020F0003146A1E7740B0020542F01005C2E010033
:10210000ECF40000580700202DE9F84F444C8046BD
:10211000002093469A468946A56801F071FAD4E9F1
:102120000132276813440133DB1B042B76D804F2F9
:102130001C460121304603F0C7FDFEF7A9FD01460C
:10214000304603F0C1FDD4E9013221681344013364
:102150005B1A042BEDD90A40033205318523002098
:1021600044F82230216001F065FAFA1C3B1D2A4038
:102170002B4004EB820204EB830300212948C2F8C0
:102180000CB0C3F80CA003F071FD80F3100A264BCD
:10219000264A4FEA18469B1AB6EBD30F38D27B1C5F
:1021A0002B4004EB830346EA0A46DE60D4F80C3485
:1021B000BE1C98472E4004EB86063D400335F06078
:1021C00014F8253068F3C50304F8253034F82530B9
:1021D000022262F3891324F8253054F8252069F38C
:1021E0009F221346012161F301036FF3820344F838
:1021F000252004F8253094F820341BB906E0FEF7BA
:1022000001FF18B1D4E900329A42F8D1BDE8F88F45
:10221000074940F2A31003F089FCC0E739469AE76A
:1022200058070020740B0020542F01005C2E010081
:10223000ECF400002DE9F84F474C8046002093460F
:102240009A46A568894601F0DBF9D4E9013227688E
:1022500013440133DB1B052B7CD804F21C460121FF
:10226000304603F031FDFEF713FD0146304603F022
:102270002BFDD4E901322168134401335B1A052B8D
:10228000EDD90A4003320631C523002044F822303C
:10229000216001F0CFF9F91C3A1D29407B1D2A402D
:1022A00004EB810004EB82022B4004EB8303C0F8B3
:1022B0000CB00021C2F80CA028480A9ADA6003F09A
:1022C000D5FC80F3100A264B264A4FEA18469B1A83
:1022D000B6EBD30F38D27B1C2B4004EB830346EACA
:1022E0000A46DE60D4F80C34BE1C98472E4004EB3E
:1022F00086063D400335F06014F8253068F3C503C9
:1023000004F8253034F82530032262F3891324F8C9
:10231000253054F8252069F39F221346012161F3EB
:1023200001036FF3820344F8252004F8253094F864
:1023300020341BB906E0FEF765FE18B1D4E900327F
:102340009A42F8D1BDE8F88F074940F2A31003F094
:10235000EDFBC0E7394694E758070020740B0020D6
:10236000542F01005C2E0100ECF400002DE9F04F29
:1023700085B04F4C0E9EA5680296CDE9002380469D
:10238000994600200F9B039392468B4601F038F943
:10239000D4E90132276813440133DB1B062B00F21A
:1023A000858004F21C460121304603F08DFCFEF7C7
:1023B0006FFC0146304603F087FCD4E90132216806
:1023C000134401335B1A062BEDD90A40033207315F
:1023D00040F20513002044F822303E1D216001F038
:1023E00029F9F91C7A1D29402E4004EB810104EBE8
:1023F0008606BB1D2A4004EB82022B40C1F80CA0CC
:1024000004EB8303C6F80C900E9ED66000210F9A51
:102410002848DA6003F02AFC80F31009264B274A8B
:102420004FEA18469B1AB6EBD30F39D27B1C2B40D0
:1024300004EB830346EA0946DE60D4F80C34BE1C84
:1024400098472E4004EB86063D400335F06014F8B3
:10245000253068F3C50304F8253034F8253004220C
:1024600062F3891324F8253054F825206BF39F225A
:102470001346012161F301036FF3820344F8252021
:1024800004F8253094F820341BB906E0FEF7BAFDB5
:1024900018B1D4E900329A42F8D105B0BDE8F08F06
:1024A000074940F2A31003F041FBBFE739468CE730
:1024B00058070020740B0020542F01005C2E0100EF
:1024C000ECF400002DE9F04F87B0544C109EA56845
:1024D0000396CDE901239946119B04938046129BF4
:1024E0000593002092468B4601F08AF8D4E9013228
:1024F000276813440133DB1B072B00F28C8004F2A6
:102500001C460121304603F0DFFBFEF7C1FB01460C
:10251000304603F0D9FBD4E901322168134401337A
:102520005B1A072BEDD90A400332083140F24513FC
:10253000002044F82230216001F07CF8F91C381D9D
:102540007A1DBB1D294028402A4004EB82022B4003
:1025500004EB810104EB8000FE1D04EB830C2E4094
:10256000109BC1F80CA004EB8606C0F80C90D36059
:10257000119BCCF80C300021129B2948F36003F02A
:1025800075FB80F31009274B274A4FEA18469B1A20
:10259000B6EBD30F39D27B1C2B4004EB830346EA06
:1025A0000946DE60D4F80C34BE1C98472E4004EB7C
:1025B00086063D400335F06014F8253068F3C50306
:1025C00004F8253034F82530052262F3891324F805
:1025D000253054F825206BF39F221346012161F327
:1025E00001036FF3820344F8252004F8253094F8A2
:1025F00020341BB906E0FEF705FD18B1D4E900321E
:102600009A42F8D107B0BDE8F08F084940F2A31014
:1026100003F08CFABFE7394685E700BF5807002072
:10262000740B0020542F01005C2E0100ECF400001C
:10263000044BD3E900239A4201D0FEF7E3BC00200B
:10264000704700BF580700202DE9F043344DD5F8FE
:102650001044064600205CB1E3681A79824204D136
:1026600051E0DB681A7982424DD01B68002BF8D10B
:10267000F3681871D5F81034002B4BD0DA68F36882
:1026800012681A60D5F81034DB681E60254A264FA0
:10269000BF1AFF0835D0254D254C02EBC7094FF076
:1026A000070CF768D37997F80480D5F800E08B42DF
:1026B00008EB480828BF0B4603FA08F383EA0E0329
:1026C0000CFA08F803EA080383EA0E03C3F3C20E08
:1026D000C3F38218C64538BFC64603F00708C6458F
:1026E00038BFC646C3F34228C64502F1080238BFC8
:1026F000C6469145A4F802E045F8043B04F1040401
:10270000CFD1BDE8F08301300A28A4D14FF0FF30CB
:10271000BDE8F083C5F81064F2681360B6E700BF47
:10272000580700205C2E0100542F0100E803002010
:102730006C03002038B5094BD3F81044012583F809
:1027400020544CB1E3685D71236820465B6898476C
:10275000E3681C68002CF5D138BD00BF5807002085
:102760002DE9F04389B0002401AB05AA43F22741CB
:1027700041F26E00CDE905440794CDE9014402F031
:10278000ADFA034668B10A2807D1534B5B88012B89
:102790001BD8052009B0BDE8F083032009B0BDE8CF
:1027A000F08303A905A8CDE9033302F00BF9002853
:1027B000F4D14A484A4A0499121A0BF035FD05A88B
:1027C00002F028F909B0BDE8F083DFF82C91DFF8BA
:1027D0002C81444E2046D9F8084000F011FFD9E979
:1027E0000132D9F8007013440133DB1BA6EB080655
:1027F000022B4FEAD6066DD809F21C450121284666
:1028000003F062FAFEF744FA0146284603F05CFA48
:10281000D9E90132D9F80010134401335B1A022BB5
:10282000ECD90A40033205230331002049F8223055
:10283000C9F8001000F0FEFE00212B4803F016FA44
:1028400080F31005294BB6B2A3EB0808B6EBD80FFE
:102850003AD27B1C234009EB830346EA0546DE603F
:10286000BD1CD9F80C349847254009EB85053C4040
:102870000334E86019F824301D49022262F3C503CD
:1028800009F8243039F824306FF3891329F82430FB
:1028900059F8242061F39F221346012161F30103BB
:1028A0006FF3820349F8242009F8243099F8203482
:1028B0002BB96EE7FEF7A6FB00283FF46AAFD9E913
:1028C00000329A42F6D164E70A4940F2A31003F0BD
:1028D0002DF9BEE73946A4E780030020E803002075
:1028E00064040020842E0100740B0020542F01008A
:1028F000E0F30000ECF40000580700205C2E01001B
:102900002DE9F04784B01D460C9C002394F80C8000
:102910002373EB8881460E461746002B74D1297A23
:10292000052943D06B7A002B63D15A485A4B5B4A36
:10293000D0F800C01B682968B1FBF3F0B0FBFCF1D4
:10294000A2FB01324FF4616E4FEAD22A544B0EFBC8
:102950001A1AA3FB0AE30CFB11015B094FF47A700E
:10296000C3EB031E00FB01F1AAEB8E0AB1FBFCFED8
:102970000CFB1E11D20ACDF800A000FB01F0CDF82F
:1029800004E0B0FBFCF047490290204607F0AEFAA5
:10299000454B2A7AA88853F822A00021FFF754FA61
:1029A000524603464149204607F0A0FA062F09D8AF
:1029B000DFE807F004694148515C3200494620468F
:1029C00007F094FA2B7A052B05D06B7A5BB938495E
:1029D000204607F08BFA204607F074FA84F80C8042
:1029E00004B0BDE8F087334A3349204607F07EFA49
:1029F000EDE7A888FFF754FA304B2F4953F8202011
:102A0000204607F073FA90E72A4A00922C492D4A93
:102A1000204607F06BFA82E7D6E90410D6E90023D6
:102A20000390D6E902070291CDE900074946204606
:102A300007F05CFAC6E74946D6E90023204607F0CE
:102A400055FABFE7B168D6E9002320460091494610
:102A500007F04CFAB6E7D6E90201D6E90023019166
:102A600000904946204607F041FAABE7D6E90371EA
:102A7000B068D6E900230291CDE900074946204617
:102A800007F034FA9EE732684946204607F02EFAEE
:102A900098E700BF140C0020180C0020C5B3A291C9
:102AA000898888884CFA000074FA000068FA0000EF
:102AB000B8F3000040FA000048FA0000E8F900000E
:102AC00028FA000020FA0000082900D970472DE9F3
:102AD000F04F1D46904600232A7B2B7387B0B8F831
:102AE0000630059207460E46002B40F0B08098F85D
:102AF0000810052947D098F80930002B40F09B803A
:102B0000574B5849584A1C680868D8F80010B1FB60
:102B1000F0F0B0FBF4F1A2FB01324FF4616E4FEA2A
:102B2000D22C524B0EFB1C1CA3FB0CE304FB11012B
:102B30005B094FF47A70C3EB031E00FB01F1ACEBB1
:102B40008E0EB1FBF4FC04FB1C1100FB01F1D20A58
:102B5000B1FBF4F4CDF800E0CDF804C04449029490
:102B6000284607F0C3F9434B98F80820B8F804004A
:102B700053F822400021FFF767F9224603463E49F9
:102B8000284607F0B3F9DFF810B1DFF81091002400
:102B900005E03A5D013407F0A9F9082C09D0A642F6
:102BA00049462846F5D85946013407F09FF9082CC4
:102BB000F5D13249DFF8E8B0DFF8E890284607F0B1
:102BC00095F900240CE017F804A0BAF17E0F23D980
:102BD0002E2249462846013407F088F9082C08D0EF
:102BE000A642F0D859462846013407F07FF9082C50
:102BF000F6D198F80830052B02D098F80930A3B91F
:102C00001F49284607F072F9284607F05BF9059B33
:102C10002B7307B0BDE8F08F0BF0E6FA5044524634
:102C2000437813F0970FD3D0D3E7164A16492846B6
:102C300007F05CF9E4E7B8F80400FFF731F9134B4B
:102C4000114953F82020284607F050F958E70D4A5B
:102C500000920F490F4A284607F048F947E700BF9E
:102C6000140C0020180C0020C5B3A2918988888814
:102C70004CFA000074FA000068FA000018FA00002C
:102C8000B8F3000040FA000048FA0000E8F900003C
:102C900028FA000020FA000014FA00000CFA0000E4
:102CA00070FA00001CFA0000074A0849012390420C
:102CB0000B6005D9400890424FEA4303FAD80B60F5
:102CC000034B1860704700BF40420F00180C0020F3
:102CD000140C00200C4A136813F0010312D1106881
:102CE0005360C0F3072030B119469360013383422B
:102CF0001161D160F9D1044B05225A60BFF34F8FA7
:102D0000002070470620704790ED00E02DE9F84F55
:102D10002B4D541E1442D5F800A02FD11F2A2DD9B7
:102D200021422BD11FFA83F9B9F1000F26D1804639
:102D3000CAF3072A48461E460F46144600F060FCB8
:102D4000BAF1000F36D0C5F80890286910F0010BD1
:102D500017D1B4FA84F2C2F11E0246F0010646EA27
:102D60004206EF6058462E6100F064FC5B46BFF3FC
:102D70004F8F88F800300020BDE8F88F0720BDE8AD
:102D8000F88F09F10109CA4514D0C5F808902869DF
:102D900010F00100F5D1B4FA84F2C2F11E0246F03F
:102DA000010646EA4206EF602E6100F043FC5FFA3E
:102DB00089F3DCE7002000F03DFC0420DFE700BFE2
:102DC00090ED00E0F0B5254E254D06F17F0424F08E
:102DD0007F0404F180039D4287B022D9214B8022D9
:102DE00021460DF11700FFF791FF1F4B07465B8847
:102DF00020B9022B1AD8384607B0F0BD002BFAD004
:102E000008F0E4FB194C1A4B1A49E41AE4082404AC
:102E100003463A4644F00100FFF776F9384607B01A
:102E2000F0BD1549432002F081FED7E7104B0F4853
:102E30001249C01A124BC008AD1B00049E1B04F1BE
:102E40007F030093019540F0030002962346802201
:102E5000FFF738FB384607B0F0BD00BF00E00020A8
:102E60000000012000002917E40300204C2F01007E
:102E70005C2E010074FB0000CCFA000014FB000083
:102E800080FF002030B482B001248DF80740154B3C
:102E90009DF80750186044F20104A04259609A60FE
:102EA00014D044F20201884208D072B69DF807306F
:102EB000002BFBD162B602B030BC7047DA60DA6832
:102EC00012889A61DA685268DA61EEE71A611A6963
:102ED00092685A611A6912689A611A695268DA61CD
:102EE000E3E700BF1C0C002000B583B00290009106
:102EF000019244F2010071466A4600F003F803B003
:102F000000BD00BF2DE9F043044685B00E461546CE
:102F100072B6FFF70FFCFFF78BFB0028FBD12C4F9D
:102F200044F2010294427B8821D044F2020294428E
:102F30000ED0002B3FD1274B1B68DB0700D500BE0E
:102F40002A463146204605B0BDE8F043FFF79ABF58
:102F5000002BF0D0204F21482B886A682049C01BE5
:102F6000C008000440F00100FFF7CEF8E3E7002BB3
:102F7000E1D0D5F80890194B174A4846A3EB020850
:102F800008F024FB2B681749CDE901364FEAD80831
:102F90004FEA08486B68009348F0010803464A4628
:102FA0004046FFF78FFA7B88002BC4D040460E497D
:102FB000FEF78CFFBFE7084B08480C49C01AC00851
:102FC000000440F001003246FFF70CF8B3E700BF01
:102FD00080030020F0ED00E05C2E0100842E010053
:102FE000D8FB0000F4FB00001CFC000030FC0000DB
:102FF00040684B6898428CBF00200120704700BF9A
:103000002DE9F04F83B0814600F0AEFD002840F07E
:103010007D81A94C0021484600F0C0FD002840F009
:103020000C8101A9A54802F0E3FD0546002832D035
:10303000A34BA44AA44FDFF8B8A2A04EA3EB02080A
:103040004FEAD8084FEA084848F003082B78012BCC
:1030500079D0C0F09180022B12D13846002508F0BB
:103060005DFA28B10576384608F058FA0028F9D1FB
:10307000964B974A5B880121022B117000F2D88091
:1030800001A9304602F0E2FD01A9304602F0B0FD90
:1030900005460028DAD18C4EDFF85482DFF858A2BA
:1030A000304608F04BFA002800F028814768236872
:1030B0005A6823688BB12368002B36D0974234D2EC
:1030C00023681B7E4BB123685B695B88032B00F28E
:1030D0009F802168304608F0FFF9304608F01EFA5C
:1030E000054640694388032B22D86A6879484FF423
:1030F0009603002100F09EFC98B10D2868D0764917
:10310000C22002F013FD68694288032AC8D9A0EBE7
:1031100008008008000440F004007049FEF7D6FE65
:10312000BCE72368002B7FD0256003B0BDE8F08F9B
:10313000A0EB08008008000440F004003A4668490B
:10314000FEF750FFD1E723686968994208BF002362
:10315000384608BF236008F00FFA6B685869428848
:10316000032A8DD9A0EB0A008008000440F0040077
:103170005C49FEF7ABFE83E76B681A7E002A7FF49A
:103180007FAF01221A766B684846D3F804B000F08E
:103190001FFDABEB0000B0F5350F04D36A68536830
:1031A00023F07F4353606968384608F095F96A68F0
:1031B0005069418803297FF663AFA0EB0A008008BD
:1031C00000045268484940F00400FEF70BFF57E73F
:1031D000EB68002B00F0DF803D4B1B78002B92D07A
:1031E0002B7E002B8FD0AB68002B00F0D980D5E967
:1031F00003309847AB68002B85D02A7E002A82D006
:103200006A6813446B602946304608F065F97AE72E
:1032100023685869A0EB08008008000440F004000F
:103220005146FEF753FE54E7484600F0DFFB7BE7CC
:103230002E494046FEF74AFE22E72368002B00F0A5
:10324000B180484600F0C4FC23685B68C31A23F0D1
:103250007F43B3F5960F80F0C58023685B695B8878
:10326000032B0AD92268224B50692249C01A8008D0
:10327000000440F00400FEF729FE2568EB68002BEF
:1032800000F0B680124B1B7893B12B7E83B1AB68F4
:1032900003B92B76D5E903309847AB6843B12A7E52
:1032A00032B16A68084813446B60294608F014F983
:1032B00000232360B5E600BF9C0C002034000020F2
:1032C0008C2E01005C2E010078FC0000840300209D
:1032D000400C00204800002094FC00008CFD000001
:1032E00070FD000038FD000020FD000048FD0000DA
:1032F0006C030020DCFC00005CFD00002368002B58
:103300007FF413AF484600F083FB0EE73B4B5B882E
:10331000032B57D83A4C23682BB123685B6822688B
:1033200023F07F435360374808F008F9054600282A
:103330003FF470AE344EDFF8CC80344F0AE06B6857
:1033400023F07F436B60284608F008F90546002803
:103350003FF460AE6B68B3F1807FF0D2EB68002B76
:103360003BD03378002BEED02B7E002BEBD0AB681C
:1033700003B92B76D5E903309847AB68002BE2D030
:103380002A7E002ADFD06A6813446B6029464046D3
:1033900008F0A2F8D7E71D49872002F0C7FB1BE71A
:1033A0002B7624E7154B5B88012B7FF63AAE184B42
:1033B00018481949C01AC008000440F00200FEF77E
:1033C00085FD2EE6124B13481449C01AC0080004AC
:1033D00040F00400FEF77AFD9CE73946872002F0B2
:1033E000A5FBBEE709494FF4887002F09FFB34E764
:1033F0000649872002F09AFB44E700BF84030020BF
:103400009C0C002078FC0000400C002094FC000084
:103410005C2E01008C2E0100E8FC000084FC000002
:1034200010B5104B10491B68104882B05822019308
:10343000082302F089FB044610B1204602B010BDFB
:103440000B4A0C4801A900F027FA04460028F4D1E1
:103450000121084800F074FB074B012220461A7036
:1034600002B010BD48FC0000440C002034000020D5
:103470000130000048000020400C002030B50C4610
:1034800083B0054658B19AB1A4F101042B68B4FA8F
:1034900084F464090020C3E9024203B030BD084946
:1034A000019240F2EF1002F041FB019A002AEBD1A9
:1034B00003494FF4F87002F039FB072003B030BD28
:1034C00094FC000030B50D4685B00446002833D08A
:1034D000B5F5350F2BD2237E13B1002005B030BDDA
:1034E00022611C4800F074FBA3682844606003B1AB
:1034F000A56003A9184802F03FFBD8B1002544603D
:10350000057003A9144802F063FB0446E0B9134BAD
:103510005B88012BE1D9124B12481349C01AC0082D
:10352000000440F00200FEF7D1FC2046D6E7072059
:1035300005B030BD0420D1E70C49019240F2FF10E4
:1035400002F0F4FA019AC3E7024800F045FB28466E
:10355000C4E700BF4800002034000020840300209E
:103560005C2E01008C2E01004CFC000094FC00003D
:1035700030B5044683B048B30025257601A9164826
:1035800002F0FAFAC8B101234460037001A912489D
:1035900002F01EFB044698B9104B5B88012B0AD938
:1035A0000F4B10481049C01AC008000440F0020038
:1035B000FEF78CFC204603B030BD042003B030BDC4
:1035C0000A4800F009FB284603B030BD084940F224
:1035D0001A2002F0ABFACFE7340000208403002069
:1035E0005C2E01008C2E01004CFC000048000020E5
:1035F00094FC0000014800F0EBBA00BF4800002036
:1036000008B5EFF30583C3F308032BB172B6074A7D
:1036100013680133136008BDEFF31483DB07F5D59E
:103620000349432002F082FAF0E700BFA00C00201B
:10363000D4FD000008B5EFF30583C3F3080333B1ED
:10364000074A1368013B136003B962B608BDEFF384
:103650001483DB07F4D50349512002F067FAEFE742
:10366000A00C0020D4FD00008368D3F854339B07DE
:1036700003D50022114605F0C7BFBFF34F8F0549A0
:10368000054BCA6802F4E0621343CB60BFF34F8F6F
:1036900000BFFDE700ED00E00400FA0570B58368A7
:1036A000D3F85443C4F34004B4B9294B0139012978
:1036B00015465B8838D018D3022913D0012B13D9B3
:1036C0002448254B2549C01AC008000440F00200D8
:1036D000BDE87040FEF7FABB00221146BDE870401D
:1036E00005F092BF012B06D870BD012BFCD91948FB
:1036F000194B1B49E7E721460A2268680BF00EF8D0
:10370000214606460A22A868124C0BF007F8124B15
:103710001449E41AE40824040346324644F0020043
:10372000BDE87040FEF7F0BC012BDDD921465068A2
:103730000A220AF0F3FF084A064B0B499B1ADB08E2
:103740001B040246BDE8704043F00200FEF74ABC8D
:1037500080030020842E01005C2E010050FF000039
:1037600000FF000034FF000018FF000070B5836800
:10377000D3F85443C4F3400454B9294B0139012907
:1037800015465B8837D017D3022907D1D3B970BD4E
:1037900000221146BDE8704005F036BF002BF6D080
:1037A0002048214B2149C01AC008000440F0010004
:1037B000BDE87040FEF78ABB002BE8D019481A4BD1
:1037C0001B49F0E721460A2268680AF0A7FF214654
:1037D00006460A22A868134C0AF0A0FF124B1549AE
:1037E000E41AE40824040346324644F00100BDE82C
:1037F0007040FEF789BC002BC9D0214650680A22D0
:103800000AF08CFF084A074B0B499B1ADB081B0484
:103810000246BDE8704043F00100FEF7E3BB00BF85
:1038200080030020842E01005C2E0100D0FE0000E9
:1038300088FE0000B4FE00009CFE00008368D3F800
:1038400054339B070ED400B5084B094A85B0D21AF1
:10385000CDE901220093074A082103F0A3FE05B039
:103860005DF804FB0022114605F0CEBE000000000A
:103870000030010014FE00008368D3F854339B0726
:1038800004D4044A45210320FFF72EBB0022114631
:1038900005F0BABE4CFE00002DE9F0410E46174679
:1038A000044600285AD0002E4DD0002F51D0637905
:1038B000424D434905EBC30241F82370137933B1FC
:1038C000404B5B88012B31D80820BDE8F081378858
:1038D000D4F80080B7F5805F50D2C8F80875B67884
:1038E00094F90470072E40D87601002FF6B252DB0F
:1038F00007F1604707F5614787F8006394F90430E2
:10390000314E304803F01F0201215B0901FA02F237
:1039100046F823206379428845F8334005EBC30518
:10392000022A29713DD80020BDE8F081274B2848A4
:103930002849C01AC008000440F00200FEF7C6FA89
:103940000820BDE8F0812449562002F0EFF8002F4E
:10395000ADD12149572002F0E9F8A8E71E495520CA
:1039600002F0E4F8002EA0D1EDE71C496B2002F034
:10397000DDF87601002FF6B2BADA0CE018494FF400
:10398000BA7002F0D3F8C8F80875B67894F90470E4
:10399000072EA9D9E9E7134B07F00F073B441E7622
:1039A000ACE70A4B0A481049C01AC008000440F0AE
:1039B0000300FEF78BFA0020BDE8F081A40C002084
:1039C000AC0C00208403002000E100E05C2E01002C
:1039D0008C2E01000C010100C800010060010100F3
:1039E00030010100FCEC00E09001010010B504463C
:1039F00018B1236801221A6010BD0449872002F023
:103A000095F8236801221A6010BD00BFC8000100AC
:103A100010B5044618B1236801225A6010BD04494C
:103A20008D2002F083F8236801225A6010BD00BF88
:103A3000C8000100F0B50F4685B01E4604460028B8
:103A40005DD023684FF48035BD40C3F80853236828
:103A5000BF00C3F8485307F5A07320689BB200214C
:103A6000C1502168C3580393394422F07F47039B18
:103A7000D1F84035C1F840752268D2F804155B1AB8
:103A800023F07F43012B21D0C2F844532068D0F8A3
:103A90000435F91A26F07F4621F07F420902C6F16B
:103AA000000608D542F07F42B24208DCC0F8045359
:103AB000002005B0F0BDB242F8DD022AF6DC194A5A
:103AC0005288032A0ED80D2005B0F0BD154B5B8837
:103AD000032B1BD8144B4FF4046043F001039847A9
:103AE0002268D1E7114A12481249801AC00800041E
:103AF00040F004003A46FEF707FB0D20D9E70E49D7
:103B00000192AC2002F012F8019A9AE7074B08489C
:103B10000A49C01AC008000440F00400FEF7D6F9B4
:103B2000D8E700BF84030020C00001005C2E010024
:103B30008C2E0100D8010100C8000100A401010081
:103B400038B50D46044640B122680223C2F844331A
:103B500015B12268C2F8043338BD0249DF2001F0F4
:103B6000E5FFF1E7C800010010B5044682B068B176
:103B70002368D3F8040138B10022C3F80421D3F834
:103B800004310193019B012002B010BD0249F020D5
:103B900001F0CCFFECE700BFC800010030B58900A0
:103BA00083B001F5A074054658B1A1B22B685858EE
:103BB00028B100225A505B580193019B012003B0A9
:103BC00030BD0249F02001F0B1FFEEE7C80001006E
:103BD0000368D3F80405704790F9043005485A0982
:103BE000403203F01F03012101FA03F340F82230B1
:103BF000704700BF00E100E0024A034B10681B68F9
:103C0000184700BFA40C0020AC0C0020F0B443689F
:103C10001BB1384AD468A34246D20023364F0B80EA
:103C20007A684FF0010C02F580544FF6FF760832A7
:103C300094420ED8BCF1020FA1F800C007F114079E
:103C400054D07A6802F58054083294424FF0020C46
:103C5000F0D913680133EDD05388033302EB8303AB
:103C60009C42E7D39588B5420AD0158845B195683E
:103C700003689D4211D05388033302EB8302D7E7D8
:103C80009C42D7D91A6801321A46D3D05D880335D1
:103C900003EB85039C42E5D2CCE7184B42601B89BD
:103CA00003810120F0BC704712699342B5D813F02C
:103CB0000305B2D1114A048912899442ADD1046836
:103CC0009A689442A9D10C484268934203D902F5FC
:103CD0008052934207D38269934207D902F58052FA
:103CE000934203D201250D800120DBE70020F0BCC8
:103CF000704700BF58030020F00C0020D40C0020B7
:103D0000F0B5334C334DB4F802C062684FEA8C060C
:103D100006EB0C0305EB830383B0596801F5805073
:103D2000002A52D05388033302EB8302904213D807
:103D3000664405EB8605EB68002B3DD0264B2748F3
:103D4000196802229A80052500230122257003B0FC
:103D5000BDE8F04006F03ABE13680133E8D053885E
:103D6000033302EB83038342E2D84FF6FF7E97884A
:103D7000774514D0178897B162605388164D17485D
:103D8000AE882968033300259BB200959B0001EBA8
:103D900086010325257006F057FD03B0F0BD98425B
:103DA000C6D91A6801321A46C2D05F88033703EBBE
:103DB00087039842DBD2BBE708480425012225701F
:103DC00003B0BDE8F04006F001BE01F10802ADE726
:103DD000D40C0020F00C0020A80D00205803002077
:103DE0002DE9F04FA44F3C6889B006464FF6FF78A6
:103DF000002C00F09D802278531E052B62D8DFE84E
:103E000003F0542F2F1D1D03002E40F0DF80DFF83C
:103E100090C29CF80C209CF80030002A00F05F81D2
:103E2000013B8CF80C60062B4CD8DFE813F0D30371
:103E3000F4020402DD014B00F702DA02002E40F02A
:103E4000C5802379012B00F05781C0F0ED8003ADD0
:103E5000022B0396C5E902662E6139D1304638E05F
:103E6000B4F81490A37D002E00F0B880022BE288F5
:103E700040F2D6804FEA8906804D06EB090105EB3A
:103E80008101D31C0A8913440B81E2884E4405EB5F
:103E9000860603AD7389033B9B1A00227381AA60D7
:103EA0000392C5E90322012013E0002E40F0AE800A
:103EB0002379032B00F20981DFE813F08A014D0119
:103EC00060016B01002303ADC5E90333AB600393CD
:103ED0000F2004902378023B042B0AD8DFE803F07C
:103EE0005C443803580004238DF80C30E388ADF8A7
:103EF0001830634C04F1100654F8043B284603B113
:103F00009847A642F8D15F4C5F49604800233B6068
:103F100001F09CFE2368002B4AD02046012101F0CD
:103F2000DFFE00284FD03C680026002C7FF463AFF2
:103F30005549564801F05CFE0446386000287FF47D
:103F40005AAF534940F2825001F0F0FD3C6852E70D
:103F500003238DF80C30E388ADF818302389ADF8D1
:103F60001A30E3680593C4E702238DF80C302389E7
:103F7000ADF81830A388ADF81A30E3680593A37D37
:103F8000A3F10603B3FA83F35B098DF81C30B0E7A5
:103F900005238DF80C30ACE701238DF80C30238914
:103FA000ADF81830A388ADF81A30E3680593A0E7A0
:103FB000374940F27A2001F0B9FD2046012101F095
:103FC0008FFE0028AFD109B0BDE8F08F03AD00230C
:103FD000AB600393C5E9033301207AE74FEA890612
:103FE000264D06EB090105EB8101B1F808A04968EF
:103FF00001EB8A0A062B00F29482DFE813F0B80185
:104000007F019101A40130015901720103AD214AE0
:10401000002353600393C5E902332B61012058E765
:10402000164D4FEA890631E702232371CDE9046674
:1040300003ADE368039328460DF10A01FFF7E6FD9F
:10404000002800F0C6810499134A8B88E3800B880E
:104050002381124800960423BDF80A4006F0F4FBC1
:10406000002840F0BC82054B04EB840403EB84047D
:1040700001232374A7E700BFEC0C0020F00C002004
:10408000BC0C0020A40D0020E40C002050000020F7
:104090002C020100CC0C0020180201005803002063
:1040A000D40C002001239A001A4405EB820300205F
:1040B00059680090082305F82200B44AB44806F075
:1040C000C3FB00283FF47FAF3C68B24A03AD002336
:1040D00053600393C5E902332B610E20F9E6072BE9
:1040E00000F26382DFE813F0E201610261028C01F9
:1040F000CF017D017D01AD01A64B1B78002B00F0A7
:104100005B81DFF898E2BEF80490B9F1010F15D891
:10411000A14D09EB890205EB82023046043212F808
:10412000043C002B00F0EB8109F1010399B2012955
:104130009946AEF8043002F11402F0D903AD08221A
:10414000002196480AF094F80020A8600390C5E981
:1041500003003C68BDE6904D2B78022B00F04982AD
:104160002B7D022B9ED08B4B03AD002001221A70B9
:1041700003905860C5E902002861AAE6884A84488D
:1041800011680023237102249480012206F01EFC92
:1041900097E7834E7D4A31687D487F4D4FF0000997
:1041A00084F804900823CDF8009006F04DFB7D4B79
:1041B00034685B88B18803EB830305EB830205F861
:1041C000239053683360022354601181B38078E7F1
:1041D000734B754A19686E480123237100230093BD
:1041E000082306F031FB6CE7BCF802306A4D03EBA4
:1041F000830305EB8305EB68002B00F0C881684B57
:104200006348196802229A8005228CF80020002356
:10421000012206F0DBFB00283FF4D5AE03AD0023FE
:1042200041F61D523C68AB600393C5E903339042ED
:1042300008BF18464DE6DCF80420594853888488A6
:104240000168534801EB84010333002400949BB2BE
:1042500003249B008CF8004006F0F6FADBE7534B92
:10426000A26953491A604FF0000B1846C3F804B016
:10427000FFF7CCFC002800F0B5810223A3750423CE
:104280005146CDF800B0E218414806F0DDFA0028AA
:104290003FF499AEA37DE288022B4FF00E0023D8A5
:1042A0004E4405EB86056B89033B9B1A6B81B5E792
:1042B0003F4B3E4AB3F800A0516835483D4A0023C1
:1042C0004FF0060C84F816C00093042306F0BCFAE5
:1042D0000028DFD10AEB8A0A05EB8A0501232B743B
:1042E00071E6E28841F61D5006EB090105EB8101FC
:1042F000D31C0A8913440B81E288D1E7032A0CBF3F
:10430000052306230022A3750AF104010092042369
:1043100004F108021E4806F097FA0028BAD152E6C6
:1043200023691B48002B14BF032301230022A3751C
:104330000AF108010092042304F10C0206F084FA49
:104340000028A7D13FE6E388226911484FF0010C0D
:1043500084F816C04FF0000C0AF10C019B00CDF858
:1043600000C006F071FA00283FF42DAE92E7022358
:104370000022A375042300925146E218044806F077
:1043800063FA00283FF41FAE84E700BF1C0201005F
:1043900058030020CC0C0020F00C0020B40D0020AD
:1043A000A80D0020D40C002024020100B00C002035
:1043B000B00D00201802010003AD082231469048DC
:1043C00009F056FF0396C5E902662E613C6802209B
:1043D0007FE50A200023C5E90033C5E902332B61DC
:1043E00077E5884B884A1968884800230093CCF801
:1043F000043007238CF80030082306F025FA0AE77A
:10440000804ADCF804109388498803330B44022166
:1044100093808CF80010FFF773FCFCE6BCF80220D8
:104420007B4D9300134405EB830506200023696848
:10443000784A00938CF800000823744806F004FAC8
:10444000E9E601238CF800309CF80A303BB1704D4E
:10445000EB6800228CF80A20002B00F0A1809CF869
:104460000B30002B3DD06A4D2B6A00228CF80B20BC
:10447000002B36D195F824309BB30123ACF80230E1
:10448000FFF73EFCC7E6BCF80220614D5D4C93008F
:10449000991805EB810120684E68B4F804E0486083
:1044A00002202660A1F808E0A080BBE7584DBCF8C8
:1044B00008102A7D2B78B2FA82F252090131B3FA40
:1044C00083F35B098CF80B20ACF808100022012163
:1044D0008CF80A30ACF802208CF80C208CF8001014
:1044E000B4E703AD0020A8608CF80000ACF802002F
:1044F000CCF804000390C5E903003C68E9E41368C4
:10450000DEF8001003F5805C03F1080A002964D08E
:104510004B88033301EB83018C4505D8CEF80000AE
:1045200002E6E2880F20DFE60B680133F6D04B8805
:10453000033301EB83039C45F0D38E88464519D0A5
:10454000B1F800B0BBF1000F14D0E388CEF8001032
:10455000B342DBD1002300932F4A2C48042306F0FA
:1045600073F9002847D109EB890905EB8905012377
:104570002B7428E59C45D1D9196801311946CDD055
:104580005E88033603EB86039C45D6D2C6E7042239
:104590008CF8002069681D48012206F017FA3AE6F7
:1045A0002A7C002A3FF45BAF68E7013B062B3FF60D
:1045B00089AC01A252F823F0D54500001744000051
:1045C00037420000E9410000C53E00001D440000E4
:1045D000E34300009CF80A3038E751469CE73C680A
:1045E0000E20F7E603AD0390C5E9020028610A201A
:1045F0006FE4002357E53C680E2003ADEAE600BFF8
:10460000B40D0020A80D0020240201005803002052
:10461000F00C00201C020100180201004068FFF7A6
:10462000DFBB00BF2DE9F04FA34C8BB022780023F5
:10463000CDE90533CDE90733099372B19F4C04F1FD
:10464000100554F8043B05A803B19847A542F8D1DA
:10465000002528460BB0BDE8F08F201D02F0FF06B4
:1046600001F04AFB07460028F2D14FF010234FF02B
:1046700080525B6911695269DFF86482581C08BF77
:1046800002FB01F3C8F810308D49A3F540534046B2
:104690000022C8F80C3006F09DF805460028D8D155
:1046A0001C238C2287498848DFF838A201F04CFA95
:1046B000D8F80C90DFF83082029609F5405348464E
:1046C0004FF0030B2A469946002800F099800368B2
:1046D0007E498B4240F0948043687D498B4200F0D4
:1046E000058101318B4240F08B80029B63B102EB6C
:1046F000820C08EB8C0102260132DAF8003008F84F
:104700002C6092B24B600E818168CAF800004FF0B5
:10471000020C0131AAF804C000F5805300F108062C
:104720002CD04189033106EB81008342C0F0A58083
:1047300060464FF6FF7E0192B6F804C0F4450FD0F4
:10474000B6F800C0BCF1000F0AD0624AD6F808C023
:104750001268944504D95F4AC2F800C071880331D9
:10476000084480B2AAF804007188033106EB810680
:10477000B34277D80228019A40F01F8104210F43E9
:1047800099451846A0D1BBF1010F7CD9FFB2022F89
:1047900079D0062F00F08180002F74D004A94A48F8
:1047A00001F0EAF91C220446002109F061FD002C09
:1047B00000F001810123013F23700A2F09D8DFE8AF
:1047C00007F019081908160816081C061C00022311
:1047D000237104A93C4801F0FBF901213E4801F096
:1047E00067FA00287FF434AFFFF7FAFA31E70123C4
:1047F0002371EEE700232371EBE703232371E8E73E
:1048000000F58053014601E08B4214D00E6801365A
:1048100001F10401F8D002EB820108EB81060BF1F3
:10482000FF3B01324FF0030C1FFA8BFB92B208F8EA
:1048300021C07060A4E7DAF8001031B3274E02EB14
:10484000820108EB810C7280022602F1010E08F849
:1048500021601FFA8EF2CCF80400ACF8086047F033
:1048600001078DE73168013184D07188033106EB8F
:10487000810C6345BFF460AF019A4FF48061AAF8E0
:10488000041008217BE70B25E3E60221AAF80410B7
:104890000121CAF800000291E1E7084D012200233E
:1048A000227005F11006636055F8043B05A803B1BA
:1048B0009847AE42F8D1CBE6CC0C0020BC0C0020CF
:1048C00094140100180D002050000020DEC0ADDE61
:1048D000FE011EF1E80C0020A40D0020D40C0020E5
:1048E00058030020A80D0020F00C00209300039333
:1048F000134408EB830C002108F823104FF0020347
:10490000ACF80830CCF804008668013600F5805316
:1049100000F1080140D0408900F1030E01EB8E0E3A
:1049200073452FD302260192E646B1F804C04FF634
:10493000FF72944537D0B1F800C0BCF1000F32D0FF
:104940001F4AD1F808C01268944505D91C4ABEF820
:104950000860C2F800C0488806440336B6B2AEF814
:1049600008604888033001EB80018B4219D9086840
:10497000013016D0488800F1030C01EB8C0C634524
:10498000D3D2019A0399114408EB81014FF480605E
:104990004FF001060E740881013292B247F002070F
:1049A000EEE6019AF8E74FF001028EF810204888F1
:1049B000BEF80860D0E708254BE60821DFE600BF17
:1049C000E80C002008B301B370B582B00C460DF1BD
:1049D00006010546FFF71AF9A0B1BDF806000C4B19
:1049E0006E6800EB800003EB800001210C3001F0C9
:1049F0006BF926606B6801220C3300206360AA7299
:104A000002B070BD0A2002B070BD0520704700BF23
:104A1000F00C0020E8B110B582B00DF1060104469B
:104A2000FFF7F4F890B1BDF806300C4A03EB8303AE
:104A300002EB8303DA6872B1A27A62B1DA6800210C
:104A4000013A0846DA60A17202B010BD0A2002B035
:104A500010BD05207047062002B010BDF00C0020EC
:104A6000484B1B78002B32D0002934D00A884FF6EF
:104A7000FF739A4229D04B883BB34B689B072CD1DC
:104A80002DE9F043B1F8088008F103039BB240F22E
:104A9000FD32934283B01CD83B4A17783FB9568900
:104AA000148934441C44A4B2B4F5806F17D3147D28
:104AB0003CB9D68B948B34441C44A4B2B4F5806FBB
:104AC0005DD3072003B0BDE8F083042070470220C7
:104AD00070470920F6E70520704703207047BC4661
:104AE0004FEA8C09E14402EB890933440C46054640
:104AF00001A92648A9F80A3001F03EF81C22064612
:104B0000002109F0B5FB5EB302234FF00009B78224
:104B1000337086F816906368336101211C4801F0F8
:104B2000D3F8F060238833816388B38001A9A6F8A5
:104B30000A90A6F80680154801F04AF845B1C5F874
:104B40000490F268134B2A601B8985F80A902B8128
:104B50000121114801F0ACF8044660B10020B1E732
:104B6000B9F80A30C8F57F4808F1FD089844A9F85B
:104B70000A800820A6E7FFF733F92046A2E70127BD
:104B8000BC46ADE7CC0C0020F00C0020500000200B
:104B9000E80C0020D40C0020A40D0020002836D002
:104BA000484B1B78002B30D0002930D00A884FF6B4
:104BB000FF739A422FD04B886BB34B689B0728D169
:104BC0002DE9F043B1F8089009F103039BB240F2DC
:104BD000FD32934283B020D83B4A15783DB95789BE
:104BE00014893C441C44A4B2B4F5806F17D3147DDF
:104BF0003CB9D78B948B3C441C44A4B2B4F5806F71
:104C00005BD3072003B0BDE8F08302207047052086
:104C1000704703207047042070470920F2E7A84638
:104C2000AC464FEA8C05654402EB85053B440646DD
:104C30000C4626486B8101A900F09EFF1C22074606
:104C4000002109F015FB57B300250323A7F81480B2
:104C50003B70BD7563683B6101211D4801F034F86C
:104C6000F86023883B816388BB800423A7F8069003
:104C7000BB753368BB6101A97D81144800F0A8FFB2
:104C80007560FA68134B32601B89B572338101215C
:104C9000114801F00DF8044658B12846B2E76B8977
:104CA000C9F57F4909F1FD099944A5F80A90082042
:104CB000A8E7FFF795F82046A4E74FF00108C4469F
:104CC000AFE700BFCC0C0020F00C0020500000200B
:104CD000E80C0020D40C0020A40D00202DE9F043A6
:104CE000344C2478002C60D03AB333B39F88012F22
:104CF0005ED8314C07EB870C013704EB8C0CBFB24C
:104D00004FF6FF7E4FF000089CF8004074B91C6815
:104D1000DCF8045005F58056002C43D06588033537
:104D200004EB8504B4420BD3C3F80080022F9F80AC
:104D30000CF1140C3CD00227E6E70520BDE8F08317
:104D400025680135F0D06588033504EB8505AE4252
:104D5000EAD3B4F80490F14515D0B4F80090B9F155
:104D6000000F10D01C60A5888542D1D125888D42C6
:104D7000CED1A16811601968104B51601B89138155
:104D80000020BDE8F083AE42CED92C6801342C4619
:104D9000CAD0B5F8029009F1030905EB8905AE42C6
:104DA000D7D2C1E705F10804BCE70220BDE8F083D3
:104DB0000A20C3E7CC0C0020F00C0020D40C00200B
:104DC0002DE9F04F8BB0CDE90323019100283ED0AF
:104DD00000293CD0002B00F04581134602F0080664
:104DE00002F00102029203F0020203F004030546FE
:104DF00005920693884605F101092C785EBB3F2C8D
:104E000000F09C8075D8002C5BD02A2C40F02181CA
:104E10006C7825468EBB2A2C03D119F8014F2A2C19
:104E2000FBD04D4698F800302E2B00F0DC81059B1E
:104E3000002C4FD02F2C40F02D82002B00F044820C
:104E40004046214609F09CFB80460028D3D1012032
:104E50000BB0BDE8F08F09F0C7F9671CC35D03F024
:104E60000303012B5ED03F2C68D000F2838044B353
:104E70002A2C40F0D1816C78254609F0B5F9671CE1
:104E8000C35D03F00303012B00F0DE81ECB22A2C9A
:104E9000C7D14D4602E0E4B22A2CC3D115F8014F28
:104EA00009F0A2F9671CC35D03F00303012BF2D1E3
:104EB00009F09AF9C35D03F00303012B08BF203406
:104EC000E9E7039B98F80000D9060CD52F280AD1F2
:104ED0000020BDE7002BFBD0039BDA06F8D4404648
:104EE0002F2109F04DFB003018BF01200BB0BDE8A9
:104EF000F08F5B2C40D05C2C40F0AB80029B08F123
:104F0000010B002B40F0D38095F801A002355446E8
:104F100098F80070D846BAF1000F40F09F804D46D7
:104F200054469BE009F060F9C35D03F00303012BD5
:104F300099D12034E4B23F2C40F0678198F80030DA
:104F4000002B84D02F2B00F0D7802E2B40F0D88060
:104F5000069B002B00F0D480019B98453FF477AF6F
:104F6000059B002B00F0CC8018F8013C2F2B40F063
:104F7000C7806CE75B2C79D198F80030002B3FF4A8
:104F800066AF2F2B00F0AF809A46002E40F0BC8019
:104F9000B9F1000F3FF45BAF6B78212B00F0C880B4
:104FA0005E2B00F0C58000224F4609920121CDF80A
:104FB0001C804FF0000B8846CDF820901C467D1CCD
:104FC0000EBBE4B25D2C34D02F2C00F001815C2CA0
:104FD00007D1029B43B9BD1C7C78002E40F0E680CF
:104FE000E4B2002C3FF433AF2B782D2B00F0A580DA
:104FF000A24508BF4FF0010B2F464FF000081C469A
:105000007D1C002EDDD009F0EFF804F1010910F845
:10501000090000F003000128D3D109F0E5F810F8E9
:10502000093003F00303012B08BF2034E4B25D2CE8
:10503000CAD1B8F1000FD7D1099B5B45DDE90789DB
:105040003FF405AF002D3FF402AF6B1C40F0C88069
:10505000C0E098F800704D4608F10108A7423FF4FF
:10506000CAAEF4E603200BB0BDE8F08F5C2C40F034
:10507000D380029B08F1010BCBB96C780235A246B4
:10508000002E3FF445AF09F0AFF80AF1010A10F81D
:105090000A3003F00303012B00F0F18098F800A020
:1050A00014F0FF045746D84609D14D4607E098F85A
:1050B00000704D46BA46D8465C24002ECED009F08A
:1050C00093F80AF1010A10F80A3003F00303012BE8
:1050D000C4D109F089F810F80A3003F00303012B5A
:1050E00008BF2037BAE7059A002A7FF4B0AE9A4687
:1050F000002E3FF44DAF07E0059B002B7FF4A7AED9
:1051000008F101084D4676E609F06EF80AF101044F
:10511000035D03F00303012B7FF43AAF09F064F859
:10512000035D03F00303012B08BF0AF1200A2FE7F8
:105130000122AF1CAB78099238E76F7816BB17F0E5
:10514000FF071DD05D2F1BD05C2F05F1020309D096
:105150001D46A2452B78FFF64FAFBA45D8BF4FF09A
:10516000010B49E7029A002AF2D105F10308AF7852
:10517000002E58D117F0FF073FF469AE4546E8E727
:105180002B7835E709F030F807F1010810F80830FE
:1051900003F00303012BD2D109F026F810F80830F0
:1051A00003F00303012B08BF2037C8E709F01CF800
:1051B000671CC35D03F00303012B7FF411AF09F0FB
:1051C00013F8C35D03F00303012B08BF203407E786
:1051D000DDE9078998F800305B2B7FF438AE4D4647
:1051E00008F1010807E6069B002B3FF420AE019B67
:1051F00098453FF42CAE059B002B3FF418AE18F8F1
:10520000013C2F2B7FF413AE21E628DC002C3FF469
:1052100058AE2A2C3FF4FCAD98F800A04D4608F19A
:10522000010857464BE708F0DFFF7D1C415D01F0A8
:10523000030101299ED108F0D7FF415D01F0030170
:10524000012908BF203795E708F0CEFFC35D03F0C2
:105250000303012B7FF41AAE04F1200516E65B2C44
:105260003FF48AAE5C2CD7D1029B08F1010B002BD6
:105270007FF41DAF95F801A00235544603E708F00E
:10528000B3FF10F80A3003F00303012B7FF406AFDD
:10529000203403E7002E40D1002B62D1049B5F1E17
:1052A000039B23F0040B04E0FFF78AFD01287FF441
:1052B000CFAD98F8004041463B465A46284608F193
:1052C0000108002CF0D1C2E5002EE7D0049B5E1E41
:1052D000039B23F0040B0CE014F0FF0F33465A46F7
:1052E000494628463FF4B3ADFFF76AFD01287FF435
:1052F000AFADC14618F8014B08F076FF671CC35DDF
:1053000003F00303012BE7D108F06EFFC35D03F048
:105310000303012B08BF2034DEE7002BD6D0049B0B
:105320005E1E039B23F0040B474618F8014B08F060
:105330005BFF04F1010910F8093003F00303012BAE
:1053400025D014F0FF0433465A46394628463FF428
:105350007EADFFF735FD01287FF47AAD2F2CE3D128
:1053600075E5049B5F1E039B23F0040B414618F870
:10537000014B3B465A462846002C3FF468ADFFF7E8
:105380001FFD01287FF464AD2F2CEFD15FE508F0FD
:105390002BFF10F8093003F00303012B08BF203462
:1053A000CFE700BF2DE9F04F89B0CDE901210028FA
:1053B0003DD000293BD0134602F0080602F001025E
:1053C000009203F0020203F00403054603920493E3
:1053D000884605F101092C786EBB3F2C00F06881EE
:1053E00062D8002C00F0CA802A2C40F07C816C78B6
:1053F0002546AEBB2A2C03D119F8014F2A2CFBD02D
:105400004D4698F800302E2B00F0CF81039B002CE6
:1054100000F03B822F2C40F02082002B00F04082D5
:105420004046214609F0ACF880460028D1D1012041
:1054300009B0BDE8F08F08F0D7FE671CC35D03F02C
:105440000303012B00F06A813F2C00F0318146D824
:10545000002C00F093802A2C40F073816C78254654
:1054600008F0C2FE671CC35D03F00303012B00F0CC
:10547000CD81ECB22A2CC3D14D4602E0E4B22A2CF5
:10548000BFD115F8014F08F0AFFE671CC35D03F0F4
:105490000303012BF2D108F0A7FEC35D03F0030361
:1054A000012B08BF2034E9E75B2C4ED05C2C40F088
:1054B0001A81009B08F1010B002B6DD195F801A01A
:1054C0000235544698F80070BAF1000F40F09C8104
:1054D0004D46D8465446A7423FF47BAFA7E75B2C26
:1054E00033D05C2C40F02D81009B08F1010B002B88
:1054F00052D16C780235A246002EE3D008F074FE3B
:105500000AF1010A10F80A3003F00303012B00F03E
:10551000998198F800A014F0FF04574600F01D820E
:10552000D84608F061FE0AF1010A10F80A3003F0CB
:105530000303012BCFD108F057FE10F80A3003F017
:105540000303012BC7D12037C5E798F80030002BA3
:105550003FF46DAF2F2B00F042819A46002E40F0B1
:105560000581B9F1000F3FF462AF6B78212B1FD09A
:105570005E2B1DD000224F4607921DE0019B98F83C
:105580000000D90602D52F2800F00481003018BF92
:10559000012009B0BDE8F08F98F800704D46BA467A
:1055A000D8465C24002EBCD1A7423FF412AF3EE7A0
:1055B0000122AB780792AF1C0121CDE905894FF09C
:1055C000000B89461C467D1C06BBE4B25D2C33D023
:1055D0002F2C00F0E1805C2C07D1009B43B9BD1C4F
:1055E0007C78002E40F08880E4B2002C3FF41FAF9E
:1055F0002B782D2B32D0A24508BF4FF0010B2F4640
:105600004FF000091C467D1C002EDED008F0ECFD9A
:1056100004F1010810F8080000F003000128D4D1BB
:1056200008F0E2FD10F8083003F00303012B08BF77
:105630002034E4B25D2CCBD1B9F1000FD8D1079B57
:105640005B45DDE905893FF4F2AE002D3FF4EFAE96
:105650006B1C00F0A38008F10108BAE66F789EB9D0
:1056600017F0FF070ED05D2F0CD05C2F05F1020361
:105670006ED01D46A2452B78C1DBBA45D8BF4FF08E
:10568000010BBCE72B78B6E708F0AEFD07F1010887
:1056900010F8083003F00303012BE1D108F0A4FD5A
:1056A00010F8083003F00303012B08BF2037D7E7B9
:1056B00098F80030002B3FF4BAAE2F2B00F0878013
:1056C0002E2B0CD1049B53B1029B43453FF4AFAE4C
:1056D000039B23B118F8013C2F2B3FF4A8AE08F12F
:1056E00001084D4675E698F80070A7424D4608F14E
:1056F00001083FF46EAE9AE608F076FD671CC35DC4
:1057000003F00303012B7FF46FAF08F06DFDC35D61
:1057100003F00303012B08BF203465E708F064FDA4
:10572000C35D03F00303012B7FF48EAE2034E4B29B
:105730003F2CBDD058DC002C3FF420AF2A2C3FF486
:1057400056AE98F800A04D4608F101085746E8E625
:10575000009A002A8DD105F10308AF78002E60D1A0
:1057600017F0FF073FF463AE454683E708F03CFDC2
:105770000AF10104035D03F00303012B7FF4F1AE92
:1057800008F032FD035D03F00303012B08BF0AF1AB
:10579000200AE6E600204BE6DDE9058998F80030AE
:1057A0005B2B7FF444AE4D4655E7049B002B3FF442
:1057B0002DAE029B43453FF43AAE039B002B3FF4D2
:1057C00025AE18F8013C2F2B7FF420AE2FE6039B6B
:1057D000002B7FF42CAE08F101084D46F9E5039A41
:1057E000002A3FF4BAAE22E65B2C3FF4AEAE5C2C4E
:1057F000A7D1009B08F1010B002B7FF4CDAE95F8EB
:1058000001A00235544679E6D84664E608F0ECFC7F
:10581000C35D03F00303012B7FF42BAE04F12005DD
:1058200027E608F0E1FC7D1C415D01F00301012940
:1058300096D108F0D9FC415D01F00301012908BFB0
:1058400020378DE708F0D0FC10F80A3003F003038E
:10585000012B7FF45EAE20345BE6002E48D1002B96
:1058600067D1019B23F0040B04E0FFF7A9FA01289C
:105870007FF4DEAD98F8004041463F235A46284663
:1058800008F10108002CF0D1D1E5002B82D0019B5A
:10589000DA063FF57FAF40462F2108F071FE75E62E
:1058A000002EDED0019B23F0040B0DE014F0FF0F5F
:1058B0004FF03F035A46394628463FF4B8ADFFF74C
:1058C0007FFA01287FF4B4AD474618F8014B08F081
:1058D0008BFC661C835D03F00303012BE6D108F00B
:1058E00083FC835D03F00303012B08BF2034DDE755
:1058F000002BD7D0019B23F0040B464618F8014B30
:1059000008F072FC671CC35D03F00303012B27D072
:1059100014F0FF044FF03F035A46314628463FF447
:1059200086ADFFF74DFA01287FF482AD2F2CE4D12C
:105930007DE5019B23F0040B414618F8014B3F2302
:105940005A462846002C3FF472ADFFF739FA012879
:105950007FF46EAD2F2CEFD169E54D46D846E0E5DA
:1059600008F042FCC35D03F00303012B08BF2034A1
:10597000CEE700BF1EF0040F1CBFEFF309800AE062
:10598000EFF308800549064A884201D8904202D8C0
:105990008D464FF00000034B184700000000012027
:1059A00000E00020CD590000BFF34F8F0549064BA2
:1059B000CA6802F4E0621343CB60BFF34F8F00BFAD
:1059C000FDE700BF00ED00E00400FA052DE9F04F0F
:1059D00083B08146FCF7AEFEFCF72AFE0028FBD11F
:1059E000444F454B454CDFF83881A56AB8F8022092
:1059F000FF1AFF083F0447F00107B9F1000F70D00C
:105A0000002A41D13D4BDB6ADFF818B1DFF818A15D
:105A10000024012602E001341A2C12D006FA04F305
:105A20002B42F8D05BF82420002AF4D0B8F80230DA
:105A3000002BF0D0514638460134FCF7D3FA1A2C2B
:105A4000ECD1290613D5B8F8023053B92C4B1B689A
:105A5000DB0700D500BE4846FFF7A6FF03B0BDE850
:105A6000F08F264B27495A6B3846FCF7BBFA2A04BD
:105A7000ECD5B8F80230002BE8D0204B22499A6BC5
:105A80003846FCF7AFFAE1E7D9F818201F49384645
:105A9000FCF7A8FAB8F8023053B3D9E90210D9E9F3
:105AA0000023CDE900101A493846FCF75FFCB8F82E
:105AB0000230002BA6D0D9F81C10D9E904233846AF
:105AC00000911449FCF7B6FB0C4BDB6A98079BD599
:105AD000B8F80230002B97D00F493846FCF7F6F99A
