:1000000000000120750300005D030000F13E0000C8
:1000100061030000630300006503000000000000AE
:100020000000000000000000000000006703000066
:1000300069030000000000006B0300006D03000076
:10004000419300007DB10000519300006F03000058
:100050006F0300006F030000099100006F030000B0
:100060006F0300006F0300006F0300006F030000C8
:100070006F0300006F0300006F0300006F030000B8
:100080006F030000ED3700006F0300006F030000F6
:100090006DB50000893800006F0300006F03000099
:1000A0006F0300006F03000015BF00006F03000026
:1000B0006F0300006F03000000000000000000005C
:1000C0006F0300006F0300006F0300006F03000068
:1000D0006F0300006F0300006F03000000000000CA
:1000E0000000000000000000000000000000000010
:1000F0000000000000000000000000000000000000
:1001000000000000000000000000000000000000EF
:1001100000000000000000000000000000000000DF
:1001200000000000000000000000000000000000CF
:1001300000000000000000000000000000000000BF
:1001400000000000000000000000000000000000AF
:10015000000000000000000000000000000000009F
:10016000000000000000000000000000000000008F
:10017000000000000000000000000000000000007F
:10018000000000000000000000000000000000006F
:10019000000000000000000000000000000000005F
:1001A000000000000000000000000000000000004F
:1001B000000000000000000000000000000000003F
:1001C000000000000000000000000000000000002F
:1001D000000000000000000000000000000000001F
:1001E000000000000000000000000000000000000F
:1001F00000000000000000000000000000000000FF
:10020000354936480A1A02D0072291438D463449AF
:1002100034480A1A06D00722914381F30988022242
:1002200082F3148830483149314A00F044F83148AB
:100230003149324A00F03FF831483249324A00F041
:100240003AF832483249334A00F035F832483349F7
:10025000334A00F030F833483349344A00F02BF881
:1002600033483449344A00F026F8344834490022EF
:1002700000F02CF833483449002200F027F83348C6
:100280003349091A082902DB002202604160314A21
:1002900090471F481F49884205D00268043003B4C4
:1002A000904703BCF7E700208646EC46002000217B
:1002B000294A9047FEE7884207D0521A05D00378B2
:1002C00001300B700131013AF9D17047884202D0F8
:1002D00002700130FAE770470000012000E00020C2
:1002E0000000012000000120C0440200D8010020CD
:1002F00090030020D4030000D4030000E485010033
:10030000C0440200D8010020D8010020E08A01008A
:10031000E08A0100E08A0100E08A0100E08A010031
:10032000E08A0100E08A0100E08A0100C044020086
:1003300078460200900300209003002090030020E4
:10034000D86D0020D86D0020DC6D0020DC6D002011
:10035000DC8D00209D030000DDA60000FEE7FEE727
:10036000FEE7FEE7FEE7FEE7FEE7FEE7FEE7FEE765
:10037000704700BF1048804710484FF0070188437E
:1003800085460F4880470F48016841F470010160BD
:10039000BFF34F8FBFF36F8FFFF732BF0A480B4990
:1003A0000B4A884207D0521A05D0037801300B70EF
:1003B0000131013AF9D170477103000000000120BA
:1003C000BD68010088ED00E0088901000000002000
:0403D000D801002030
:1003D40000487047D06D00207047000007B5002228
:1003E40001A907F0A5FB30B9044A01981368013349
:1003F400136007F0AEFA03B05DF804FB0C040020B0
:100404000148FFF7EBBF00BF9C8601000148FFF7DE
:10041400E5BF00BFB886010030B585B0054601913F
:10042400002401A9284607F0FDFA10B9204605B0BA
:1004340030BD002203A9284607F07AFB0028F0D13A
:10044400039807F086FA0134EBE7000073B583687C
:10045400D3F854339B07054603D50022114605F013
:10046400D1FF154C154A24F47F6428464FF4805676
:10047400082124F00F0404F011FD234628460096B9
:100484000F4A082104F00AFD0E4B0F4A1B681C1B7F
:10049400642363432846CDE900461B0B082104F07E
:1004A400FDFC0A4B0A4A1B680821284602B0BDE835
:1004B400704004F0F3BC00BF77560200148B0100B7
:1004C400288B010004040020558B01000C0400203B
:1004D400848B010000238B540A460068194604F0FB
:1004E400DDBC00002DE9F0433C4D87B007460E46C5
:1004F400DFF8F4801CE0DDF8089005940C2240231A
:100504000DEB02012B6048462346CDE9034407F076
:1005140043FA0C220DEB0201404617F051F89DF806
:100524000C3003F00303012B0BD0022B2CD02C60D6
:10053400002202A9384607F0FBFA04460028DAD064
:1005440036E0BDF80C40C4F38314A4000C23224607
:100554002349484607F020FA2A6804F10C039A421A
:10056400E6D3029A1F4C009221681F4A1F482B6051
:1005740006F088FF90B9F6B123682A6802981344FC
:10058400236007F0E6F9B3E7BDF80E40A409342C64
:1005940028BF3424033424F00304D7E776B90428AD
:1005A4000CD1029807F0D5F9114A1368013313608E
:1005B400104803F054FE07B0BDE8F083102806D1BC
:1005C400029807F0C6F90C4B01221A7090E70B4908
:1005D40040F23D1003F04EFD8AE700BF08040020FE
:1005E4001C040020040400201004002058000020F3
:1005F4000C040020D0030020800400209B8B010009
:10060400174A38B513780446CBB90378012B25D1A2
:10061400416879B91348144A0368156811602B447A
:1006240003601248FFF75EFF6069B8B1BDE8384067
:1006340007F08FB90E4A136801331360F4E7012BF6
:100644000CD10378022B09D10A4B816823F47F6310
:1006540023F00F03994204BF0023137038BD00BF79
:100664008004002004040020080400209C8601006B
:100674000C040020775602000D4B1B7810B50C4675
:10068400A3B9084607F061F921460A48FFF7C4FEFA
:10069400094A136818441060084803F0D7FD01465E
:1006A40020B90448BDE81040FFF71CBF10BD00BFCF
:1006B400800400209C8601000C040020D00300204C
:1006C40038B50B4C2378012B0D460FD0084607F0A4
:1006D4003CF929460748FFF79FFE2378022B05D1F2
:1006E40001210448BDE83840FFF7FCBE38BD00BF17
:1006F40080040020B886010070B5002286B01B4932
:100704001B4806F083FE1B4B044650BB02221A70A2
:10071400194B1A481A4E0125C3F884502946FFF78D
:10072400E1FE04F0C40343F0290303948DF80C3074
:10073400039B144A31680E4862F39F23124A0393C1
:10074400C2E9003494600C23009406F09BFE3368E5
:100754000E480C332946336006B0BDE87040FFF7FD
:10076400C1BE01221A7006B070BD00BF64AE0100A4
:10077400580000208004002000E100E09C86010075
:1007840004040020E08A010010040020B88601005F
:1007940070B50E4601680446154621B9154921F481
:1007A4007F6121F00F012160134806F0B1FFF0B121
:1007B400216831600B7803F0030301F10C00012B75
:1007C400286003D0022B09D0052070BD0B88C3F329
:1007D40083139B00034423600020F6E74B889B09A6
:1007E400342B28BF3423033323F00303F2E706201A
:1007F400EBE700BF77560200580000201FB5114BED
:10080400114C23F47F6323F00F03E360014603F6E6
:10081400FF7320460022236106F0F8FD044668B900
:10082400019003AA02A901A8FFF7B2FF0028F8D09B
:10083400064B019A1A60064B00221A70204604B037
:1008440010BD00BF775602005800002004040020A9
:10085400800400202DE9F0418368D3F854339B07CA
:1008640088B0044603D50022114605F0CBFD0023D1
:10087400CDE90233274E284D284F4FF0010803AA33
:1008840004A902A8FFF784FF0346002836D1DDE956
:100894000301CDF81A30ADF81E308B6805938B88B0
:1008A400ADF818300B78346003F00302012A07D046
:1008B400022A18D0394640F29D2003F0DBFB0FE0FA
:1008C4000A88D1F800C00095C3F3C2038DF81C3028
:1008D400014605ABC2F383124FEA9C2001F05AF99A
:1008E4004FF00008CBE74988C3F3C2038DF81C30EE
:1008F40005AA2B46890901F0B1F9F1E7B8F1000F17
:1009040004D0074A0221204604F0C8FA08B0BDE822
:10091400F08100BF84040020D80100209B8B0100DB
:10092400028B010010B5084C084B094824F47F647D
:10093400012224F00F041A702146002306F062FEFF
:10094400044B1C6010BD00BF7756020080040020D9
:10095400580000200404002008B58368D3F85433F9
:100964009B0703D50022114605F04CFDBDE8084065
:10097400FFF7D8BFF0B595B008460D4616461C469D
:1009840006F0E3FF1A9A0D9200230C2205A92846CB
:100994000A938DF82C300C93CDE9086406F0FCFF23
:1009A400079B0293069B039301238DF811309DF856
:1009B400143003F00302012A1DD1BDF81440059E32
:1009C400C3F3C203C4F383148DF81030A2000C23C4
:1009D4000EA9284606F0E0FFC6F3952608AB00935F
:1009E400224602AB0EA9304601F0D4F8284606F0A0
:1009F400B0FF15B0F0BD022AF8D1BDF81640C3F31C
:100A0400C203A4098DF810300C27082C264628BFF1
:100A140008263B4632460EA9284606F0BDFFA41B15
:100A240008AB02AA31460EA8374401F017F9002C8E
:100A3400EBD1DBE7014B01221A707047C904002097
:100A44007047000070B50F4D06460FCD88B06C4658
:100A54000FC495E80F00002E84E80F004FF0060342
:100A6400094A0A48009308BF0022694608F0B6F80C
:100A740018B1074A432101F0BBFC064B1E7008B0B5
:100A840070BD00BF248D0100390A0000F001002070
:100A9400508D01008804002007B5044B0093044ADC
:100AA4004023FFF767FF03B05DF804FBB90A0000B9
:100AB4008904002038B50E4B0E4D002018700E48E6
:100AC40004782D5DD2B21C4675B1043009F0F0F9FA
:100AD40018B10A4A532101F08BFC094B1A7812B160
:100AE4002378002BFBD038BD0C3008F0C9FEEFE7AB
:100AF400C9040020200E0020F0010020508D0100C8
:100B04008804002008B50848084A0378D35C3BB140
:100B1400043009F077F90020BDE80840FFF792BFE0
:100B24000C3008F057FEF6E7F0010020200E0020FC
:100B340000230428CB604B6098BF044B044A98BF41
:100B440053F820308A600B60704700BF609001004A
:100B54003C900100CB6800225A717047C368DB687F
:100B640000225A717047CB6801225A717047C368DA
:100B7400DB6801225A7170470D4A8A6070B50D4ACC
:100B84000D4C0023121BCB604B600B6012091D46F9
:100B94009A4207D0E6683679FF2E05D0854202D105
:100BA400A3680B6070BD013501331034F0E700BF5A
:100BB40074900100B4880100648801002DE9F74FA6
:100BC400164D174C52F8047C0193641B0646894663
:100BD400924624094FF00008444508D1114A3B4687
:100BE4000221304603B0BDE8F04F04F057B9A968BC
:100BF400384616F063FDAB46103510B108F1010814
:100C0400EAE7DDED017A17EE90CA53464A465946A3
:100C1400304603B0BDE8F04F604700BF6488010070
:100C2400B4880100AC910100014BFFF7C7BF00BFBE
:100C340015120000014BFFF7C1BF00BF590B0000A4
:100C4400014BFFF7BBBF00BF6B0B0000014BFFF76D
:100C5400B5BF00BF4D100000037813F0040216D096
:100C640003F00303012B03D0022B09D001207047AA
:100C74000A6800880332C0F3831002440A60F5E76F
:100C84000B684288033303EB92130B60EEE71046C4
:100C9400704700002DE9F04F464C0F4687B00546DB
:100CA400C61C0020914601F045FC20683860D4E958
:100CB4000132134401331B1A04F21C4704F5836AFE
:100CC40004F21448B34217D30022B9F1000F6AD0DA
:100CD400052363F3070265F389122168A3680B40B7
:100CE40003330E44002044F82320266001F032FC34
:100CF400012007B0BDE8F08F0121384603F090FAD7
:100D0400504603F0A6FA404603F0A3FA6068A368CD
:100D140002901840033004EB800002A90193FFF70E
:100D24009BFF8346DDE90130BBF1000FF1D103EAFB
:100D3400000204EB8202411CD26803920B4004EBD4
:100D4400830302F00302D968012A00F1030302932A
:100D540021D0022A05D018494FF4BF7003F08AF954
:100D640008E0BDF80E00800903304FEA114B03EB95
:100D740090000290404603F06FFA08B1029B636052
:100D84005946384603F04CFAD4E901231344226847
:100D940001339B1A96E7BDF80C00C0F383104FEAA9
:100DA400114B1844E5E7062363F3070265F39F52EA
:100DB40093E700BF64060020BD8D0100012907B53B
:100DC400034604D08168D1F85413890707D500225B
:100DD4001146184603B05DF804EB05F013BB5368E5
:100DE4000193054B00931368044A022104F056F85A
:100DF40003B05DF804FB00BF308E0100268E0100B5
:100E04002DE9F3478368D3F85443C4F340040746F9
:100E140034B10022114602B0BDE8F04705F0F2BA41
:100E2400144E154DDFF85880DFF85890DFF858A0BD
:100E3400AD1B2D09AC4202D102B0BDE8F087F268C7
:100E4400B3681179FF2907D10C4A0821384604F008
:100E540025F801341036EDE75279002A14BF4246D2
:100E64004A46CDE9002138465246082104F016F8D6
:100E7400EFE700BF64880100B48801004D8E0100D3
:100E8400458E0100773502006C8E010030B50A4BA7
:100E94000A4A0B49D21AD20800239A4201D10520EA
:100EA40006E031F823500468A54202D10360002013
:100EB40030BD0133F1E700BF0C87010064880100F5
:100EC400800000202DE9F84F0546002849D0264C23
:100ED400FF230846A3600023C4F81834C4E9003390
:100EE400C4F8143484F8203400F012FF1F48C4F806
:100EF4000C5406F0E3FC814688B91D481D4E1E4C77
:100F0400DFF880A006F0E2FEA41BE4084D46A542EB
:100F140008D10023194A1A481946A3421BD148464E
:100F2400BDE8F88F4FF00008474606EBC50BBD42FD
:100F34000AD0142256F83710DBF8000016F07DFAB8
:100F44000028C8BF08F101080137BC42EFD12AF8D4
:100F540025800135DBE720F8231042F8041B013318
:100F6400DBE74FF00709DAE764060020B4880100E4
:100F7400309001000C870100648801002C010020DE
:100F8400820000208000002007B5019031B9019A49
:100F9400064B53F8320003B05DF804FB01A8FFF7D9
:100FA40075FF0028F3D00020F5E700BF0C8701008F
:100FB400002310B5CB604B60034B8B600C460121C2
:100FC400FFF7E2FF206010BD3C900100094B01399E
:100FD40003EBC000032909D8DFE801F00A02040684
:100FE40004207047007970474079704700207047AB
:100FF400022070470C87010030B5114C00EB400013
:1010040054F821508240072383406A401A400D4B14
:101014006A40C2F3821044F8212003EB8101C2F339
:10102400C203834238BF0346C2F34220834202F024
:10103400070238BF03469A4238BF1A464A8030BD79
:101044002C010020800000202DE9F74F06461D46A4
:101054009046002A4FD0CB6828684B4993F80490F7
:10106400072216F0EAF9D0B9B8F1010F07D1474ABF
:101074000221304603B0BDE8F04F03F00FBF444FE8
:1010840004460A2257F8041B686816F0D6F90028AB
:1010940073D00134052CF4D16B683E4A13E0082266
:1010A4003D49286816F0C9F958B9B8F1010F04464A
:1010B4002AD00127394A3A4B9B1A4FEAD30A93465E
:1010C40045E02B68374A0221304603B0BDE8F04FB3
:1010D40003F0E4BE18F83530A3420FD200212846AD
:1010E400FFF752FF524603460221304603F0D6FE74
:1010F4000135BD42EED103B0BDE8F08F224629464A
:101104004846FFF779FFF3E7244B254FDFF89CA00F
:10111400FF1AFF08002503F10608EAE71846002134
:101124000193FFF731FF0099202216F086F9019B05
:10113400014608B1013310E00BEBC3029279A242DD
:1011440015D3224619464846FFF756FF013747454F
:10115400D1D255F82730009300239A45DED155F8B3
:101164002730114A0221304603F098FEEEE7184674
:10117400FFF70AFF0D4A0346F4E7B8F1020FE4B2A1
:10118400C2D0022796E700BF068F01000D8F010031
:101194004C900100788F0100248F01000C8701001E
:1011A400648801002C8F0100648F0100418F0100CD
:1011B40013460A46C168FFF747BF000013B504464B
:1011C4000191A3B162B9019A0F4B04EB44040720C7
:1011D40053F82230A0401840E040C0B202B010BD25
:1011E40001A8FFF753FE0028EDD00020F6E72AB946
:1011F400019A064B03EBC2039879EFE701A8FFF7C6
:1012040045FE0028F1D1F3E72C0100200C870100F2
:10121400284B294A2DE9F04F9B1A4FEAD309CB6892
:101224005B7985B005460E461BB9244A022103F0BA
:1012340035FE234B234A244F0821284603F02EFE73
:10124400224A0821284603F029FE00244C4502D1F5
:1012540005B0BDE8F08FF36893F8048001231A46C3
:1012640021464046FFF7AAFF012221468346002378
:101274004046FFF7A3FF0428034628BF04235FFA70
:1012840083FA804601212046FFF77EFE57F82A3074
:1012940001930F4A0F4B57F82B100091D04598BF7C
:1012A400134602930C4A03460821284603F0F6FD30
:1012B4000134CBE7648801000C870100978F01009B
:1012C400AA8F0100B68F01004C900100D48F010059
:1012D40026A80100958F01001190010013460A46CB
:1012E400C168FFF795BF00001B4B93F8203437B556
:1012F40004460BB918B90024204603B030BD16F0DB
:1013040004FA0130009001236A4601A9134806F04B
:10131400E7FC05460028EED1009A0198214616F014
:101324004FF9DDE9002313440C4803F8015C0099EC
:1013340006F01AFD20B10A4940F20A2002F09AFE92
:101344000099064806F004FE20B1054940F20E203B
:1013540002F090FE019CCFE764060020309001006B
:10136400BD8D0100034BD3E90030C31A58425841E4
:10137400704700BF640600202DE9F04F85B0FFF7E9
:10138400F1FF0646002840F01C818F4DC5F8180473
:10139400BFF34F8F6868AC6800902040033005EBC2
:1013A40080006946FFF758FC009B18B1D5F8182453
:1013B400002A6CD0591C214005EB810104EA030288
:1013C400C9680291D91C023305EB8202234005EB64
:1013D4008303D268DB68039302F00303022B0192B8
:1013E400009169D1BDF8063078489DF804604FEA51
:1013F400931ABAF1A00FD14628BF4FF0A00969F3A0
:101404008F1309F10C01ADF8063006F06FFAC6F33C
:10141400C2068046002800F0BB8006F096FA01A9B7
:1014240000230C22404606F0A3FA009924EA01079F
:101434000137BF00B94538D95FFA89F997B3FFB2CC
:10144400A9EB0709214003315FFA89FBB946604FD4
:1014540005EB81010C234A46404606F089FA37B170
:1014640009F10C035A463946404606F081FA009BBE
:101474000AF1030A03EB9A030093D5F81834002BFE
:1014840050D1D5F81044DFF85C9107276FE02A6843
:101494009A4204D86A60304605B0BDE8F08F04EA89
:1014A40003007BE74A49BB46D4E7214003310C23C0
:1014B4004A4605EB8101D7E7012B69D1BDF80460E9
:1014C4004248C6F38311062928BF062161F3891611
:1014D40003318900ADF8046006F008FAC6F3C206C9
:1014E4008046002854D006F030FA00230C2201A9CB
:1014F400404606F03DFA0027BDF80420C2F38312EB
:10150400BB00974203F10C03B7D200994A1C214057
:101514000331009205EB81010422404606F028FACB
:101524000137E9E7404606F014FAFFF71BFF80F0A5
:101534000100C6B2AFE7E3685A79B2B11B79BDF8CE
:10154400081003EB430259F8211007FA02F3052EA1
:1015540003EA010323FA02F308BF0326B34204D3C8
:10156400236841461B6820469847E3681C68002CA2
:10157400E1D1404606F0EDF9204600F0DBFFD5F856
:1015840018340BB9009B6B60002000F0E3FFCCE73C
:10159400D5F8104474B90F4B5B88012BC5D90E4B99
:1015A4000E480F49C01AC008000440F0020000F0C1
:1015B4008FF8BAE7236820469B689847E3681C685D
:1015C400E8E7002667E700BF64060020B48801004E
:1015D40070060020E40000200C870100D48701007D
:1015E4005B9201002C0100202DE9F74F334C81461A
:1015F4008846164601A9012218461F46D4F808A0B9
:10160400FFF748FB002845D0019D0023E81CBB429E
:1016140003EB000248D10021294802F0C0FD80F309
:10162400100B284B284A4FEA19469B1AB6EBD30FE6
:1016340004D3264940F2A31002F01CFD6B1C03EAFC
:101644000A0304EB830346EA0B46DE60D4F80C3449
:10165400AE1C984706EA0A0604EB860605EA0A0366
:101664000333F06014F8232069F3C50204F823203F
:1016740034F8232067F3891224F8232054F8232014
:1016840068F39F2244F8232002F0F80242F001029A
:1016940004F8232094F820341BB1FFF76DFE0028D2
:1016A400FBD103B0BDE8F08F0AEA020204EB820228
:1016B40056F82310D1600133A9E700BF6406002067
:1016C400800A0020648801000C870100BD8D0100A0
:1016D40000231A46FFF788BF07B50123019201AA28
:1016E400FFF782FF03B05DF804FB07B5CDE90023E3
:1016F40002236A46FFF778FF03B05DF804FB1FB5C9
:10170400CDE90123069B039301AA0323FFF76CFF92
:1017140005B05DF804FB1FB5CDE90023069B0293D9
:10172400079B03936A460423FFF75EFF05B05DF849
:1017340004FB7FB5CDE90123089B0393099B049324
:101744000A9B059301AA0523FFF74EFF07B05DF836
:1017540004FB00002DE9F3478046314CD01C8A4637
:10176400174601A900228008A568FFF793FA00280C
:1017740042D0DDF80490A66809F103000190013617
:101784002840361AB6000330B74204EB80003DD837
:101794003A46514615F014FF09F10206D4F80C3408
:1017A40098472E4004EB86060021F0601D4802F0A5
:1017B400F6FC80F3100009F101032B4004EB8303D2
:1017C4004FEA184242EA0042DA6005EA09030333A9
:1017D40004EB830214F8231068F3C50104F8231002
:1017E400518867F38F11518034F8232002F03802B6
:1017F40042F0020224F8232094F820341BB1FFF7AE
:10180400BBFD0028FBD102B0BDE8F087324651464B
:1018140015F0D6FEBA1B0AEB060104F10C00B9E779
:1018240064060020800A00201C4A2DE9F843D2F8FF
:101834001034074688460024194689B9F9680C71A2
:10184400A3B9C2F810740B60154B164DED1AED08D0
:10185400002603F10709AE420DD12046BDE8F88306
:10186400C9680879A04212D00968E6E7DB681A68FB
:101874000A601F60E8E719F83620FB6842453146E4
:1018840028BF42461879FFF7B7FB0136E3E7013476
:101894000A2CD1D14FF0FF34DFE700BF64060020EB
:1018A4000C87010064880100094A38B50123D2F885
:1018B400104482F820341D4604B938BDE3685D71D4
:1018C400236820465B689847E3681C68F4E700BF18
:1018D4006406002010B588B00023CDE902330493D8
:1018E400CDE900331E4B1F4A05931F4B06929B1AEA
:1018F4009B08079302AA6B4643F2274141F26E000C
:1019040001F04AFEB0B905A902A801F0C9FD174BC0
:101914005B88022B04460AD91548164B1649C01A8F
:10192400C0080004224640F00300FFF7D5FE20461D
:1019340008B010BD0A2810D105A902A801F0ACFD19
:101944000A4B5B88022B0446F1D90948094B0B4921
:10195400C01AC00800042246E5E70324E7E700BFF5
:101964006E1027342C010020D8010020E400002050
:10197400D48701000C870100F99101002A9201002B
:1019840010B58368D3F854339B07044605D5002269
:101994001146BDE8104004F035BDFFF79BFF30B998
:1019A400044A08212046BDE8104003F077BA024AF1
:1019B4000221F7E7C98E0100E18E010000B589B06C
:1019C4000023CDE905330793CDE9013305AA01AB23
:1019D40043F2274141F26E0001F0DEFD90B9CDE9FA
:1019E400030003A905A801F011FD40B90F48104AEE
:1019F4000499121A15F0E4FD05A801F02BFD09B0B5
:101A04005DF804FB0A280FD10A4B5B88012B09D926
:101A140009480A4B0A49C01AC008000440F00200F1
:101A2400FFF756FE0520EAE70320E8E72C01002033
:101A3400D8010020E4000020D48701000C870100B5
:101A4400D491010010B58368D3F854339B0704463E
:101A540005D500221146BDE8104004F0D3BCFFF7C1
:101A6400ADFF30B9044A08212046BDE8104003F018
:101A740015BA024A0221F7E78D8E0100A58E0100F6
:101A8400037A052B10B50C460FD0437A23B1084ACC
:101A94000849204605F0C6FA0749204605F0C2FA6F
:101AA4002046BDE8104005F0ABBA002AF8D0F3E7B1
:101AB400D794010010A8010084A30100F0B5C388E5
:101AC40085B004460D4633B1284A00922849294A74
:101AD400284605F0A7FA217A052945D0637A4BB147
:101AE400A088FFF773FA244B244953F82020284692
:101AF40005F098FA224A23681168B3FBF1F1214BEF
:101B04001F68B1FBF7F34FF461664FF47A70B3FBCF
:101B1400F6F206FB123607FB13134FF03C0C00FBE6
:101B240003F1B6FBFCF3B1FBF7FE0CFB136607FBFA
:101B34001E11009641432846B1FBF7F1CDE901E1BE
:101B4400114905F06FFA227A104BA08853F82260ED
:101B54000021FFF719FA0E4903463246284605B01C
:101B6400BDE8F04005F05EBA05B0F0BDD7940100C1
:101B7400E4940100DC940100A494010010A8010085
:101B8400240B0020200B0020FC940100249501006C
:101B9400189501002DE9F04385B01F460C9D0023E4
:101BA40006460C46904695F80C902B732946384609
:101BB400FFF784FFB8F1060F09D8DFE808F0041234
:101BC400181F283340003146284605F02BFA00221E
:101BD40029463846FFF754FF85F80C9005B0BDE858
:101BE400F08322683146284605F01CFAEFE7D4E971
:101BF40000233146284605F015FAE8E7A368009368
:101C04003146D4E90023284605F00CFADFE7E368FF
:101C14000193A36800933146D4E90023284605F0D4
:101C240001FAD4E723690293E3680193A36800935C
:101C34003146D4E90023284605F0F4F9C7E763697F
:101C4400039323690293E3680193A36800933146E5
:101C5400D4E90023284605F0E5F9B8E708292DE979
:101C6400F84F80460E4617461C463AD8002593F88E
:101C74000C901D7319461046FFF720FFDFF884A06F
:101C8400DFF884B0AE422ED918F805205946204614
:101C940005F0C8F90135082DF4D11849DFF86CB006
:101CA400204605F0BFF94FF0000A564520D918F830
:101CB4000A507E2D03D8284615F064F800B92E2565
:101CC4002A465946204605F0ADF90AF1010ABAF14F
:101CD400080FEAD1012221463846FFF7D1FE84F8E5
:101CE4000C90BDE8F88F5146204605F09BF9D1E7EA
:101CF4000349204605F096F9E7E700BFD2940100B6
:101D0400D0940100CE940100C8940100D494010041
:101D1400084A10B50123084C13600021A04204D8DE
:101D240001B11360054B186010BD40085B00012130
:101D3400F4E700BF240B002040420F00200B0020DA
:101D440002494FF4F37002F095B900BFC895010041
:101D5400032810B5044603D909493A2002F08AF948
:101D6400084B1C5D1F2C01D9FFF7EAFF4FF0A0437D
:101D7400D3F80405E040C04300F0010010BD00BFEB
:101D840070950100C4950100032810B5044603D9D9
:101D94000849412002F06EF9074B1C5D1F2C01D944
:101DA400FFF7CEFF01234FF0A042A340C2F80C3549
:101DB40010BD00BF70950100C4950100032810B543
:101DC400044603D90849472002F054F9074B1C5D27
:101DD4001F2C01D9FFF7B4FF01234FF0A042A34009
:101DE400C2F8083510BD00BF70950100C49501000C
:101DF40008B50020FFF7E2FF0120FFF7DFFF022014
:101E0400FFF7DCFF0320BDE80840FFF7D7BF08B5A4
:101E14000020FFF7B9FF0120FFF7B6FF0220FFF70C
:101E2400B3FF0320BDE80840FFF7AEBF032810B599
:101E3400044603D90B495F2002F01CF90A4B1C5DD0
:101E44001F2C01D9FFF77CFF4FF0A0410122D1F8EC
:101E54000435A24022EA03001340C1F80805C1F882
:101E64000C3510BD70950100C49501000D2809D0F2
:101E74000E2809D00F2809D010280CBF03204FF0DA
:101E8400FF307047002070470120704702207047E0
:101E9400C20710B504460CD54FF0A0430322C3F883
:101EA4004427C3F84827C3F84C27C3F85027FFF743
:101EB4009FFFA3070AD54FF0A0430C22C3F8342791
:101EC400C3F83827C3F83C27C3F8402710BD0000E7
:101ED4000C4A136813F0010311D111685360C1F364
:101EE400072118468B4205D105235360BFF34F8F5A
:101EF40000207047936010610133D060F2E7062040
:101F0400704700BF90ED00E02DE9F0471B4F1F2AFA
:101F140005468846924699463E682BD9531E03EAE5
:101F240002041FFA89F214430B401C4322D12046B9
:101F3400C6F3072600F0FEFAB44210D0BC603B6939
:101F4400DB0701D50134F7E7BAFA8AF2C2F11E02BF
:101F540049EA420242F00102C7F80C803A610020CB
:101F640000F0F8FAB44207D2BFF34F8F00202C7070
:101F7400BDE8F0870720FBE70420F9E790ED00E0D7
:101F84002DE9F041234F244E07F17F0424F07F0410
:101F940004F180039E4286B0B84603D81F4943200B
:101FA40002F068F81E4B802221460DF11700FFF75E
:101FB400ABFF1C4B05465B88D0B9022B14D91A4BD6
:101FC4001A481B49C01A1B4BC008DF1B000404F14C
:101FD4007F03A6EB0806009302970196234680220E
:101FE40040F00300FFF7A5FB284606B0BDE8F081EA
:101FF400002BF9D005F0DCFF0C4C0B4B0E49E41A16
:10200400E408240403462A4644F00100FFF76DFB6C
:10201400EAE700BF00E0002000000120059601006F
:1020240000002917280100200C8701005C880100AA
:102034007196010080FF0020D19601001F4B1B7890
:10204400F0B57BB388B381B30B685A1E1F2A2FD80F
:102054001B4C1C4DDFF870C0002254F8047B55F86B
:10206400046BBB4203D85CF82270B74205D1012E41
:1020740003D80132072AF0D10022134B134C53F832
:10208400223054F82250B3B9114C2268D60712D525
:1020940022F0010222600F4A2A44026020220A60D0
:1020A4001846F0BD48F20813FAE748F20E13F7E7B2
:1020B40048F20713F4E748F20413F1E74C0B00204D
:1020C400449701000C9701006097010028970100D4
:1020D400280B00202C0B002013B50024CDE9004070
:1020E40001A96846FFF7AAFF00B10094009802B066
:1020F40010BD0000074B1B7853B130B97047064A36
:10210400136843F0010313607047044B9842F6D000
:10211400704700BF4C0B0020280B00202C0B002024
:102124002DE9F04F394E87B04FF00009384B1B783A
:102134005FFA89F5AB4202D807B0BDE8F08F354BA2
:10214400D3F800A01AF835000124D6E9001EA0F146
:102154002002C0F1200304FA02F224FA03F3134329
:1021640004FA00FC009301EA0C030293009B0EEABC
:1021740003030393DDE9022313430AEBC50B41D0A8
:10218400009B21EA0C012EEA0303C6E9001306F0C2
:10219400A3FF1AF835502049A5F12002C5F1200308
:1021A40004FA02F224FA03F31343D1E900C2AC4067
:1021B400134004EA0C0105930024C3B2CDE90034B2
:1021C400009A0491C5F12003A5F1200122FA03F33A
:1021D40002FA01F848EA03081346AB401F46DDE95A
:1021E4000434444508BFBB420CD1DBF804304BB186
:1021F4009BF801104A1E51425141081A4142414183
:102204002846984709F1010990E700BF800B002098
:102214004D0B0020880B0020780B00202DE9F041A5
:102224008046204801F00CFDD0BB0125A8F1200414
:10223400C8F1200325FA03F305FA04F41C431A4BEE
:10224400D3E9001205FA08F501EA050602EA0407D3
:1022540056EA07001E461DD1404606F03DFF134BCB
:10226400D3E9001288B129432243C3E90012D6E915
:1022740000231C430E4B0B4819681543C6E9005450
:102284000022BDE8F04101F099BC21EA050122EAEF
:102294000402EAE721EA050522EA0404C3E900543A
:1022A400BDE8F081540B0020800B0020780B002047
:1022B400500B0020042A2DE9F34105460C4616462E
:1022C4003AD906F019FED8B11C4B1D491D601D4BAF
:1022D400DFF884801C701C4B00221E600023C1E9BF
:1022E40000231A49C1E90023013CE4B20026032774
:1022F400FF2C0CD1164A1748002101F04DFC03E0D5
:1023040006F0C2FD0028DFD002B0BDE8F08123B2A0
:1023140005EBC30201A992788DF8052015F8330066
:102324008DF8066042468DF8047006F0EFFD013C1E
:10233400E4B20028DCD0E7E70720E5E7880B0020BB
:10234400780B00204D0B0020500B0020800B002048
:1023540025210000E89701002122000070B50B4DF3
:102364002A681AB90A49BA2001F084FE094E0024E9
:102374003378A34201D8002070BD2B68012113F8E3
:10238400340006F04DFE0134F2E700BF880B002054
:10239400859701004D0B002082B001238DF8073092
:1023A4009DF80730114B1860596044F201018842CE
:1023B4009A6012D044F20201884206D1DA60DA68E7
:1023C40012889A61DA685268DA6172B69DF8073049
:1023D400002BFBD162B602B070471A611A69926889
:1023E4005A611A6912689A611A69ECE78C0B002029
:1023F40000B583B002900091019244F2010071464D
:102404006A4600F003F803B000BD00002DE9F04374
:10241400064685B00F46154672B6FFF745FAFEF735
:10242400ABFF0028FBD1DFF8C88044F201029642DA
:10243400B8F802301DD044F2020296423BD15BB19F
:10244400244B25486A682549C01AC00800042B8813
:1024540040F00100FFF749F9214B1B68DB0700D569
:1024640000BE2A463946304605B0BDE8F043FFF7C2
:1024740093BF002BF0D0174BD5F80890164C484664
:10248400E41AE40805F094FD2B68029701932404F0
:102494006B68009344F0010403464A461149204600
:1024A400FFF747F9B8F80230002BD5D00E49204683
:1024B400FFF70EF9D0E7002BCED0064B06480B49A8
:1024C400C01AC00800043A4640F00100FFF704F9BE
:1024D400C2E700BF0C870100D4870100EC9701001C
:1024E400F0ED00E0069801002C98010040980100EE
:1024F400E400002072B6024A136801331360704787
:10250400AC0B0020034A1368013B136003B962B6A5
:10251400704700BFAC0B0020EFF30583C3F308033F
:102524002BB9EFF31480C04300F001007047012081
:102534007047000008B5FFF7EFFF012803D00449F6
:10254400432001F097FDBDE80840FFF7D3BF00BF6B
:102554005898010008B5FFF7DFFF012803D00449AC
:10256400512001F087FDBDE80840FFF7CBBF00BF55
:10257400589801008368D3F854339B0703D500228D
:10258400114603F03FBFBFF34F8F0549054BCA689F
:1025940002F4E0621343CB60BFF34F8F00BFFDE74B
:1025A40000ED00E00400FA0570B58368D3F85443E5
:1025B400C4F3400415462CB100221146BDE8704016
:1025C40003F020BF0139274B01295B8819D051B191
:1025D40002292AD0012B43D92348244B2449C01A69
:1025E400C008000407E0012B3AD91F481F4B2149BA
:1025F400C01AC008000440F00200BDE87040FFF7B4
:1026040067B8012B2CD921460A22686814F082FF8E
:10261400164A154B18499B1ADB081B040246BDE8F1
:10262400704043F00200FFF757B8012B18D9214638
:102634000A22686814F06EFF214606460A22A8683A
:10264400094C14F067FF094B0C49E41AE40824040C
:102654000346324644F00200BDE87040FFF745B837
:1026640070BD00BFE4000020D48701000C87010086
:10267400139A0100C9990100DE990100F79901003C
:1026840070B58368D3F85443C4F3400415462CB1A1
:1026940000221146BDE8704003F0B4BE0139264B58
:1026A40001295B8819D051B1022929D0002B41D0CE
:1026B4002248234B2349C01AC008000407E0002B1A
:1026C40038D01E481E4B2049C01AC008000440F0F0
:1026D4000100BDE87040FEF7FBBF5BB321460A2250
:1026E400686814F017FF164A144B18499B1ADB0844
:1026F4001B040246BDE8704043F00100FEF7ECBF46
:10270400C3B121460A22686814F004FF2146064634
:102714000A22A868094C14F0FDFE094B0C49E41A7E
:10272400E40824040346324644F00100BDE8704046
:10273400FEF7DBBF70BD00BFE4000020D4870100BA
:102744000C8701009B990100579901006A990100C7
:10275400819901001FB58368D3F854339B0706D5CC
:102764000022114605B05DF804EB03F04BBE064BA6
:10277400064A0093D21ACDE901220821044A02F044
:102784008DFB05B05DF804FB0000000078460200F4
:10279400BF9801008368D3F854339B0703D5002204
:1027A400114603F02FBE024A45210320FFF720BE45
:1027B400F49801002AB113880144884204D11846D0
:1027C40070474FF6FF73F7E75BBA10F8012B9BB223
:1027D4005A40C2F30313534083EA03331BB25A0132
:1027E40002F4FF5253409BB2E7E7000070B5064D78
:1027F4000646002455F8043B0BB130469847013493
:10280400042CF7D170BD00BFBC0B0020033080B294
:1028140040F2FD33984230B51FD8124B1A783AB9BA
:102824001C895D892C440444A4B2B4F5806F0AD396
:102834001A7DA2B99A8BDC8B2244024492B2B2F57F
:10284400806F0CD201220A801446142202FB043346
:102854005A8910445881002030BD0920FCE7072024
:10286400FAE700BFF00B00200B4A0C4B51881420F0
:1028740000FB0131CB6833B9042049681070012290
:10288400074804F0BFBE05230649137002238B805A
:10289400012200230968F3E7D40B0020F00B002089
:1028A4006C000020A80C002007B500230549009304
:1028B400054A09680548082304F0E4FD03B05DF8FF
:1028C40004FB00BFA80C0020889B01006C000020C2
:1028D40007B50023009301460823034A034804F084
:1028E400D1FD03B05DF804FB809B01006C00002067
:1028F40013B500230C46009301460423074A0848F5
:1029040004F0C0FD38B9074B142202FB0434012340
:10291400237402B010BD0E20FBE700BF7C9B0100B6
:102924006C000020F00B002037B50A480A4B4268BF
:102934009C88196853880325033305709BB20020D3
:1029440000909B0001EB8401044804F09BFD03B05C
:1029540030BD00BFD40B0020A80C00206C00002068
:1029640010B50146044801F0A5FB1C2204460021D1
:1029740014F04FFE204610BD0C02002068B102681E
:10298400084B9A4209D14068074B984207D001335B
:1029940098420CBF01200320704703207047002099
:1029A400704700BFDEC0ADDEFE011EF14388033375
:1029B40000EB8303994209D382884FF6FF739A424E
:1029C40006D00088B0FA80F04009704702207047B2
:1029D400012070472DE9F8430223DFF860800B8063
:1029E4000D46174600F5805600F108044FF0010922
:1029F400B4420FD2236801330CD031462046FFF78E
:102A0400D5FF48B10FB187F8009002280BD14FF4DD
:102A140080632B80BDE8F883A368D8F80020934234
:102A240001D9C8F800302B886288033313442B8003
:102A34006388033304EB8304DAE700BFE80B002068
:102A4400154A142303FB002070B50B6844680D4637
:102A540004F58056ABB15C88033403EB8404B442C0
:102A64000DD2236801330AD031462046FFF79EFF7A
:102A740001280BD010F0FF0F05D00228EFD1002061
:102A840003E00834EBE72C60012070BD6388033356
:102A940004EB8304E3E700BFF00B0020436873B545
:102AA40004460D466BB3244AD1688B4229D312697C
:102AB400934226D813F0030223D1204900890989BF
:102AC40088421ED12068996888421AD11C494868F6
:102AD400834203D900F5805083420ED38A6993421E
:102AE4000DD902F58052934209D201232B80002094
:102AF400B0FA80F0400902B070BD1346F6E70A2030
:102B0400F6E700232B801E46019601A92888FFF7CB
:102B140097FF30B92B8801339BB2012B2B80F3D95B
:102B2400E9E7019B226899689142EED16360034B07
:102B34001B892381DFE700BF6C000020D40B002039
:102B4400F00B00202DE9F8431C461C4B1B7806466D
:102B54000F4615466BB372B36CB3DFF868804FF061
:102B64001409A388012B01D90A2020E009FB03F3EF
:102B740018F803302BB92146A088FFF761FF20B96C
:102B84002060A3880133A380EBE723681EB19988F2
:102B940032889142EFD11FB119883A889142EAD123
:102BA4009A68C5E90023064B1B892B810020BDE8E8
:102BB400F8830220FBE70520F9E700BFCC0B0020D7
:102BC400D40B0020F00B002008B5074B191D5888C2
:102BD400FFF736FF18B1BDE80840FFF7A5BEBDE812
:102BE4000840FFF741BE00BFD40B00202DE9F04F91
:102BF400A34FDFF8B49289B00646B8463B6853B990
:102C04004946A04801F090FA386020B99E4940F244
:102C1400825001F02FFAD8F8005029784B1E052B6A
:102C240000F2FA80DFE813F006005E005E00EE00BA
:102C3400EE005E0126B1954B00225A600124ECE0BF
:102C44002B79032B1DD8DFE803F015022A359049B0
:102C54000B78022B084619D00B7D022B4FF0010391
:102C640016D114225343C2180020C8545068FFF7E9
:102C74002FFE03E001232B71FFF716FE002800F05E
:102C8400BC80824B00225A600E24C6E00023E8E791
:102C94007E4A13700023536041F61D54BDE07D4904
:102CA4007D48002302222B718A800122096804F0E6
:102CB400A9FCE3E7774C00262E712068744DFFF7DA
:102CC40007FE764BD4F800C05A8814235343EA18FD
:102CD400EE5451682160A188C2F804C01181022217
:102CE400A280CBE7B5F814A0AA7DDFF8A4B1AEB1F9
:102CF400022AEB8806D9142101FB0AB1DA1C0889DF
:102D040002440A81142202FB0ABAC3F57F43BAF8CB
:102D14000A20FD331344AAF80A308FE7142303FB77
:102D24000AB318895C6804EB8004062A68D8DFE8D3
:102D340002F0274D35431D59040041F61D54AA7D68
:102D4400EB88022A06D9142101FB0AB1DA1C08898E
:102D540002440A81142202FB0ABAC3F57F43BAF87B
:102D64000A20FD331344AAF80A3056E04C484D4972
:102D740000234360AB690360FFF790FE002871D025
:102D84000223AB75002300930423EA18214642482A
:102D940004F078FB002830D00E24D0E72B69002BF8
:102DA40014BF03230123AB750023009305F10C0228
:102DB400042304F10801EAE70123AB750022EB8840
:102DC40000929B002A6904F10C01E0E703290CBF7F
:102DD40005230623AB7500230093042305F10802A1
:102DE400E118D4E70623AB752E4B19882C4B586891
:102DF400FFF77EFD04460028A1D109B0BDE8F08F9D
:102E04000F249CE7002E7FF419AF2B79012B4DD0B2
:102E1400E3B1022B3FF440AF0F241422002103A896
:102E240014F0F7FB41F61D539C4208BF0024D8F868
:102E3400003004941A78023A042A00F20781DFE889
:102E440012F0E800F400200128012F0102232B7165
:102E54000DF10A01EB68039303A8CDE90466FFF7BB
:102E64001DFE08B90A24D8E70498BDF80A1083881F
:102E7400EB8003882B81FFF73BFD044629E000BF6C
:102E8400EC0B00200C020020909B0100CC0B0020D6
:102E9400F00B0020A80C00206C000020D40B0020B4
:102EA400B00B0020B40C0020E40B0020DFF810A2CB
:102EB40003AA53463146A81DFFF744FE044658B9F9
:102EC400BAF804100498FFF713FD04460A2C3FF4E3
:102ED400E3AE002CA1D190E708223146504614F00D
:102EE40098FBF3E7002E7FF4A9AE6F4B1A7BAAB1CF
:102EF4001E731A78013A062A8ED801A151F822F0DD
:102F0400AB2F0000D12F0000EF2F0000F52F0000A1
:102F14001D2E0000FB2F00000D3000001A78072A38
:102F2400E7D801A151F822F04D2F0000F72E000040
:102F3400F72E0000732F0000872F0000A72F00003A
:102F4400A72F00006F2F00001A89584901321A81F7
:102F540000225A801A730A78B2FA82F252099A72DB
:102F64000A7DB2FA82F25209DA72012207E050496C
:102F740058688A884088033202448A8002221A7080
:102F8400B7E74A4C5A884A49142505FB02420868A7
:102F9400546850608888108102228A800C6006225E
:102FA400EDE70722EBE79A7A32B9DA7A8AB9002296
:102FB4001A705A805A606FE63C4900229A72CA68B5
:102FC400002AF2D1097C0029EFD05A80FFF7FCFDDA
:102FD40053E70022DA72354A116A0029E7D192F8E0
:102FE4002420002AE3D00122EFE7FFF79DFC44E709
:102FF400FFF73AFC41E72D4A5B88142101FB0323C8
:103004005868FFF765FC38E700225A60FFF74CFC6C
:1030140033E701228DF80C201A89ADF818209A881C
:10302400DB68ADF81A20059310E002228DF80C201D
:103034001A89ADF818209A88ADF81A20DA689B7DB1
:1030440005929A1F534253418DF81C3003A8FFF791
:10305400CDFB002349461748C8F8003001F08FF82B
:10306400154B1B6823B9154940F27A2001F002F888
:103074000121114801F0DFF800283FF4BEAE00261C
:10308400BCE503228DF80C20DA88ADF818201A89E3
:10309400C6E70422DB888DF80C20ADF81830D5E79C
:1030A40005238DF80C30D1E7D40B0020F00B002061
:1030B400A80C00200C020020A40C0020909B01000E
:1030C400B80C00204068FFF791BD000008B501214D
:1030D400044801F09AF818B9BDE80840FFF786BD26
:1030E40008BD00BFA40C00202DE9F3419846354BE0
:1030F4001B7806460D46002B5BD000295BD009885F
:103104004FF6FF73994258D06B88002B55D06B68EB
:103114009B0754D14AB92F890DF102013846FFF7B4
:1031240075FB30B102B0BDE8F08113885788ADF863
:10313400023001A8FFF714FC044658B9BDF8023068
:10314400214A142101FB032358890338C01B5881E9
:103154000820E7E700238375BDF8023083826B689B
:10316400036180F800800121184801F059F82B8888
:103174002381B8F1030F6B88A38004BF0423A375D4
:103184004FF0000508BF3368E06008BFA361E78023
:10319400658101A90E4800F0B7FF36B1E3683360DA
:1031A4000C4B75601B89B5723381FFF78FFF0020CC
:1031B400B8E70220B6E70520B4E70420B2E703200D
:1031C400B0E700BFCC0B0020F00B0020E80B002080
:1031D4000C020020D40B002008B5084B1A68042AFE
:1031E40009D01968064A42F821000121184601F065
:1031F40017F8002008BD0C20FCE700BFB00C00202D
:10320400BC0B00202DE9F04F14228BB000210DEBF4
:10321400020014F0FEF9744A137803F0FF01CDE9BB
:1032240001123BB105A8FFF7E1FA002738460BB0BD
:10323400BDE8F08F029B181D01F008F80028F4D1B6
:103244004FF010234FF080525B6911695269674C4B
:10325400581C08BF02FB01F323610022A3F540536D
:103264006349E360204604F0D1F80394074600283C
:10327400DCD11C238C225F495F48DFF88891DFF89A
:10328400888100F004FF3D46BA464FF0030B3C46EC
:10329400039BDE68564430463146FFF76FFB012836
:1032A4004DD042B2002A36D0032822D106F58052EE
:1032B4000868013040F08A8004318A42F8D1D9F894
:1032C40000203AB902220123C9F80060A9F80420B9
:1032D40001930CE014226243022008EB020108F877
:1032E4000200464A4E60548001340881A4B245F07D
:1032F40001050AF5805ABAF5405FC9D1BBF1010F47
:1033040098BF0025EDB2022D03D0062D35D0002D37
:103314003CD10B278AE71421614308EB010008F82C
:10332400012001F110020831466042444144304614
:10333400FFF750FB45F002050134A4B2D9E7019B25
:1033440063B11422624308EB0201022008F8020070
:103354000134D9F800204A600881A4B20022284927
:10336400C9F800603046FFF735FBB9F80420022A9B
:103374000CBF042208221543BBE7029A01231370F1
:1033840005A800235360FFF731FA4FE704A8FFF7BD
:10339400E7FAC8B10123013D03700A2D09D8DFE81B
:1033A40005F006080608070807080F110F00002398
:1033B400037104A9104800F0A7FEFFF787FE35E764
:1033C4000323F5E70223F3E708272FE70BF1FF3286
:1033D4001FFA82FB1422624308EB02014E600321B0
:1033E40008F80210A8E700BFCC0B00206C000020F6
:1033F40064AE0100180C00200C020020D40B002045
:10340400AC0C0020A80C0020F00B002073B50D4676
:103414000446C8B1C1B10DF10601FFF73FFBA8B1E5
:103424000B4BBDF806006668142202FB0030012134
:103434000C3000F0F5FE63682E600C336B600123E2
:10344400A372002002B070BD0520FBE70A20F9E753
:10345400F00B002013B50446A8B10DF10601FFF7E7
:103464001DFB90B10B4ABDF80630142101FB032368
:10347400DA6862B1A27A52B1DA680020013ADA60FD
:10348400A07202B010BD0520FBE70A20F9E7062070
:10349400F7E700BFF00B002002230022FFF724BE51
:1034A40018B103230022FFF71FBE05207047000058
:1034B4000F4B1B7837B505469BB1A0B101A8FFF7A8
:1034C4004FFA90B10423037000242B68C360047185
:1034D40001A9084800F018FEFFF7F8FD204603B0E4
:1034E40030BD0220FBE70520F9E70820F7E700BF1D
:1034F400CC0B00200C020020104B1B7813B50446A3
:10350400ABB14FF6FF73984213D001A8FFF728FA26
:1035140088B10523037001230371C48001A90848FD
:1035240000F0F2FDFFF7D2FD002002B010BD022032
:10353400FBE70420F9E70820F7E700BFCC0B0020E5
:103544000C0200200E4B1B7807B5A3B101A8FFF7AE
:1035540007FA90B10623037001A90A4800F0D4FDCC
:10356400094B1A780AB101221A73FFF7AFFD002044
:1035740003B05DF804FB0220FAE70820F8E700BF77
:10358400CC0B00200C020020D40B00200B460021A1
:1035940002460846FFF7D6BA07B5ADF80600ADF8FF
:1035A40004100DF1060001A9FFF7CCFA03B05DF891
:1035B40004FB000030B54C1CE40012F00303A4B279
:1035C4000ED1084D2A602244074C2260074A13702A
:1035D400074A1370074A1080074A1846118030BD05
:1035E4000720FCE7C80C0020C40C0020C00C0020FD
:1035F400D00C0020CC0C0020CE0C00202DE9F0478C
:10360400284D2B888B4206460C46174645D300208E
:10361400FEF790FF244B254A254819781378008833
:10362400DBB2834238BF0133C9B234BFDBB20023FB
:1036340099422CD092F800801378DBB2984286BF6E
:103644000133DBB2002313700020FEF783FF4FF633
:10365400FF73984523D0DFF860A0DAF800304FEA12
:10366400C80903EB090243F838709EB194B1114BB9
:1036740028881B68224608FB0030314613F0A0FF5F
:10368400DAF800304B4400209C80BDE8F0874FF608
:10369400FF78D9E700209080F7E70920F5E70420B8
:1036A400F3E700BFCC0C0020D00C0020C00C00209D
:1036B400CE0C0020C40C0020C80C0020F8B5124C1D
:1036C400124D264622782B789A4200D1F8BD2378F1
:1036D4000F48104A078812680F48DBB219B202EB90
:1036E400C10C006852F83120BCF8041003FB070039
:1036F40090470A4A23781288DBB29A4286BF013384
:10370400DBB200233370DDE7D00C0020C00C0020B6
:10371400CC0C0020C80C0020C40C0020CE0C0020CF
:10372400094A537891780133DBB2994208BF0023E8
:10373400117899421FBF03705078182303FB0020AF
:1037440014BF043000207047D40C002037B5044661
:1037540000200D46FEF7EEFE0DF10700FFF7E0FF37
:1037640090B10570094B9DF8072044605A700024FD
:103774000020FEF7EFFE24B9054B4FF40012C3F806
:103784000021204603B030BD0424F1E7D40C00200E
:1037940000E100E0024B4FF43C6043F001031847A2
:1037A400009C010038B50C4B0C4C4FF40032C3F8AC
:1037B400802001254FF48033C4F84833C4F808331B
:1037C4006560FFF7E7FF064BA56000241C60FFF768
:1037D400E1FF044B1C7038BD00E100E00010014023
:1037E400F00D0020E10D0020F8B51F4B1F491B68A8
:1037F4000025C1F84051C1F84451C1F84851C1F8FD
:103804004C51C1F80051C1F804514BB3D1F80445EF
:1038140017490968641A24F07F442F461A68A242A3
:1038240009D8A41A15441A7CDE691AB11F74D3E9A5
:1038340005209047AEB90F4A0F4B11781B788B4285
:1038440005D10133DBB2022B08BF002313701278B9
:103854000A4B43F822500A4B4FF40012C3F80021DC
:10386400F8BD3346DAE700BFF40D00200010014034
:10387400F00D0020ED0D0020EC0D0020E40D0020E3
:1038840000E100E02DE9F04FA04AA149137809783E
:10389400A04D994285B03CD00133DBB2022B08BF66
:1038A400002313709C4912789C4B0F6853F8220034
:1038B4003B1823F07F4300220B602B681646144606
:1038C400944613B942B12B6006E0196881420ED9BF
:1038D40002B12B60091A19604FF001082B68DFF858
:1038E40044A201930027BEB9DFF840B266E0401A53
:1038F4000C44D968C3F800C0D3F81CE031B13A19BC
:1039040022F07F42C3E90121DE611E460122734693
:10391400D7E70026B046E1E73446F6697E4A636895
:103924001268DFF80CC2A068991A21F07F41614542
:1039340000F2A58001442160012222742A68002338
:10394400C4E90133E361002A40F0A2802C60CAE795
:103954005A1C9BF80210D2B291428BF8002004BF8B
:1039640000228BF80020182202FB03B31A799C680A
:10397400022A1CD0032A12D0012A1FD1207CE8B9C4
:10398400D3E90312A2605A69E2609A69644BA261A6
:103994001B78002B0CBF0B4603466360BEE7002276
:1039A4002B681146002B66D142B12B6006E02968D2
:1039B4000A468946002A59D1002323749BF8003013
:1039C4009BF801209A42C3D12B682FB9019A9A42DD
:1039D40002D1B8F1000F43D0002B73D0D3F800A06C
:1039E400504D4D4BD5F804751C68DFF848813E1BDB
:1039F40098F8003026F07F4603369BB94FF48033A5
:103A0400C5F84433C5F80433474B4FF400324FF044
:103A14000109C3F880211A60C5F80090FFF7BAFEC7
:103A240088F80090B2452CBF5444A41924F07F4474
:103A3400C5F84045D5F80435DB1B23F07F43E41B70
:103A4400033324F07F44A3420AD9D5F80435C5F8DA
:103A54004035FFF79FFE344B4FF40032C3F800218A
:103A64002F4B00221A7005B0BDE8F08F94422CD081
:103A74009146D2699EE719740122DB6992E7D31A51
:103A840023F07F43834234BFC31A0023236053E7E8
:103A940021681368994213D8591A1160E26155E7F5
:103AA400091AD8691A4638B1034618688842F7D308
:103AB400401A1860184613462160E061DC6112E781
:103AC4001346F2E7FFF76EFECAE74C4511D1CB6906
:103AD4002B6073B9DFF840E00120CDE90212CAF887
:103AE4000800CEF800300E4B1870FFF753FEDDE9E6
:103AF40002121368D269C9F81C2012B11068034479
:103B040013602B68994218BF012755E7EC0D00207C
:103B1400ED0D0020F40D0020F00D0020E40D002038
:103B2400E00D00200010014000E100E0D40C002072
:103B3400FEFF7F00E10D002010B5FFF733FE0F4BB1
:103B440000200B2218809A700D4B18600D4B1870D2
:103B54000D4B18700D4B4FF40012C021C3F8802197
:103B640083F815131A600A4A0124C2F8084583F839
:103B74001113084BD2F804251A6010BDD40C002090
:103B8400F40D0020EC0D0020ED0D002000E100E01C
:103B940000100140F00D0020074B9B784BB132B16F
:103BA40028B10368187C20B959745A6170470720FA
:103BB40070470820704700BFD40C00202DE9F34162
:103BC4001C4EB37804460D4617468BB380B30429C4
:103BD4002CD9436963B3437C0020012B0CBF884676
:103BE4004FF00008FEF7A6FC0DF10700FFF798FD63
:103BF400D0B101230370104B4460D3F80435C0E9FD
:103C04000487C0E902359DF8073073700024002052
:103C1400FEF7A0FC24B9094B4FF40012C3F80021AD
:103C2400204602B0BDE8F0810424F0E70724F7E75A
:103C34000824F5E7D40C00200010014000E100E066
:103C4400064A92783AB130B1426922B10022027434
:103C54000221FFF77BBD0820704700BFD40C002071
:103C6400014BD3F804057047001001400B0710B551
:103C7400044607D513F054F820B12046BDE810409F
:103C840013F086B8204610BD2DE9F04F87B08A4660
:103C940015460293064618B9012007B0BDE8F08F17
:103CA4000029F9D0029B002B00F0118102F00403DB
:103CB4000C460493B046294618F8010BFFF7D6FFCB
:103CC400C7B23F2F22D00ADCCFB12A2F36D02946E3
:103CD40014F8010BFFF7CAFF87421FD0DCE75B2F04
:103CE4007CD05C2FF3D1EB07F1D429467078FFF731
:103CF400BDFFC7B2002FEAD006F10208E7E7E906E4
:103D0400207838D52F2836D10020C6E72378002B19
:103D1400C2D02F2B04D1AA07BED401344646C9E72A
:103D24002E2BFAD1049B002BF7D05445B4D0AB070B
:103D3400F3D514F8013C2F2BEFD1ADE77078294669
:103D4400FFF794FFC1B22A2919D023782E2B09D169
:103D5400049B3BB154459FD0AF0703D514F8013CF5
:103D64002F2B99D079B9AE07CED5ED06CCD42F211F
:103D7400204613F027FB003018BF01208DE72946A9
:103D840018F8010FDCE72F2901D1A8071FD4029BE3
:103D940025F004095F1E05F0020AA34629469BF894
:103DA4000000FFF763FFC6B20134002E3FF474AF86
:103DB4003B464A4659464046FFF766FF01287FF4D2
:103DC4006CAF2F2EE9D1BAF1000FE6D064E720469C
:103DD40013F0F8FA04460028A0D15DE72078002803
:103DE4003FF45AAF2F2802D1A9073FF555AF294612
:103DF400FFF73CFF8346B8F1000F3FF44DAF7378F3
:103E0400212B01D05E2B25D10236012301220193FF
:103E140005EA02034FF0000903933746294617F8D1
:103E2400010B0592FFF722FFC3B25D2B059A14D153
:103E340012BB019B4B453FF42FAF002F3FF42CAF37
:103E44007A1C04D123785B2B7FF426AF47460134D8
:103E5400B84663E746460023D8E72F2BF2D05C2B05
:103E640007D1039A42B929467078FFF7FFFEB71CC1
:103E7400C3B2002B3FF410AF3A782D2A21D1294642
:103E840078780593FFF7F2FEC0B2059BC8B15D28B0
:103E940017D05C2807F102060BD1039A4AB92946C8
:103EA400B878FFF7E3FEC0B200283FF4F5AE059BF7
:103EB400FE1C9B4503DB8345D8BF4FF0010900225C
:103EC400ABE73E469B4508BF4FF00109F7E70320E7
:103ED400E3E64023FFF7D8BE024B1860024B0020F4
:103EE4001960704720020020240200201EF0040FF5
:103EF4001CBFEFF309800AE0EFF308800549064A86
:103F0400884201D8904202D88D464FF00000034BFE
:103F1400184700000000012000E00020493F000095
:103F2400BFF34F8F0549064BCA6802F4E06213439E
:103F3400CB60BFF34F8F00BFFDE700BF00ED00E093
:103F44000400FA052DE9F74F0646FDF7ADFCFDF731
:103F540013FA0028FBD1394C394A3A4B3A4D9F6A3F
:103F64006B88A41AE408240444F00104002E5ED0F3
:103F7400D3B1B26935492046FDF7AEFB6B889BB1DE
:103F8400F3680193B36800933149D6E900232046CE
:103F9400FDF7C1FB6B883BB1F36900932D49D6E96A
:103FA40004232046FDF7ABFB264BDB6A980705D5B7
:103FB4006B881BB128492046FDF78AFBDFF8ACA0CB
:103FC400DFF8ACB04FF000084FF0010909FA08F32C
:103FD4003B4208D05AF828202AB16B881BB15946B5
:103FE4002046FDF779FB08F10108B8F11A0FEDD16D
:103FF400390607D56B882BB1124B18495A6B2046EA
:10400400FDF76AFB3A0407D56B882BB10D4B1449B5
:104014009A6B2046FDF760FB124B1B68DB0700D54B
:1040240000BE3046FFF77CFF03B0BDE8F08F002BE5
:10403400BAD00D492046FDF74BFBB5E70C880100CB
:104044000C87010000ED00E000010020069C010047
:104054001B9C0100509C0100AB9C0100FA9C0100D8
:104064001A9D0100F0ED00E0789C0100349D0100F0
:10407400EF9C010007B5ADF8000001916A460021EC
:1040840044F20200FEF7C2F903B05DF804FB10B578
:1040940061B1B2FBF3F403FB1424A4B244B9C0E944
:1040A400001484608281C381204610BD0E20FCE789
:1040B4000920FAE737B550E8013F9DB2C489254489
:1040C4008489A54228BF2D1B0489A54202BFBFF3E2
:1040D4002F8F002207E0C5EA030540E80154002CB5
:1040E400E9D14FF001028DF803200193019B9DF863
:1040F40003200B6002F0FF0322B10B880068184410
:1041040003B030BD1846FBE70A884B889A4209D1B0
:1041140050E8012FC2EA024240E80123002BF7D104
:10412400012070470020704737B550E8023F1FFA5E
:10413400A3F5C488A54202BFBFF32F8F00220DE070
:10414400C48925448489A54228BF2D1BC3EA05459B
:1041540040E80254002CE8D14FF001028DF803200E
:104164000193019B9DF803200B6002F0FF0322B131
:104174004B880068184403B030BD1846FBE70A8832
:104184004B889A4209D150E8022FC2EA224240E801
:104194000223002BF7D1012070470020704750E81C
:1041A400002F0B4640E8003C9CF0000FF7D110466E
:1041B400704750E8002F42EA010340E8003C9CF0BD
:1041C400000FF6D11046704750E8003F43EA010261
:1041D40040E8002C9CF0000FF6D11046704750E8E0
:1041E400002F02EA010340E8003C9CF0000FF6D1E6
:1041F4001046704750E8003F03EA010240E8002CF3
:104204009CF0000FF6D11046704750E8002F02EBE7
:10421400010340E8003C9CF0000FF6D110467047C3
:1042240050E8003F03EB010240E8002C9CF0000F33
:10423400F6D11046704750E8003FA3EB010240E876
:10424400002C9CF0000FF6D1104670470121FFF7B7
:10425400B0BF0121FFF7B8BF0021FFF7C0BF0021A5
:10426400FFF7C8BF2DE9F0478368D3F85443C4F37C
:10427400400488B0074634B10022114608B0BDE8B6
:10428400F04702F0BFB8012906D91E4A022108B03E
:10429400BDE8F04700F002BE1B4D1C4EDFF870A0D5
:1042A4004FF06408A146761B1C23B6FBF3F6A64226
:1042B40005F11C0502D108B0BDE8F08755F81C0CC7
:1042C40055E90623017900689A1A1B1ADBB2039395
:1042D40008FB03F3B3FBF2F3CDE9019335F8043C97
:1042E4000093CDE9061255F8083C11FB08F1384655
:1042F400B1FBF2F1CDE904215246082100F0CEFDD4
:104304000134D4E7E6A20100B48801000889010061
:10431400F9A2010010B50446002834D003681BB983
:104324001A49FF20FFF7A6FE636823B917494FF423
:104334008070FFF79FFEA36823B9144940F201106F
:10434400FFF798FEE36823B910494FF48170FFF733
:1043540091FE238B23B90D4940F20310FFF78AFE27
:10436400D4E9012321689B1ADBB20A60013BDBB26A
:10437400FF2B226802D10020107110BD1168481C67
:1043840010600B70F2E70E20F7E700BF84A2010073
:1043940038B5044620B911494FF49270FFF76AFE0C
:1043A4000020FEF7C7F8226863681168994213D9A0
:1043B400481E106011F8015CE368218B01FB053590
:1043C400A36811791B1ADBB2994200D21371002041
:1043D400FEF7C0F8284638BD0025F8E784A201009E
:1043E40038B50C46054620B90E4940F24710FFF790
:1043F40041FE24B90B494FF4A470FFF73BFE0020A3
:10440400FEF798F82A681368591C1160EA68A41A20
:104414002A8BB4FBF2F41C700020BDE83840FEF790
:1044240099B800BF84A20100436810B59C68606815
:10443400036801219B689847A36810B903221A7086
:1044440010BD0422FBE7000038B505460C4621B92F
:10445400064940F62F20FFF70DFE35B1A268B2F8E9
:10446400543343F02003A2F8543338BD0EA40100A2
:1044740038B50D46044620B9084940F62320FFF715
:10448400F9FD25B9054940F62420FFF7F3FD296815
:104494002068BDE8384013F011B900BF0EA4010034
:1044A4002DE9F843089C1E460F46E1B9184D194CF6
:1044B400641BE408944204D9174800EB8208BC4208
:1044C40001D100230AE06B68D8F80000196813F0E2
:1044D400F5F8A946083520B9D9F804303360BDE8A9
:1044E400F8830137EBE70028EBD00178436839B152
:1044F4002146104698472368002BE2D03460EEE74B
:10450400120199189B58002BDBD03160E7E700BFFC
:10451400EC8501009C8601000000002010B50446D3
:1045240020B909494FF4EA70FFF7A4FD236923B9C0
:1045340005494FF4EA70FFF79DFD2069034A0449D9
:10454400BDE8104002F06EBD0EA401006AA4010093
:1045540010A8010010B5044620B909494FF4ED70C4
:10456400FFF788FD236923B905494FF4ED70FFF780
:1045740081FD2069034A0449BDE8104002F052BDA0
:104584000EA401006EA4010010A8010010B5044699
:1045940020B909494FF4F070FFF76CFD236923B982
:1045A40005494FF4F070FFF765FD2069034A04499B
:1045B400BDE8104002F036BD0EA4010071A4010054
:1045C40010A8010008B113F0A0B8704710B5044654
:1045D400FFF7F8FF23462044834201D1002010BD99
:1045E40013F8012B3F2A01D02A2AF5D10120F6E73E
:1045F40038B58368054600681C8DFFF7E3FFAB6898
:10460400DA8B2044B0FBF2F302FB1300B0FA80F023
:10461400400938BD10B584680068FFF7D3FF238DC7
:10462400E28B84F82000C0B20344B3FBF2F102FB36
:1046340011330133A382E38C013118442183B0FB8D
:10464400F2F3591C02FB130301336183E38204F187
:10465400140010BD38B5836805460068DC8CFFF78C
:10466400B1FFAB68DA8B2044B0FBF2F302FB13001A
:10467400B0FA80F0400938BD30B50368D3F84C5324
:1046840085B00446EDB100230A2201A9284603F0AF
:1046940083F92368029AC3F84C2300210A2201A853
:1046A40012F0B7FF00230A2201A9284603F060F99B
:1046B400284603F005F92368D3F84C0318B9C3F866
:1046C400480305B030BD01A900230A2203F064F9B0
:1046D400206800230A2201A9D0F84C03019303F0B7
:1046E40047F9EEE707B58368C9B193F822208A42F7
:1046F40012D00D4A009233228DF8042001F12F02CA
:104704008DF805206D22ADF8062083F822106A4644
:104714000649006902F086FC03B05DF804FB83F8E7
:104724002210034AF4E700BF1B5B313B10A80100D1
:1047340074A40100836807B593F823208A4214D037
:1047440045F61B32ADF8002034228DF8022001F129
:104754002F028DF803206D22ADF8042083F8231076
:104764006A460349006902F05DFC03B05DF804FB8E
:1047740010A80100014902F055BC00BF25A80100A2
:104784000A460068014902F04DBC00BFADA4010017
:1047940009B1FFF7F5BF70472DE9F047002506463C
:1047A4000F4614460560207840B112F0E6FAA0B135
:1047B400002304F8013B33680B2BF4D933680C2B2A
:1047C40004D9584940F22A50FFF754FC33680022B8
:1047D40047F823202846BDE8F08733685A1C326026
:1047E40047F82340054694F80080B8F1000FE2D062
:1047F400002D40F08280B8F1270F06D0B8F15C0F8D
:1048040000F08380B8F1220F6FD12046FFF7DAFE63
:10481400611C0246204612F02CFC4546E3E7204684
:10482400FFF7D0FE611C0246204612F022FC002550
:10483400D9E7302825D102234FF00008E05CA0F12D
:104844003001C9B207295FFA83F917D8013341EA65
:10485400C801052B5FFA81F8F0D199462046FFF78D
:10486400B1FE09F1FF3AA244821CA2EB09025146AF
:10487400204612F0FEFB04F8018BB4E7B9F1020FF5
:10488400ECD1782837D102214FF00008635CA3F102
:104894003002D2B2092AC8B214D842EA0813032952
:1048A4005FFA83F80CD14FF0040A2046FFF78AFE22
:1048B4000AF1FF39A144821CA2EB0A024946D7E758
:1048C4000321E3E7A3F16102052A03D8573B43EA36
:1048D4000813E4E7A3F14102052A01D8373BF6E7C0
:1048E400022808D04FF0030ADFE7404612F045FAE9
:1048F40000287FF460AF013475E7A8458FD0B8F184
:104904005C0FF8D16078854293D12046FFF75AFEB8
:1049140004F1010802464146204612F0AAFB44462F
:1049240061E700BF0EA4010070B50D4616460446AB
:1049340020B90B4940F22310FFF79CFB636823B9AD
:1049440007494FF49270FFF795FB606803681C6990
:1049540029463346A4460122BDE87040604700BFA3
:104964000EA40100F7B505468068424E00244FF4BA
:10497400C072214600F5D6708DF8034012F049FE4E
:104984003D49286902F04EFB286902F039FB4FF4D7
:104994007A7746F0010601AA0DF103012846FFF7D4
:1049A400C3FF019B5BB94FF6C010B047019A002AC0
:1049B400F1D17B1E9FB2002FEDD10D2035E09DF883
:1049C4000330AA681B2B49D092F8AC111B29EDD1F6
:1049D400522B43D11444002384F8AC3192F8AD1126
:1049E4005B291FD102F5D77002251E4610F8011B62
:1049F40001353B29ADB21AD1B5F5C07F20D005F5FC
:104A0400D6741444002314F8010BD8B9FA2B28BF28
:104A1400FA23FA2E9382334628BFFA23138382F8AB
:104A2400AC0102E082F8AC310B2003B0F0BD06EB20
:104A3400860301EB4303303BB5F5C07F9EB2D5D16D
:104A44000C20F2E703EB8303013500EB4300ADB226
:104A54003038B5F5C07F83B2D5D3F1E711190134ED
:104A6400A4B2092C81F8AC31A0D9002382F8AC316E
:104A74000420DAE7C0A4010098A401002DE9F7435B
:104A84000F461446054600B119B91D49F420FFF735
:104A9400F1FA6B681B681BB91949F520FFF7EAFAAC
:104AA400DFF85C80002614B903B0BDE8F0836868C1
:104AB40003682246D3F80C90B91901ABC84718B162
:104AC4004146FF20FFF7D6FA019B9C4204D241469F
:104AD4004FF48070FFF7CEFA019B1E44E41A002BBA
:104AE400E1D1AB681A78032ADDD0D3F854239206B7
:104AF400FBD5B3F854236FF34512A3F85423D2E73C
:104B04000EA401002DE9F04F054685B090460F46EE
:104B1400002971D00024385D12F02FF940BB1FFA30
:104B240088FB05F1100A3846FFF74CFDAB68DB8BB8
:104B3400001BA3EB0803984207EB04091AD94A4661
:104B4400002612F8010B02930192039212F015F958
:104B5400DDE9012320B112F8013C0A2B35D033469C
:104B6400A968C88B08EB060188422DD90136E8E70D
:104B74000134D0E74B460026B04219D013F8012B7C
:104B84000A2A04EB060A1DD1286902F039FA3246D2
:104B94002E4649462846FFF771FF56F8100FFFF7D7
:104BA400E9FD1FFA88F130460AF10104FFF7F0FD30
:104BB4002869391902F036FA286905B0BDE8F04FC2
:104BC400FFF7D8BD0136D7E71E46286902F018FA68
:104BD400324649462846FFF751FF3444385D12F007
:104BE400CCF838B92869FFF7C5FD59465046FFF798
:104BF400CFFD98E70134F1E705B0BDE8F08F000080
:104C04000A4619B10249006802F00CBA704700BFA5
:104C1400B3A401000A4619B10249006802F002BABD
:104C2400704700BFA7A4010070B50546FFF7F2FC6A
:104C3400037B0288818801339A42044601D1012909
:104C440015D0012905F1100604D9013989B230467D
:104C5400FFF7D6FF2388217B8B4209D9013B591AE0
:104C640089B23046FFF7D6FFAB6800221A8570BDC3
:104C7400C91A013189B23046FFF78AFDF4E7F8B565
:104C84000546FFF7C7FC04468788C6882846FFF711
:104C9400AFFC78B12869FFF76DFDB74205F1100547
:104CA4000ED161882388C91A284689B2BDE8F84024
:104CB400FFF7B0BF2846FFF7CDFC0028EAD1ECE7A8
:104CC400A388E188C91A89B22846FFF799FF238887
:104CD40061888B42E7D9591A284689B2BDE8F84061
:104CE400FFF756BD0A4619B10249006802F09AB9A5
:104CF400704700BFA1A4010070B50546FFF78AFC08
:104D040043880288C1889A420446838801D18B4231
:104D140014D0994205F1100604D9C91A89B2304653
:104D2400FFF7E0FF238861888B4208D9591A89B2BA
:104D34003046FFF76FFFAB68DA8C1A8570BDC91A6D
:104D440089B23046FFF724FDF5E700002DE9F74F5F
:104D54000F4616460193044648B9484940F6A22036
:104D6400FFF788F9454940F64520FFF783F9A36822
:104D74001BB163680BB1236823B9404940F6462050
:104D8400FFF778F9E36860685B683D4A9C600368F4
:104D940039461D682346A8470546002850D1636953
:104DA40023B9364940F65520FFF764F9606902F0EB
:104DB40085FD0546002843D1A068DFF8D8A0314F0F
:104DC400DFF8CC80DFF8B4904FF45672C0E9D255C6
:104DD400294612F01EFCA368B3F8542342F02002C3
:104DE400A3F85423B3F8542366F38202A3F854239C
:104DF400B3F8542342F00802A3F8542301221A7092
:104E0400A7EB0A07204ADA614FEAD70B2E465E4524
:104E14001AD1072F05D91D4B1D480422314612F023
:104E240045F9019B63B19DF83010E068FCF7FCFC88
:104E34000028A1BFE368DB6801225A71B8BF0425CA
:104E4400284603B0BDE8F08FBAF1000F04D14946FB
:104E540040F67120FFF70EF9DAF80420126822B93F
:104E6400494640F67220FFF705F9DAF80420126883
:104E740048F8042B01360AF1080AC8E70EA4010019
:104E84004D4400009C860100180050007544000049
:104E940000000020EC850100FFF7F0BD0CB473B5F1
:104EA400069D04460E4625B9224940F65F30FFF7B9
:104EB400E1F824B91F494FF43660FFF7DBF8A36823
:104EC4001BB163680BB1236823B91A4940F66130FA
:104ED400FFF7D0F807ABA1680193D1F854335B070F
:104EE40021D591F82230B3421DD0022222316846E6
:104EF40012F066FB31462046FFF7F4FB01AA29466F
:104F0400206902F029F99DF800102046FFF7EAFB1A
:104F14009DF8011011B12046FFF70CFC02B0BDE86A
:104F2400704002B0704701AA2946206902F014F9C2
:104F3400F4E700BF0EA40100F8B5044616460F4678
:104F440021B9234940F25360FFF794F8A068C58C57
:104F5400AB19B3F5C07F3ADA002E38D0038DED1AC1
:104F640003F12C0133442C33ADB201446A1C1844C0
:104F740012F07FF8A068038D2C333246394618446A
:104F840012F077F8A0682C30FFF71CFBA268138D91
:104F9400D0842C33134420460E4A0821FFF77EFFA9
:104FA400A3681A8D16441E852046FFF721FB40B1E5
:104FB4002069FFF7DFFB55B12046BDE8F840FFF755
:104FC4005EBE2046FFF746FB0028F1D1F3E7F8BDAB
:104FD4000EA4010010A801002DE9F04104468068E8
:104FE400D0F85433C28CC3F30008038D5FFA88F7FA
:104FF400D51A0E46ADB2002F3FD1B2F5BF7F41D8CE
:105004003DB103F12C012D3301442A46184412F01A
:1050140030F8A3681A8D1A4482F82C60002F6CD1E2
:10502400DA8C013292B2DA84134483F82C80002D96
:105034006CD02046FFF7EEFA8288C3889A4204F1C6
:10504400100621D1A268138D2C3313440821204665
:10505400314AFFF723FFE91B89B23046FFF7DAFD37
:10506400A268138D013313852046FFF7C1FAF8B106
:105074002069BDE8F041FFF77DBBB2F5BF7FC8D919
:10508400002DC6D1BDE8F0812046FFF763FAA2687F
:10509400138D2C33134408211F4A2046FFF7FEFECC
:1050A4002046FFF773FA01213046FFF769FBD7E783
:1050B4002046FFF7CFFA0028E4D02046FFF7AAFAEB
:1050C400C1888388013904F11006C91A054689B2DA
:1050D4003046FFF707FE2069FFF74CFBE988AB88F1
:1050E400C91A304689B2FFF78BFD29880139304649
:1050F40089B2BDE8F041FFF74BBB002D99D1DA8CA2
:10510400013292B2DA84134483F82C5032460349B4
:10511400206901F087FFA3E710A80100D4940100DF
:10512400F0B5826885B000250446CDE90155ADF897
:105134000C50D2F850630F46002942D1002E3BD0C8
:10514400FFF772FDA0683B46D0F850030A2201A97C
:1051540002F022FCA068029BC0F85033C58C002BDF
:105164004ED100F5D670FFF72DFAA36830B303F5DE
:10517400D67103F12C0012F07FFAA0682C30FFF7EF
:1051840021FAADF80C00BDF80C30A268AB421385CF
:10519400D38402D22046FFF7C1F9A3682D4A2046E2
:1051A4002C330821FFF77AFE2046FFF721FA002866
:1051B40049D02069FFF7DEFA05B0F0BD83F82C0072
:1051C400DBE7D2F84C33B342F6D0D2F84833002BA5
:1051D400F2D0FFF729FDA368D3F8500338BB03F1DD
:1051E4002C00FFF7EFF985B2A068D0F84833C0F877
:1051F4005033CDB100F12C0100F5D67012F03CFA19
:10520400A06801A900230A22D0F8500302F0C4FBCD
:10521400A068BDF80C2000F12C010A230132D0F85B
:10522400500302F0B9FBAEE780F8AC51E8E72B4637
:105234000A2201A902F0B0FBA368019ABDF80C5040
:10524400C3F85023DCE72046FFF704FA0028B0D166
:10525400B2E700BF10A8010038B504468068038D8A
:10526400C58CED1AADB2002D43D003F12D012C33C2
:1052740001442A46184411F0FCFEA268D38C013B79
:10528400D3842046FFF7C6F98288C3889A421CD18A
:10529400A268138D2C3313440821164A2046FFF7C5
:1052A400FDFD236923B9144940F28F40FEF7E2FE65
:1052B40054F8100F0F49114A01F0B4FE691E20463C
:1052C40089B2BDE83840FFF7A5BC2046FFF742F994
:1052D4002046FFF723F9A268138D2C33134420468C
:1052E400044A0821FFF7DAFD2046BDE83840FFF7FD
:1052F4004DB938BD10A801000EA4010078A4010026
:10530400F0B5C3685B6891B004460D46002203A95A
:10531400186802F00DFC002840F08A8085B10398DB
:1053240002F017FBA268D2F844330133C2F84433C5
:1053340003F00703012B03D00125284611B0F0BD6B
:105344002046FFF767F981880129064605D9013906
:1053540089B204F11000FFF753FC3188012905D903
:10536400013989B204F11000FFF754FC2046FFF71D
:10537400D5F82DB12F4A02212046FFF78FFDDCE737
:1053840000230C2204A9039802F006FB069B079352
:10539400059B089301238DF825309DF8103003F008
:1053A4000302012A25D1BDF81050049E0398C3F3CB
:1053B400C203C5F383158DF82430AA000C230AA96F
:1053C40002F0EAFAC6F39526236900932A4607AB4E
:1053D4000AA93046FCF7DEFB039802F0BAFAE36848
:1053E4005B68002203A9186802F0A2FB0028C7D05A
:1053F400A2E7022AF0D1BDF81250C3F3C203AD09EB
:105404008DF824300C27082D2E4628BF08263B464D
:1054140032460AA9039802F0BFFAAD1B236907AA12
:1054240031460AA83744FCF719FC002DEBD1D3E729
:10543400002582E7E0A3010013B5436801A9002217
:1054440018689C6802F074FB014610B92046FFF707
:1054540057FF02B010BDF7B547680191BC68A36857
:105464001E78042E0ED001A9386802F0DBFA054636
:1054740050B9019802F069FA032E03D12946204657
:10548400FFF73EFF03B0F0BDF11E18BF0121204617
:10549400FFF736FFE7E70000836802221A70002254
:1054A40083F82C201A85DA8403210368014AFFF764
:1054B400F5BC00BF10A801002DE9F04F0446A5B0CB
:1054C40020B99D4940F62930FEF7D4FDA3681BB1ED
:1054D40063680BB1236823B9974940F62A30FEF775
:1054E400C9FDA068102100F55570FEF76DFEA36894
:1054F4001B78022B40F08A8000230B930BAA0DF13A
:105504002B012046FFF710FA0B9B002B65D09DF969
:105514002B30002BF2DB02F053FAA5686B78022BD8
:1055240000F23287DFE813F00300650678069DF881
:105534002B000D2836D00A2834D0B5F854336FF335
:105544008D13A5F85433092800F0628400F25483C3
:10555400032800F0778300F209830028CED00128C5
:1055640000F0FA8611F00EFC0028C7D0A3689DF85D
:105574002B10D3F85453C5F3C00515F0FF0F40F0BA
:105584007C85D88CB0F5BF7FB8D81E8D721C92B2C2
:105594001A851E441A44013086F82C1082F82C50C7
:1055A400D884ABE7D5F8543313F47F5F05D0D5F82E
:1055B4005433C3F387139842C5D1B5F8543360F319
:1055C4008D13A5F85433EB8C6BBBC5F850332069AD
:1055D400FFF7D0F82046FFF75FFF00212046FFF7D2
:1055E4008FFE98B12368554A03212046FFF756FCE5
:1055F400A368D3F85423120708D520462C334F4A06
:105604000821FFF74BFC2046FFF739FB206901F026
:10561400F7FCA0686FF0100100F55570FEF7EAFD85
:1056240025B0BDE8F08F95F82C30002B40F0908029
:10563400A0682C30FEF7C6FFA368002785B2064693
:10564400C3F850731DB3D3F84803002800F0C18099
:105654003B460A2217A902F09FF9BDF864309D4227
:1056640040F0B780A0680A2300F5D6716A1CD0F810
:10567400480302F091F9A06800F5D6712C3012F0BD
:105684001DF8A368002840F0A28083F8AC01A0684C
:105694004FF4C072002100F5D67011F0BAFFA06873
:1056A400C28C00F12C0100F5D67011F089FFA368BB
:1056B400039303F5D6794846FEF784FF86B2B9F121
:1056C400000F40F00081A06800F5D670FEF77AFF65
:1056D400A368013058852046FFF70EFB2046FEF7ED
:1056E40087FF10B92069FFF745F8A26817A92C3283
:1056F4000CA8FFF751F80C9A0346002A3FF467AF51
:10570400002840F0E3800E4F0E4EF61BF6080546C7
:10571400AE42179B40F0E0800B4A009202210B4AF4
:105724002046FFF7BBFB55E70135B5F5803F10D1A7
:10573400002283F82C207BE70EA4010010A80100AE
:10574400EC8501009C86010024A7010062A60100EB
:105754000025A3682B44AEB293F82C0011F00DFB86
:10576400A3680028E0D16EB1DA8C03F12C00013279
:10577400521B411911F07DFCA268D38C9B1B9BB278
:10578400D3841385A568EB8C2B331D441FFA85F84D
:10579400A946AFB2A8EB070699F80000B6B2013DDE
:1057A40011F0EBFA0028F3D1A568EB8C03F12B017F
:1057B400294489453FF43CAF9E1BA7EB08022E44C5
:1057C40013449BB286F82C00EB842B8530E783F8D6
:1057D400AC710827B6B20B3604EB07083146606992
:1057E40002F084F80546002833D0A368D3F84803B0
:1057F400A8B9C3E9D255CDE91700DB8CADF8643004
:1058040017A9284600230A2202F0B2F8A168CA8C1C
:105814000A2301322C31284602F0AAF837E7002384
:105824000A2217A902F0B8F8A068189500230A22E2
:1058340017A9D0F8480302F09BF800231893A36833
:10584400D3F848231792DA8CADF86420C3F8485390
:10585400D6E74046FEF710FF013FBFD117E7BAF184
:10586400000F0BD0A6EB0A0604900BF10100721C8A
:10587400484411F0FEFB049BB6B29A46731E9D4247
:10588400BFF621AF19F8050011F077FAAB460135E0
:10589400ADB20028F2D0039B05F5D67898442F4684
:1058A400B742EBD241460491087811F066FA08F148
:1058B400010804990028D2D00AF1010201371FFA25
:1058C40082FABFB2ECE70025AA46D7E7A04A022134
:1058D4002046FFF7E3FA7DE67A681846116811F06E
:1058E400EDFEB846083718B10135AE42BFF410AF2B
:1058F40098F8003023B1974940F6A310FEF7BAFB9D
:10590400A0680021102204300D9111F082FED8F815
:105914000450EB682BB195E80F00A668043686E8BE
:105924000F00AB6804934FF00008CDF814800125F4
:10593400C3460C9BAB4210D924AB03EB85068649C6
:1059440056F8340C11F0BAFE00282ED1A268B2F831
:10595400543343F00203A2F85433B8F1000F0ED0CD
:10596400A068428D00F5D6712C3011F029FEA26892
:10597400538DD38417A92C320CA8FEF70DFFA3680E
:105984001B69002B00F0E180059A059817A901EB2B
:1059940082020C99091A20469847A368B3F8542345
:1059A4006FF34102A3F8542314E66C4956F8340CFF
:1059B40011F084FE0028C9D056F8340CFEF706FE18
:1059C400002800F0888056F8343C039300260E9695
:1059D400B14609F10103079313AB00934A460EAB9A
:1059E40029460498FEF75CFD0E9BDBB10022196882
:1059F4000398FEF76EFA002867D10E9B1B68069386
:105A04001846FEF7DFFDA26883B21F460893538D44
:105A140001333B44B3F5C07F37D9514A04212046B2
:105A2400FFF73CFA002E98D0A068039900F5D670D1
:105A340011F050FD07460398FEF7C4FD1FFA80F9E4
:105A4400F7B1A36803F5D6739F4209D917F8013C4F
:105A5400202B02BF09F101091FFA89F907F1FF3769
:105A64003846FEF7AFFDA268538DA3EB09035385B7
:105A7400421CA2EB090207EB0901384611F0F9FABE
:105A8400B04401355F46BB4653E7039902F5D6702F
:105A940011F020FD82460028C4D0FEF793FD82B2A7
:105AA400781C01325146504411F0E3FA3A46069903
:105AB400504611F085FD20230AF80730A2680899A2
:105AC400538D0133194451850136B9F1FF3FA9D0F3
:105AD400DDF81C907DE70FAB0BF1010700935A46EC
