:1000000000000120750300005D0300005D38000062
:1000100061030000630300006503000000000000AE
:100020000000000000000000000000006703000066
:1000300069030000000000006B0300006D03000076
:10004000098000006F030000198000006F030000AA
:100050006F0300006F030000D17D00006F030000FC
:100060006F0300006F0300006F0300006F030000C8
:100070006F0300006F0300006F0300006F030000B8
:100080006F0300002D2900006F0300006F030000C4
:100090006F0300006F0300006F0300006F03000098
:1000A0006F0300006F0300006F0300006F03000088
:1000B0006F0300006F03000000000000000000005C
:1000C0006F0300006F0300006F0300006F03000068
:1000D0006F0300006F0300006F03000000000000CA
:1000E0000000000000000000000000000000000010
:1000F0000000000000000000000000000000000000
:1001000000000000000000000000000000000000EF
:1001100000000000000000000000000000000000DF
:1001200000000000000000000000000000000000CF
:1001300000000000000000000000000000000000BF
:1001400000000000000000000000000000000000AF
:10015000000000000000000000000000000000009F
:10016000000000000000000000000000000000008F
:10017000000000000000000000000000000000007F
:10018000000000000000000000000000000000006F
:10019000000000000000000000000000000000005F
:1001A000000000000000000000000000000000004F
:1001B000000000000000000000000000000000003F
:1001C000000000000000000000000000000000002F
:1001D000000000000000000000000000000000001F
:1001E000000000000000000000000000000000000F
:1001F00000000000000000000000000000000000FF
:10020000354936480A1A02D0072291438D463449AF
:1002100034480A1A06D00722914381F30988022242
:1002200082F3148830483149314A00F044F83148AB
:100230003149324A00F03FF831483249324A00F041
:100240003AF832483249334A00F035F832483349F7
:10025000334A00F030F833483349344A00F02BF881
:1002600033483449344A00F026F8344834490022EF
:1002700000F02CF833483449002200F027F83348C6
:100280003349091A082902DB002202604160314A21
:1002900090471F481F49884205D00268043003B4C4
:1002A000904703BCF7E700208646EC46002000217B
:1002B000294A9047FEE7884207D0521A05D00378B2
:1002C00001300B700131013AF9D17047884202D0F8
:1002D00002700130FAE770470000012000E00020C2
:1002E0000000012000000120F0EE00006801002065
:1002F000A0020020D4030000D4030000C0AA000024
:10030000F0EE00006801002068010020C4AE00008B
:10031000C4AE0000C4AE0000C4AE0000C4AE000015
:10032000C4AE0000C4AE0000C4AE0000F0EE000099
:1003300028F00000A0020020A0020020A00200205F
:10034000B81C0020B81C0020BC1C0020BC1C0020D5
:10035000BC3C00209D03000005940000FEE7FEE782
:10036000FEE7FEE7FEE7FEE7FEE7FEE7FEE7FEE765
:10037000704700BF1048804710484FF0070188437E
:1003800085460F4880470F48016841F470010160BD
:10039000BFF34F8FBFF36F8FFFF732BF0A480B4990
:1003A0000B4A884207D0521A05D0037801300B70EF
:1003B0000131013AF9D170477103000000000120BA
:1003C000C198000088ED00E05CAD00000000002056
:0403D00068010020A0
:1003D40000487047B01C00207047000007B5002299
:1003E40001A907F05BF830B9044A01981368013396
:1003F400136006F064FF03B05DF804FB1C030020E7
:100404000148FFF7EBBF00BF50AB00000148FFF706
:10041400E5BF00BF6CAB000030B585B00546019167
:10042400002401A9284606F0B3FF10B9204605B000
:1004340030BD002203A9284607F030F80028F0D187
:10044400039806F03CFF0134EBE7000073B58368C2
:10045400D3F854339B07054603D50022114605F013
:1004640087FC154C154A24F47F6428464FF48056C3
:10047400082124F00F0404F0C7F923462846009607
:100484000F4A082104F0C0F90E4B0F4A1B681C1BCD
:10049400642363432846CDE900461B0B082104F07E
:1004A400B3F90A4B0A4A1B680821284602B0BDE882
:1004B400704004F0A9B900BF27000100F8AE0000A5
:1004C4000CAF00001403002039AF00001C0300200F
:1004D40068AF000000238B540A460068194604F0F4
:1004E40093B900002DE9F0433C4D87B007460E4612
:1004F400DFF8F4801CE0DDF8089005940C2240231A
:100504000DEB02012B6048462346CDE9034406F077
:10051400F9FE0C220DEB0201404609F054FE9DF851
:100524000C3003F00303012B0BD0022B2CD02C60D6
:10053400002202A9384606F0B1FF04460028DAD0AA
:1005440036E0BDF80C40C4F38314A4000C23224607
:100554002349484606F0D6FE2A6804F10C039A4261
:10056400E6D3029A1F4C009221681F4A1F482B6051
:1005740006F03EFC90B9F6B123682A680298134449
:10058400236006F09CFEB3E7BDF80E40A409342CAA
:1005940028BF3424033424F00304D7E776B90428AD
:1005A4000CD1029806F08BFE114A136801331360D4
:1005B400104803F00AFB07B0BDE8F083102806D109
:1005C400029806F07CFE0C4B01221A7090E70B494E
:1005D40040F23D1003F004FA8AE700BF180300203C
:1005E4002C030020140300202003002048000020D6
:1005F4001C030020E0020020900300207FAF0000D5
:10060400174A38B513780446CBB90378012B25D1A2
:10061400416879B91348144A0368156811602B447A
:1006240003601248FFF75EFF6069B8B1BDE8384067
:1006340006F045BE0E4A136801331360F4E7012B3C
:100644000CD10378022B09D10A4B816823F47F6310
:1006540023F00F03994204BF0023137038BD00BF79
:1006640090030020140300201803002050AB000066
:100674001C030020270001000D4B1B7810B50C460D
:10068400A3B9084606F017FE21460A48FFF7C4FE40
:10069400094A136818441060084803F08DFA0146AB
:1006A40020B90448BDE81040FFF71CBF10BD00BFCF
:1006B4009003002050AB00001C030020E002002047
:1006C40038B50B4C2378012B0D460FD0084606F0A5
:1006D400F2FD29460748FFF79FFE2378022B05D138
:1006E40001210448BDE83840FFF7FCBE38BD00BF17
:1006F400900300206CAB000070B5002286B01B494B
:100704001B4806F039FB1B4B044650BB02221A70EF
:10071400194B1A481A4E0125C3F884502946FFF78D
:10072400E1FE04F0C40343F0290303948DF80C3074
:10073400039B144A31680E4862F39F23124A0393C1
:10074400C2E9003494600C23009406F051FB336832
:100754000E480C332946336006B0BDE87040FFF7FD
:10076400C1BE01221A7006B070BD00BF24D40000BF
:10077400480000209003002000E100E050AB00009E
:1007840014030020C4AE0000200300206CAB000062
:1007940070B50E4601680446154621B9154921F481
:1007A4007F6121F00F012160134806F067FCF0B16E
:1007B400216831600B7803F0030301F10C00012B75
:1007C400286003D0022B09D0052070BD0B88C3F329
:1007D40083139B00034423600020F6E74B889B09A6
:1007E400342B28BF3423033323F00303F2E706201A
:1007F400EBE700BF27000100480000201FB5114BA4
:10080400114C23F47F6323F00F03E360014603F6E6
:10081400FF7320460022236106F0AEFA044668B94D
:10082400019003AA02A901A8FFF7B2FF0028F8D09B
:10083400064B019A1A60064B00221A70204604B037
:1008440010BD00BF27000100480000201403002051
:10085400900300202DE9F0418368D3F854339B07BB
:1008640088B0044603D50022114605F081FA00231E
:10087400CDE90233274E284D284F4FF0010803AA33
:1008840004A902A8FFF784FF0346002836D1DDE956
:100894000301CDF81A30ADF81E308B6805938B88B0
:1008A400ADF818300B78346003F00302012A07D046
:1008B400022A18D0394640F29D2003F091F80FE047
:1008C4000A88D1F800C00095C3F3C2038DF81C3028
:1008D400014605ABC2F383124FEA9C2001F0B2F843
:1008E4004FF00008CBE74988C3F3C2038DF81C30EE
:1008F40005AA2B46890901F009F9F1E7B8F1000FBF
:1009040004D0074A0221204603F07EFF08B0BDE868
:10091400F08100BF94030020680100207FAF000035
:10092400E6AE000010B5084C084B094824F47F6477
:10093400012224F00F041A702146002306F018FB4C
:10094400044B1C6010BD00BF270001009003002071
:10095400480000201403002008B58368D3F85433FA
:100964009B0703D50022114605F002FABDE80840B2
:10097400FFF7D8BFF0B595B008460D4616461C469D
:1009840006F099FC1A9A0D9200230C2205A9284618
:100994000A938DF82C300C93CDE9086406F0B2FC70
:1009A400079B0293069B039301238DF811309DF856
:1009B400143003F00302012A1DD1BDF81440059E32
:1009C400C3F3C203C4F383148DF81030A2000C23C4
:1009D4000EA9284606F096FCC6F3952608AB0093AC
:1009E400224602AB0EA9304601F02CF8284606F048
:1009F40066FC15B0F0BD022AF8D1BDF81640C3F369
:100A0400C203A4098DF810300C27082C264628BFF1
:100A140008263B4632460EA9284606F073FCA41B62
:100A240008AB02AA31460EA8374401F06FF8002C37
:100A3400EBD1DBE7014B01221A707047D903002088
:100A44007047000070B50F4D06460FCD88B06C4658
:100A54000FC495E80F00002E84E80F004FF0060342
:100A6400094A0A48009308BF0022694607F066F85D
:100A740018B1074A432101F09DF9064B1E7008B0D6
:100A840070BD00BF08B10000390A000080010020D9
:100A940034B100009803002007B5044B0093044AC6
:100AA4004023FFF767FF03B05DF804FBB90A0000B9
:100AB4009903002038B50E4B0E4D002018700E48D7
:100AC40004782D5DD2B21C4675B1043008F054F898
:100AD40018B10A4A532101F06DF9094B1A7812B181
:100AE4002378002BFBD038BD0C3007F02DFDEFE749
:100AF400D9030020FC0B00208001002034B1000049
:100B04009803002008B50848084A0378D35C3BB131
:100B1400043007F0DBFF0020BDE80840FFF792BF78
:100B24000C3007F0BBFCF6E780010020FC0B002032
:100B340000230428CB604B6098BF044B044A98BF41
:100B440053F820308A600B60704700BF4CB400003B
:100B540028B40000CB6800225A717047C368DB6870
:100B640000225A717047CB6801225A717047C368DA
:100B7400DB6801225A7170470D4A8A6070B50D4ACC
:100B84000D4C0023121BCB604B600B6012091D46F9
:100B94009A4207D0E6683679FF2E05D0854202D105
:100BA400A3680B6070BD013501331034F0E700BF5A
:100BB40060B4000008AD0000B8AC00002DE9F74FA8
:100BC400164D174C52F8047C0193641B0646894663
:100BD400924624094FF00008444508D1114A3B4687
:100BE4000221304603B0BDE8F04F03F00DBEA96802
:100BF400384609F066FBAB46103510B108F1010820
:100C0400EAE7DDED017A17EE90CA53464A465946A3
:100C1400304603B0BDE8F04F604700BFB8AC0000F9
:100C240008AD000098B50000014BFFF7C7BF00BF37
:100C340015120000014BFFF7C1BF00BF590B0000A4
:100C4400014BFFF7BBBF00BF6B0B0000014BFFF76D
:100C5400B5BF00BF4D100000037813F0040216D096
:100C640003F00303012B03D0022B09D001207047AA
:100C74000A6800880332C0F3831002440A60F5E76F
:100C84000B684288033303EB92130B60EEE71046C4
:100C9400704700002DE9F04F464C0F4687B00546DB
:100CA400C61C0020914601F091FB20683860D4E90D
:100CB4000132134401331B1A04F21C4704F5836AFE
:100CC40004F21448B34217D30022B9F1000F6AD0DA
:100CD400052363F3070265F389122168A3680B40B7
:100CE40003330E44002044F82320266001F07EFBE9
:100CF400012007B0BDE8F08F0121384602F046FF1D
:100D0400504602F05CFF404602F059FF6068A36859
:100D140002901840033004EB800002A90193FFF70E
:100D24009BFF8346DDE90130BBF1000FF1D103EAFB
:100D3400000204EB8202411CD26803920B4004EBD4
:100D4400830302F00302D968012A00F1030302932A
:100D540021D0022A05D018494FF4BF7002F040FE9A
:100D640008E0BDF80E00800903304FEA114B03EB95
:100D740090000290404602F025FF08B1029B636098
:100D84005946384602F002FFD4E90123134422688D
:100D940001339B1A96E7BDF80C00C0F383104FEAA9
:100DA400114B1844E5E7062363F3070265F39F52EA
:100DB40093E700BF74050020A1B10000012907B525
:100DC400034604D08168D1F85413890707D500225B
:100DD4001146184603B05DF804EB04F0C9BF53682C
:100DE4000193054B00931368044A022103F00CFDA0
:100DF40003B05DF804FB00BF14B200000AB20000A7
:100E04002DE9F3478368D3F85443C4F340040746F9
:100E140034B10022114602B0BDE8F04704F0A8BF87
:100E2400144E154DDFF85880DFF85890DFF858A0BD
:100E3400AD1B2D09AC4202D102B0BDE8F087F268C7
:100E4400B3681179FF2907D10C4A0821384603F009
:100E5400DBFC01341036EDE75279002A14BF424618
:100E64004A46CDE9002138465246082103F0CCFC1D
:100E7400EFE700BFB8AC000008AD00003AB20000D4
:100E840029B2000031B2000059B2000030B50A4B5B
:100E94000A4A0B49D21AD20800239A4201D10520EA
:100EA40006E031F823500468A54202D10360002013
:100EB40030BD0133F1E700BFC0AB0000B8AC0000A7
:100EC400700000202DE9F84F0546002849D0264C33
:100ED400FF230846A3600023C4F81834C4E9003390
:100EE400C4F8143484F8203400F06AFE1F48C4F8AF
:100EF4000C5406F099F9814688B91D481D4E1E4CC4
:100F0400DFF880A006F098FBA41BE4084D46A54238
:100F140008D10023194A1A481946A3421BD148464E
:100F2400BDE8F88F4FF00008474606EBC50BBD42FD
:100F34000AD0142256F83710DBF8000009F09CF8A8
:100F44000028C8BF08F101080137BC42EFD12AF8D4
:100F540025800135DBE720F8231042F8041B013318
:100F6400DBE74FF00709DAE77405002008AD00005D
:100F74001CB40000C0AB0000B8AC0000EC000020C2
:100F8400720000207000002007B5019031B9019A69
:100F9400064B53F8320003B05DF804FB01A8FFF7D9
:100FA40075FF0028F3D00020F5E700BFC0AB0000B8
:100FB400002310B5CB604B60034B8B600C460121C2
:100FC400FFF7E2FF206010BD28B40000094B01398F
:100FD40003EBC000032909D8DFE801F00A02040684
:100FE40004207047007970474079704700207047AB
:100FF40002207047C0AB000030B5114C00EB40003C
:1010040054F821508240072383406A401A400D4B14
:101014006A40C2F3821044F8212003EB8101C2F339
:10102400C203834238BF0346C2F34220834202F024
:10103400070238BF03469A4238BF1A464A8030BD79
:10104400EC000020700000202DE9F74F06461D46F5
:101054009046002A4FD0CB6828684B4993F80490F7
:10106400072209F009F8D0B9B8F1010F07D1474AAE
:101074000221304603B0BDE8F04F03F0C5BB444F36
:1010840004460A2257F8041B686808F0F5FF002894
:1010940073D00134052CF4D16B683E4A13E0082266
:1010A4003D49286808F0E8FF58B9B8F1010F044633
:1010B4002AD00127394A3A4B9B1A4FEAD30A93465E
:1010C40045E02B68374A0221304603B0BDE8F04FB3
:1010D40003F09ABB18F83530A3420FD200212846FA
:1010E400FFF752FF524603460221304603F08CFBC1
:1010F4000135BD42EED103B0BDE8F08F224629464A
:101104004846FFF779FFF3E7244B254FDFF89CA00F
:10111400FF1AFF08002503F10608EAE71846002134
:101124000193FFF731FF0099202208F0A5FF019BEE
:10113400014608B1013310E00BEBC3029279A242DD
:1011440015D3224619464846FFF756FF013747454F
:10115400D1D255F82730009300239A45DED155F8B3
:101164002730114A0221304603F04EFBEEE71846C1
:10117400FFF70AFF0D4A0346F4E7B8F1020FE4B2A1
:10118400C2D0022796E700BFF3B20000FAB2000013
:1011940038B4000065B3000011B30000C0AB000018
:1011A400B8AC000019B3000051B300002EB3000026
:1011B40013460A46C168FFF747BF000013B504464B
:1011C4000191A3B162B9019A0F4B04EB44040720C7
:1011D40053F82230A0401840E040C0B202B010BD25
:1011E40001A8FFF753FE0028EDD00020F6E72AB946
:1011F400019A064B03EBC2039879EFE701A8FFF7C6
:1012040045FE0028F1D1F3E7EC000020C0AB00005C
:10121400284B294A2DE9F04F9B1A4FEAD309CB6892
:101224005B7985B005460E461BB9244A022103F0BA
:10123400EBFA234B234A244F0821284603F0E4FA0F
:10124400224A0821284603F0DFFA00244C4502D143
:1012540005B0BDE8F08FF36893F8048001231A46C3
:1012640021464046FFF7AAFF012221468346002378
:101274004046FFF7A3FF0428034628BF04235FFA70
:1012840083FA804601212046FFF77EFE57F82A3074
:1012940001930F4A0F4B57F82B100091D04598BF7C
:1012A400134602930C4A03460821284603F0ACFA7D
:1012B4000134CBE7B8AC0000C0AB000084B300003D
:1012C40097B30000A3B3000038B40000C1B300001A
:1012D40023E4000082B30000FEB3000013460A4674
:1012E400C168FFF795BF0000034BD3E90030C31A70
:1012F40058425841704700BF740500202DE9F04F53
:1013040085B0FFF7F1FF0646002840F01C818F4DA1
:10131400C5F81804BFF34F8F6868AC68009020408C
:10132400033005EB80006946FFF796FC009B18B17B
:10133400D5F81824002A6CD0591C214005EB8101F2
:1013440004EA0302C9680291D91C023305EB820244
:10135400234005EB8303D268DB68039302F00303A5
:10136400022B0192009169D1BDF8063078489DF8AE
:1013740004604FEA931ABAF1A00FD14628BF4FF088
:10138400A00969F38F1309F10C01ADF8063005F0DB
:1013940063FFC6F3C2068046002800F0BB8005F058
:1013A4008AFF01A900230C22404605F097FF00990B
:1013B40024EA01070137BF00B94538D95FFA89F932
:1013C40097B3FFB2A9EB0709214003315FFA89FB08
:1013D400B946604F05EB81010C234A46404605F0AF
:1013E4007DFF37B109F10C035A463946404605F0F2
:1013F40075FF009B0AF1030A03EB9A030093D5F8E7
:101404001834002B50D1D5F81044DFF85C9107272D
:101414006FE02A689A4204D86A60304605B0BDE895
:10142400F08F04EA03007BE74A49BB46D4E7214036
:1014340003310C234A4605EB8101D7E7012B69D11F
:10144400BDF804604248C6F38311062928BF06216B
:1014540061F3891603318900ADF8046005F0FCFEE0
:10146400C6F3C2068046002854D005F024FF0023AA
:101474000C2201A9404605F031FF0027BDF80420E5
:10148400C2F38312BB00974203F10C03B7D2009955
:101494004A1C21400331009205EB8101042240469D
:1014A40005F01CFF0137E9E7404605F008FFFFF7A8
:1014B4001BFF80F00100C6B2AFE7E3685A79B2B10E
:1014C4001B79BDF8081003EB430259F8211007FA01
:1014D40002F3052E03EA010323FA02F308BF0326ED
:1014E400B34204D3236841461B6820469847E36807
:1014F4001C68002CE1D1404605F0E1FE204600F0D6
:1015040065FFD5F818340BB9009B6B60002000F020
:101514006DFFCCE7D5F8104474B90F4B5B88012BF1
:10152400C5D90E4B0E480F49C01AC008000440F03C
:10153400020000F08FF8BAE7236820469B689847BA
:10154400E3681C68E8E7002667E700BF740500202D
:1015540008AD00008005002084000020C0AB00001E
:10156400E8AB000047B60000EC0000202DE9F74F7F
:10157400334C81468846164601A9012218461F4667
:10158400D4F808A0FFF786FB002845D0019D00236E
:10159400E81CBB4203EB000248D10021294802F0B9
:1015A400B4FA80F3100B284B284A4FEA19469B1AC9
:1015B400B6EBD30F04D3264940F2A31002F010FA7D
:1015C4006B1C03EA0A0304EB830346EA0B46DE6062
:1015D400D4F80C34AE1C984706EA0A0604EB8606D7
:1015E40005EA0A030333F06014F8232069F3C50203
:1015F40004F8232034F8232067F3891224F82320E5
:1016040054F8232068F39F2244F8232002F0F802C0
:1016140042F0010204F8232094F820341BB1FFF7B0
:101624006DFE0028FBD103B0BDE8F08F0AEA020288
:1016340004EB820256F82310D1600133A9E700BFFE
:101644007405002090090020B8AC0000C0AB000075
:10165400A1B1000000231A46FFF788BF07B5012394
:10166400019201AAFFF782FF03B05DF804FB07B5FE
:10167400CDE9002302236A46FFF778FF03B05DF843
:1016840004FB1FB5CDE90123069B039301AA0323A1
:10169400FFF76CFF05B05DF804FB1FB5CDE900232F
:1016A400069B0293079B03936A460423FFF75EFF9E
:1016B40005B05DF804FB7FB5CDE90123089B0393D6
:1016C400099B04930A9B059301AA0523FFF74EFF88
:1016D40007B05DF804FB00001C4A2DE9F843D2F87A
:1016E4001034074688460024194689B9F9680C71F4
:1016F400A3B9C2F810740B60154B164DED1AED0822
:10170400002603F10709AE420DD12046BDE8F88357
:10171400C9680879A04212D00968E6E7DB681A684C
:101724000A601F60E8E719F83620FB684245314635
:1017340028BF42461879FFF75FFC0136E3E701341E
:101744000A2CD1D14FF0FF34DFE700BF740500202D
:10175400C0AB0000B8AC0000094A38B50123D2F888
:10176400104482F820341D4604B938BDE3685D7125
:10177400236820465B689847E3681C68F4E700BF69
:101784007405002010B588B00023CDE9023304931A
:10179400CDE900331E4B1F4A05931F4B06929B1A3B
:1017A4009B08079302AA6B4643F2274141F26E005D
:1017B40001F00FFFB0B905A902A801F003FF174B10
:1017C4005B88022B04460AD91548164B1649C01AE1
:1017D400C0080004224640F00300FFF73FFF204604
:1017E40008B010BD0A2810D105A902A801F0E6FE30
:1017F4000A4B5B88022B0446F1D90948094B0B4973
:10180400C01AC00800042246E5E70324E7E700BF46
:101814006E102734EC0000206801002084000020B2
:10182400E8AB0000C0AB0000E5B5000016B6000050
:1018340010B58368D3F854339B07044605D50022BA
:101844001146BDE8104004F093BAFFF79BFF30B98E
:10185400044A08212046BDE8104002F0D5BF024AE0
:101864000221F7E7B6B20000CEB2000000B589B09D
:101874000023CDE905330793CDE9013305AA01AB74
:1018840043F2274141F26E0001F0A3FE90B9CDE985
:10189400030003A905A801F04BFE40B90F48104A04
:1018A4000499121A08F08FFC05A801F065FE09B02E
:1018B4005DF804FB0A280FD10A4B5B88012B09D978
:1018C40009480A4B0A49C01AC008000440F0020043
:1018D400FFF7C0FE0520EAE70320E8E7EC0000205C
:1018E4006801002084000020E8AB0000C0AB0000C9
:1018F400C0B5000010B58368D3F854339B07044681
:1019040005D500221146BDE8104004F031BAFFF7B6
:10191400ADFF30B9044A08212046BDE8104002F06A
:1019240073BF024A0221F7E77AB2000092B20000C4
:10193400037A052B10B50C460FD0437A23B1084A1D
:101944000849204605F024F80749204605F020F808
:101954002046BDE8104005F009B8002AF8D0F3E7A6
:10196400CBB80000D0CD00003CC90000F0B5C3885E
:1019740085B004460D4633B1284A00922849294AC5
:10198400284605F005F8217A052945D0637A4BB13C
:10199400A088FFF71BFB244B244953F8202028463A
:1019A40004F0F6FF224A23681168B3FBF1F1214BDE
:1019B4001F68B1FBF7F34FF461664FF47A70B3FB21
:1019C400F6F206FB123607FB13134FF03C0C00FB38
:1019D40003F1B6FBFCF3B1FBF7FE0CFB136607FB4C
:1019E4001E11009641432846B1FBF7F1CDE901E110
:1019F400114904F0CDFF227A104BA08853F82260DD
:101A04000021FFF7C1FA0E4903463246284605B0C5
:101A1400BDE8F04004F0BCBF05B0F0BDCBB8000099
:101A2400D8B80000D0B8000098B80000D0CD0000AD
:101A3400340A0020300A0020F0B8000018B9000071
:101A44000CB900002DE9F04385B01F460C9D00231E
:101A540006460C46904695F80C902B73294638465A
:101A6400FFF784FFB8F1060F09D8DFE808F0041285
:101A7400181F283340003146284604F089FF00220D
:101A840029463846FFF754FF85F80C9005B0BDE8A9
:101A9400F08322683146284604F07AFFEFE7D4E960
:101AA40000233146284604F073FFE8E7A368009357
:101AB4003146D4E90023284604F06AFFDFE7E368EF
:101AC4000193A36800933146D4E90023284604F027
:101AD4005FFFD4E723690293E3680193A36800934B
:101AE4003146D4E90023284604F052FFC7E763696E
:101AF400039323690293E3680193A3680093314637
:101B0400D4E90023284604F043FFB8E708292DE967
:101B1400F84F80460E4617461C463AD8002593F8DF
:101B24000C901D7319461046FFF720FFDFF884A0C0
:101B3400DFF884B0AE422ED918F805205946204665
:101B440004F026FF0135082DF4D11849DFF86CB0F4
:101B5400204604F01DFF4FF0000A564520D918F81E
:101B64000A507E2D03D8284608F09BF800B92E258C
:101B74002A465946204604F00BFF0AF1010ABAF13D
:101B8400080FEAD1012221463846FFF7D1FE84F836
:101B94000C90BDE8F88F5146204604F0F9FED1E7D9
:101BA4000349204604F0F4FEE7E700BFC6B800008E
:101BB400C4B80000C2B80000BCB80000C8B8000037
:101BC400084A10B50123084C13600021A04204D830
:101BD40001B11360054B186010BD40085B00012182
:101BE400F4E700BF340A002040420F00300A00200E
:101BF4000C4A136813F0010311D111685360C1F347
:101C0400072118468B4205D105235360BFF34F8F3C
:101C140000207047936010610133D060F2E7062022
:101C2400704700BF90ED00E02DE9F0471B4F1F2ADD
:101C340005468846924699463E682BD9531E03EAC8
:101C440002041FFA89F214430B401C4322D120469C
:101C5400C6F3072600F0BAFBB44210D0BC603B695F
:101C6400DB0701D50134F7E7BAFA8AF2C2F11E02A2
:101C740049EA420242F00102C7F80C803A610020AE
:101C840000F0B4FBB44207D2BFF34F8F00202C7096
:101C9400BDE8F0870720FBE70420F9E790ED00E0BA
:101CA4002DE9F041234F244E07F17F0424F07F04F3
:101CB40004F180039E4286B0B84603D81F494320EE
:101CC40001F08EFE1E4B802221460DF11700FFF716
:101CD400ABFF1C4B05465B88D0B9022B14D91A4BB9
:101CE4001A481B49C01A1B4BC008DF1B000404F12F
:101CF4007F03A6EB080600930297019623468022F1
:101D040040F00300FFF7D7FC284606B0BDE8F08199
:101D1400002BF9D005F062FE0C4C0B4B0E49E41A73
:101D2400E408240403462A4644F00100FFF79FFC1C
:101D3400EAE700BF00E000200000012070B90000C5
:101D440000002917E8000020C0AB0000B0AC000080
:101D5400DCB9000080FF00203CBA000082B00123FF
:101D64008DF807309DF80730114B1860596044F224
:101D7400010188429A6012D044F20201884206D1DD
:101D8400DA60DA6812889A61DA685268DA6172B6DF
:101D94009DF80730002BFBD162B602B070471A6180
:101DA4001A6992685A611A6912689A611A69ECE7A9
:101DB400380A002000B583B002900091019244F2E9
:101DC400010071466A4600F003F803B000BD00004C
:101DD4002DE9F043064685B00F46154672B6FFF767
:101DE400BBFCFFF78BFA0028FBD1DFF8C88044F274
:101DF40001029642B8F802301DD044F20202964223
:101E04003BD15BB1244B25486A682549C01AC008F8
:101E140000042B8840F00100FFF729FC214B1B68CC
:101E2400DB0700D500BE2A463946304605B0BDE87A
:101E3400F043FFF793BF002BF0D0174BD5F8089071
:101E4400164C4846E41AE40805F0C8FD2B680297CE
:101E5400019324046B68009344F0010403464A464A
:101E640011492046FFF727FCB8F80230002BD5D0E3
:101E74000E492046FFF7EEFBD0E7002BCED0064BF1
:101E840006480B49C01AC00800043A4640F0010055
:101E9400FFF7E4FBC2E700BFC0AB0000E8AB000003
:101EA4009CBA0000F0ED00E0B6BA0000DCBA000015
:101EB400F0BA00008400002040684B6898428CBF50
:101EC400002001207047000037B505460C46124833
:101ED40001A901F0A5FDE8B14460057001A90E480F
:101EE40001F0C8FD044628B10C4800F00DFD0020A7
:101EF40003B030BD0A4B5B88012B09D909480A4B52
:101F04000A49C01AC008000440F00200FFF7A2FB0F
:101F14002046EDE70420EBE79C010020B0010020FF
:101F240088000020F0AB0000C0AB000079BC0000CA
:101F340038B5C36804461BB91149872001F050FD28
:101F4400104B1B7813B90025284638BD237E002B7F
:101F5400F9D0A36803B92376D4E903309847A3687A
:101F6400002BF0D0227E02F0FF05002AEBD062683D
:101F7400054813446360214605F0B2FCE4E700BF62
:101F84000BBC00005C0A00200CBB00002DE9F347E9
:101F94000646A94D00F0AAFCA84BED1AED082D0445
:101FA400002840F08E800021304600F0A3FC48B3A6
:101FB400A34C2368002B00F0AD80304600F09FFC5A
:101FC40023685B68C01A20F07F40B0F5960F04D3F5
:101FD4009C494FF4887001F003FD23685B695B88BA
:101FE400032B0AD9236898495869984BC01A80086A
:101FF400000440F00400FFF72DFB2068FFF798FF72
:102004000023236001A99248DFF83482914FDFF85E
:102014003C9201F03FFD45F003050446002C40F0DE
:1020240084808C4F894D864C384605F085FC002809
:1020340000F0EF80D0F8049023685B682268D2B186
:102044002268002A3AD0994538D223681B7E93B17E
:1020540023685B695B88032B09D923687E49586927
:10206400401B8008000440F00400FFF7F3FA2168E5
:10207400384605F035FC384605F04EFC804640698C
:102084004388032B08D9401B800800044A4673493F
:1020940040F00400FFF7E2FAD8F8042070484FF447
:1020A4009603002100F0A6FB002840F099802368E5
:1020B40013B9304600F082FBC4F8008002B0BDE8DA
:1020C400F087684B5B88032B04D9674945F004000B
:1020D400FFF7C0FA5A4A13682BB113685B68126899
:1020E40023F07F4353605B4805F026FC0446002838
:1020F4003FF459AF6368B3F1807F06D22046FFF7FF
:1021040017FF204605F024FCF0E7636823F07F43C3
:102114006360F6E7534B5B88012B7FF673AF53493B
:1021240045F00200FFF796FA6CE72378012B3CD0C8
:102134004BB1022B2FD10024384605F0EDFB0028CB
:102144006FD00476F8E763681A7E22BB01221A7600
:102154003046D3F804A000F0D2FBAAEB0000B0F59F
:10216400350F28BF6268616822BF536823F07F433C
:102174005360384605F0B4FB636858694288032A03
:1021840009D9A0EB0900800800045A68384940F0D6
:102194000400FFF763FA01A92D4801F0A6FC01A988
:1021A4002B4801F077FC044638E7D8F80030616822
:1021B400994208BF0023384608BFC8F8003005F02C
:1021C400D3FB636858694388032BE4D9A0EB090067
:1021D40080080004274940F00400FFF73BFADAE7DF
:1021E4000D2811D14046FFF7A3FED8F81400438808
:1021F400032B7FF619AF401B800800041E4940F0F2
:102204000400FFF727FA0EE70E49C22001F0E8FBAD
:10221400EBE72368002B7FF451AF304600F0DCFA83
:102224004CE7164B01221A700E4B5B88022BB2D975
:1022340013492846D1E700BFF0AB0000C0AB000053
:10224400B80A00200BBC000025BB00007000002071
:102254009C0100200CBB00009DBB0000AEBB000035
:10226400B00100208800002018BB000031BB000032
:1022740066BB00007DBB0000C8BB00005C0A0020F8
:102284008BBB000013B50E4B0E4918680190082350
:1022940058220D4801F0B1FB044668B90B4A0C48BA
:1022A40001A900F0FBF9044630B90121084800F007
:1022B40019FB084B01221A70204602B010BD00BF62
:1022C40008BB0000600A00209C010020911F000050
:1022D400B00100205C0A002070B50C461546064685
:1022E40020B90A4940F2EF1001F07AFB35B94FF4F6
:1022F400F870064901F074FB072070BD621E336854
:1023040054425441DD609C600020F6E70BBC0000A1
:1023140070B50D461646044620B90E4940F2FF102A
:1023240001F05EFBB5F5350F10D2237E83B926612B
:10233400094800F0E4FAA3682844606003B1A5608A
:1023440021460020BDE87040FFF7BEBD072070BDE8
:102354000020FCE70BBC0000B001002010B50446CF
:1023640020B9064940F21A2001F03AFB00232376F3
:1023740021460120BDE81040FFF7A6BD0BBC0000BC
:10238400014800F0BCBA00BFB001002072B6024A96
:102394001368013313607047BC0A0020034A1368B2
:1023A400013B136003B962B6704700BFBC0A00204A
:1023B400EFF30583C3F308032BB9EFF31480C04391
:1023C40000F00100704701207047000008B5FFF7D6
:1023D400EFFF012803D00449432001F001FBBDE8CD
:1023E4000840FFF7D3BF00BFA4BC000008B5FFF747
:1023F400DFFF012803D00449512001F0F1FABDE8C0
:102404000840FFF7CBBF00BFA4BC00008368D3F82B
:1024140054339B0703D50022114603F0A9BCBFF334
:102424004F8F0549054BCA6802F4E0621343CB6041
:10243400BFF34F8F00BFFDE700ED00E00400FA0595
:1024440070B58368D3F85443C4F3400415462CB1E3
:1024540000221146BDE8704003F08ABC0139274BC5
:1024640001295B8819D051B102292AD0012B43D903
:102474002348244B2449C01AC008000407E0012B58
:102484003AD91F481F4B2149C01AC008000440F024
:102494000200BDE87040FFF7DDB8012B2CD92146BE
:1024A4000A22686807F039FE164A154B18499B1A28
:1024B400DB081B040246BDE8704043F00200FFF74E
:1024C400CDB8012B18D921460A22686807F025FEE9
:1024D400214606460A22A868094C07F01EFE094B4D
:1024E4000C49E41AE40824040346324644F002008A
:1024F400BDE87040FFF7BBB870BD00BF840000208A
:10250400E8AB0000C0AB00005FBE000015BE0000D9
:102514002ABE000043BE000070B58368D3F854435C
:10252400C4F3400415462CB100221146BDE87040A6
:1025340003F01EBC0139264B01295B8819D051B127
:10254400022929D0002B41D02248234B2349C01A09
:10255400C008000407E0002B38D01E481E4B204959
:10256400C01AC008000440F00100BDE87040FFF745
:1025740071B85BB321460A22686807F0CEFD164A9B
:10258400144B18499B1ADB081B040246BDE8704033
:1025940043F00100FFF762B8C3B121460A2268681C
:1025A40007F0BBFD214606460A22A868094C07F03D
:1025B400B4FD094B0C49E41AE408240403463246EA
:1025C40044F00100BDE87040FFF751B870BD00BF92
:1025D40084000020E8AB0000C0AB0000E7BD0000B1
:1025E400A3BD0000B6BD0000CDBD00001FB58368CB
:1025F400D3F854339B0706D50022114605B05DF885
:1026040004EB03F0B5BB064B064A0093D21ACDE99E
:1026140001220821044A02F0F7F805B05DF804FB32
:102624000000000028F000000BBD00008368D3F810
:1026340054339B0703D50022114603F099BB024A89
:1026440045210320FFF7B6BB40BD000070B50C4622
:102654001646054618B90549DF2001F0C1F92B6873
:10266400C3F844430EB1C3F8044370BDD5C00000A1
:1026740037B50C46054618B90749F02001F0B0F902
:102684002B68185928B100221A511B590193019B38
:10269400012003B030BD00BFD5C000002DE9F843D0
:1026A4000E461446054618B93849552001F098F9E4
:1026B4001EB93649562001F093F91CB93349572005
:1026C40001F08EF96B79324A324F42F8234007EB1E
:1026D400C303DFF8E4801B7983B1B8F80230012B1F
:1026E40009D92D482D4B2E49C01AC008000440F0CA
:1026F4000200FEF7AFFF0820BDE8F8833488D5F860
:102704000090B4F5805F04D326494FF4BA7001F009
:1027140067F9C9F80845B67895F90440072E03D936
:1027240021496B2001F05CF9002CB8BF1F4B2049F4
:10273400ACBF04F1604404F00F044FEA4616F6B24D
:10274400AABF04F561441E5584F8006395F904306A
:102754000122580903F01F0302FA03F341F8203061
:102764006B7907EBC30147F83350B8F802300A71AC
:10277400022B09D90848094B0E49C01AC0080004A5
:1027840040F00300FEF766FF0020B5E7D5C0000067
:10279400C80A0020C00A0020F0AB0000C0AB000053
:1027A400D6BF0000F8BF000025C0000014ED00E013
:1027B40000E100E054C000008800002010B5044689
:1027C40018B90449872001F00BF9236801221A6023
:1027D40010BD00BFD5C0000010B5044618B90449A7
:1027E4008D2001F0FDF8236801225A6010BD00BF5E
:1027F400D5C000002DE9F341884614461E4607461D
:1028040018B93149AC2001F0EBF808F150029200FC
:102814003B6892B24FF4803505FA08F50021C3F8FD
:102824000853C3F84853995003EB88089A58019207
:1028340024F07F44019AD8F84025C8F84045D3F8DD
:102844000435D31A23F07F43012B13D11F4B5B882C
:10285400032B09D91E481F4B1F49C01AC008000486
:1028640040F00400FEF7F6FE1C4B4FF4046043F006
:10287400010398473968C1F84453D1F80435E01A84
:1028840020F07F4226F07F46000248BF42F07F429C
:102894007642964212DA022A10DC0C4A5288032A43
:1028A4000AD90C4A0A480E49801AC0080004224674
:1028B40040F00400FEF7DBFE0D2002E0C1F80453F3
:1028C400002002B0BDE8F081D5C0000088000020DF
:1028D400F0AB0000C0AB000066C00000D0BF000039
:1028E40097C000000A460221FFF7B0BE4FF4827180
:1028F400FFF7BEBE5031890089B2FFF7B9BE036845
:10290400D3F804057047000090F9043001215A09F6
:1029140003F01F0301FA03F34032024941F8223065
:10292400704700BF00E100E0024B034A1B681068D7
:10293400184700BFC80A0020C00A002070B5064D21
:102944000646002455F8043B0BB130469847013441
:10295400042CF7D170BD00BFD80A0020033080B228
:1029640040F2FD33984230B51FD8124B1A783AB969
:102974001C895D892C440444A4B2B4F5806F0AD345
:102984001A7DA2B99A8BDC8B2244024492B2B2F52E
:10299400806F0CD201220A801446142202FB0433F5
:1029A4005A8910445881002030BD0920FCE70720D3
:1029B400FAE700BF0C0B00200B4A0C4B5188142083
:1029C40000FB0131CB6833B904204968107001223F
:1029D400074804F0CDBA05230649137002238B80FF
:1029E400012200230968F3E7F00A00200C0B002001
:1029F4005C000020C40B002007B5002305490093A8
:102A0400054A09680548082304F0F2F903B05DF8A3
:102A140004FB00BFC40B00204CC100005C0000207C
:102A240007B50023009301460823034A034804F032
:102A3400DFF903B05DF804FB44C100005C00002032
:102A440013B500230C46009301460423074A0848A3
:102A540004F0CEF938B9074B142202FB04340123E5
:102A6400237402B010BD0E20FBE700BF40C100007C
:102A74005C0000200C0B002037B50A480A4B426862
:102A84009C88196853880325033305709BB2002082
:102A940000909B0001EB8401044804F0A9F903B001
:102AA40030BD00BFF00A0020C40B00205C000020F1
:102AB40010B50146044800F0B3FF1C22044600216F
:102AC40007F0AAFB204610BDB801002068B10268D7
:102AD400084B9A4209D14068074B984207D001330A
:102AE40098420CBF01200320704703207047002048
:102AF400704700BFDEC0ADDEFE011EF14388033324
:102B040000EB8303994209D382884FF6FF739A42FC
:102B140006D00088B0FA80F0400970470220704760
:102B2400012070472DE9F8430223DFF860800B8011
:102B34000D46174600F5805600F108044FF00109D0
:102B4400B4420FD2236801330CD031462046FFF73C
:102B5400D5FF48B10FB187F8009002280BD14FF48C
:102B640080632B80BDE8F883A368D8F800209342E3
:102B740001D9C8F800302B886288033313442B80B2
:102B84006388033304EB8304DAE700BF040B0020FB
:102B9400154A142303FB002070B50B6844680D46E6
:102BA40004F58056ABB15C88033403EB8404B4426F
:102BB4000DD2236801330AD031462046FFF79EFF29
:102BC40001280BD010F0FF0F05D00228EFD1002010
:102BD40003E00834EBE72C60012070BD6388033305
:102BE40004EB8304E3E700BF0C0B0020436873B5D8
:102BF40004460D466BB3244AD1688B4229D312692B
:102C0400934226D813F0030223D12049008909896D
:102C140088421ED12068996888421AD11C494868A4
:102C2400834203D900F5805083420ED38A699342CC
:102C34000DD902F58052934209D201232B80002042
:102C4400B0FA80F0400902B070BD1346F6E70A20DE
:102C5400F6E700232B801E46019601A92888FFF77A
:102C640097FF30B92B8801339BB2012B2B80F3D90A
:102C7400E9E7019B226899689142EED16360034BB6
:102C84001B892381DFE700BF5C000020F00A0020DD
:102C94000C0B00202DE9F8431C461C4B1B78064600
:102CA4000F4615466BB372B36CB3DFF868804FF010
:102CB4001409A388012B01D90A2020E009FB03F39E
:102CC40018F803302BB92146A088FFF761FF20B91B
:102CD4002060A3880133A380EBE723681EB19988A1
:102CE40032889142EFD11FB119883A889142EAD1D2
:102CF4009A68C5E90023064B1B892B810020BDE897
:102D0400F8830220FBE70520F9E700BFE80A00206A
:102D1400F00A00200C0B002008B5074B191D588839
:102D2400FFF736FF18B1BDE80840FFF7A5BEBDE8C0
:102D34000840FFF741BE00BFF00A00202DE9F04F24
:102D4400A34FDFF8B49289B00646B8463B6853B93E
:102D54004946A04800F09EFE386020B99E4940F2E2
:102D6400825000F03DFED8F8005029784B1E052B08
:102D740000F2FA80DFE813F006005E005E00EE0069
:102D8400EE005E0126B1954B00225A600124ECE06E
:102D94002B79032B1DD8DFE803F015022A3590495F
:102DA4000B78022B084619D00B7D022B4FF0010340
:102DB40016D114225343C2180020C8545068FFF798
:102DC4002FFE03E001232B71FFF716FE002800F00D
:102DD400BC80824B00225A600E24C6E00023E8E740
:102DE4007E4A13700023536041F61D54BDE07D49B3
:102DF4007D48002302222B718A800122096804F095
:102E0400B7F8E3E7774C00262E712068744DFFF77E
:102E140007FE764BD4F800C05A8814235343EA18AB
:102E2400EE5451682160A188C2F804C011810222C5
:102E3400A280CBE7B5F814A0AA7DDFF8A4B1AEB1A7
:102E4400022AEB8806D9142101FB0AB1DA1C08898D
:102E540002440A81142202FB0ABAC3F57F43BAF87A
:102E64000A20FD331344AAF80A308FE7142303FB26
:102E74000AB318895C6804EB8004062A68D8DFE882
:102E840002F0274D35431D59040041F61D54AA7D17
:102E9400EB88022A06D9142101FB0AB1DA1C08893D
:102EA40002440A81142202FB0ABAC3F57F43BAF82A
:102EB4000A20FD331344AAF80A3056E04C484D4921
:102EC40000234360AB690360FFF790FE002871D0D4
:102ED4000223AB75002300930423EA1821464248D9
:102EE40003F086FF002830D00E24D0E72B69002B96
:102EF40014BF03230123AB750023009305F10C02D7
:102F0400042304F10801EAE70123AB750022EB88EE
:102F140000929B002A6904F10C01E0E703290CBF2D
:102F240005230623AB7500230093042305F108024F
:102F3400E118D4E70623AB752E4B19882C4B58683F
:102F4400FFF77EFD04460028A1D109B0BDE8F08F4B
:102F54000F249CE7002E7FF419AF2B79012B4DD061
:102F6400E3B1022B3FF440AF0F241422002103A845
:102F740007F052F941F61D539C4208BF0024D8F8CB
:102F8400003004941A78023A042A00F20781DFE838
:102F940012F0E800F400200128012F0102232B7114
:102FA4000DF10A01EB68039303A8CDE90466FFF76A
:102FB4001DFE08B90A24D8E70498BDF80A108388CE
:102FC400EB8003882B81FFF73BFD044629E000BF1B
:102FD400080B0020B801002054C10000E80A0020BA
:102FE4000C0B0020C40B00205C000020F00A002021
:102FF400CC0A0020CC0B0020000B0020DFF810A22C
:1030040003AA53463146A81DFFF744FE044658B9A7
:10301400BAF804100498FFF713FD04460A2C3FF491
:10302400E3AE002CA1D190E708223146504607F0C8
:10303400F3F8F3E7002E7FF4A9AE6F4B1A7BAAB125
:103044001E731A78013A062A8ED801A151F822F08B
:10305400FB300000213100003F3100004531000009
:103064006D2F00004B3100005D3100001A78072AF3
:10307400E7D801A151F822F09D300000473000004C
:1030840047300000C3300000D7300000F7300000A4
:10309400F7300000BF3000001A89584901321A8104
:1030A40000225A801A730A78B2FA82F252099A728A
:1030B4000A7DB2FA82F25209DA72012207E050491B
:1030C40058688A884088033202448A8002221A702F
:1030D400B7E74A4C5A884A49142505FB0242086856
:1030E400546850608888108102228A800C6006220D
:1030F400EDE70722EBE79A7A32B9DA7A8AB9002245
:103104001A705A805A606FE63C4900229A72CA6863
:10311400002AF2D1097C0029EFD05A80FFF7FCFD88
:1031240053E70022DA72354A116A0029E7D192F88E
:103134002420002AE3D00122EFE7FFF79DFC44E7B7
:10314400FFF73AFC41E72D4A5B88142101FB032376
:103154005868FFF765FC38E700225A60FFF74CFC1B
:1031640033E701228DF80C201A89ADF818209A88CB
:10317400DB68ADF81A20059310E002228DF80C20CC
:103184001A89ADF818209A88ADF81A20DA689B7D60
:1031940005929A1F534253418DF81C3003A8FFF740
:1031A400CDFB002349461748C8F8003000F09DFCC9
:1031B400154B1B6823B9154940F27A2000F010FC26
:1031C4000121114800F0EDFC00283FF4BEAE0026BA
:1031D400BCE503228DF80C20DA88ADF818201A8992
:1031E400C6E70422DB888DF80C20ADF81830D5E74B
:1031F40005238DF80C30D1E7F00A00200C0B0020D9
:10320400C40B0020B8010020C00B002054C10000F2
:10321400D00B00204068FFF791BD000008B50121E4
:10322400044800F0A8FC18B9BDE80840FFF786BDC3
:1032340008BD00BFC00B00202DE9F3419846354B73
:103244001B7806460D46002B5BD000295BD009880D
:103254004FF6FF73994258D06B88002B55D06B689A
:103264009B0754D14AB92F890DF102013846FFF763
:1032740075FB30B102B0BDE8F08113885788ADF812
:10328400023001A8FFF714FC044658B9BDF8023017
:10329400214A142101FB032358890338C01B588198
:1032A4000820E7E700238375BDF8023083826B684A
:1032B400036180F800800121184800F067FC2B8826
:1032C4002381B8F1030F6B88A38004BF0423A37583
:1032D4004FF0000508BF3368E06008BFA361E780D2
:1032E400658101A90E4800F0C5FB36B1E36833607F
:1032F4000C4B75601B89B5723381FFF78FFF00207B
:10330400B8E70220B6E70520B4E70420B2E70320BB
:10331400B0E700BFE80A00200C0B0020040B0020DB
:10332400B8010020F00A00202DE9F04F14228BB0E0
:1033340000210DEB020006F06FFF744A137803F0CE
:10334400FF01CDE901123BB105A8FFF7F7FA002709
:1033540038460BB0BDE8F08F029B181D00F02CFC22
:103364000028F4D14FF010234FF080525B691169AB
:103374005269674C581C08BF02FB01F32361002209
:10338400A3F540536349E360204603F0F5FC03943E
:1033940007460028DCD11C238C225F495F48DFF8F4
:1033A4008891DFF8888100F028FB3D46BA464FF04B
:1033B400030B3C46039BDE68564430463146FFF718
:1033C40085FB01284DD042B2002A36D0032822D1F1
:1033D40006F580520868013040F08A8004318A4240
:1033E400F8D1D9F800203AB902220123C9F80060C3
:1033F400A9F8042001930CE014226243022008EB94
:10340400020108F80200464A4E60548001340881E3
:10341400A4B245F001050AF5805ABAF5405FC9D156
:10342400BBF1010F98BF0025EDB2022D03D0062D8C
:1034340035D0002D3CD10B278AE71421614308EBDA
:10344400010008F8012001F11002083146604244ED
:1034540041443046FFF766FB45F002050134A4B24F
:10346400D9E7019B63B11422624308EB02010220F5
:1034740008F802000134D9F800204A600881A4B297
:1034840000222849C9F800603046FFF74BFBB9F821
:103494000420022A0CBF042208221543BBE7029A27
:1034A4000123137005A800235360FFF747FA4FE781
:1034B40004A8FFF7FDFAC8B10123013D03700A2DEA
:1034C40009D8DFE805F006080608070807080F1101
:1034D4000F000023037104A9104800F0CBFAFFF792
:1034E4009DFE35E70323F5E70223F3E708272FE7DB
:1034F4000BF1FF321FFA82FB1422624308EB020134
:103504004E60032108F80210A8E700BFE80A002073
:103514005C00002024D40000340B0020B8010020FB
:10352400F00A0020C80B0020C40B00200C0B002064
:1035340073B50D460446C8B1C1B10DF10601FFF7DC
:1035440055FBA8B10B4BBDF806006668142202FBBC
:10355400003001210C3000F019FB63682E600C333D
:103564006B600123A372002002B070BD0520FBE74D
:103574000A20F9E70C0B002013B50446A8B10DF19D
:103584000601FFF733FB90B10B4ABDF80630142156
:1035940001FB0323DA6862B1A27A52B1DA6800202F
:1035A400013ADA60A07202B010BD0520FBE70A20E0
:1035B400F9E70620F7E700BF0C0B002002230022E6
:1035C400FFF73ABE18B103230022FFF735BE0520EA
:1035D400704707B5ADF80600ADF804100DF106000C
:1035E40001A9FFF757FB03B05DF804FB0B0710B507
:1035F400044607D506F01EFB20B12046BDE8104066
:1036040006F054BB204610BD2DE9F04F87B08A4622
:1036140015460293064618B9012007B0BDE8F08F9D
:103624000029F9D0029B002B00F0118102F0040361
:103634000C460493B046294618F8010BFFF7D6FF51
:10364400C7B23F2F22D00ADCCFB12A2F36D0294669
:1036540014F8010BFFF7CAFF87421FD0DCE75B2F8A
:103664007CD05C2FF3D1EB07F1D429467078FFF7B7
:10367400BDFFC7B2002FEAD006F10208E7E7E9066A
:10368400207838D52F2836D10020C6E72378002BA0
:10369400C2D02F2B04D1AA07BED401344646C9E7B1
:1036A4002E2BFAD1049B002BF7D05445B4D0AB0792
:1036B400F3D514F8013C2F2BEFD1ADE770782946F0
:1036C400FFF794FFC1B22A2919D023782E2B09D1F0
:1036D400049B3BB154459FD0AF0703D514F8013C7C
:1036E4002F2B99D079B9AE07CED5ED06CCD42F21A6
:1036F400204606F0B1FC003018BF01208DE72946B2
:1037040018F8010FDCE72F2901D1A8071FD4029B69
:1037140025F004095F1E05F0020AA34629469BF81A
:103724000000FFF763FFC6B20134002E3FF474AF0C
:103734003B464A4659464046FFF766FF01287FF458
:103744006CAF2F2EE9D1BAF1000FE6D064E7204622
:1037540006F082FC04460028A0D15DE7207800280A
:103764003FF45AAF2F2802D1A9073FF555AF294698
:10377400FFF73CFF8346B8F1000F3FF44DAF737879
:10378400212B01D05E2B25D1023601230122019386
:1037940005EA02034FF0000903933746294617F858
:1037A400010B0592FFF722FFC3B25D2B059A14D1DA
:1037B40012BB019B4B453FF42FAF002F3FF42CAFBE
:1037C4007A1C04D123785B2B7FF426AF474601345F
:1037D400B84663E746460023D8E72F2BF2D05C2B8C
:1037E40007D1039A42B929467078FFF7FFFEB71C48
:1037F400C3B2002B3FF410AF3A782D2A21D12946C9
:1038040078780593FFF7F2FEC0B2059BC8B15D2836
:1038140017D05C2807F102060BD1039A4AB929464E
:10382400B878FFF7E3FEC0B200283FF4F5AE059B7D
:10383400FE1C9B4503DB8345D8BF4FF001090022E2
:10384400ABE73E469B4508BF4FF00109F7E703206D
:10385400E3E64023FFF7D8BE1EF0040F1CBFEFF3CE
:1038640009800AE0EFF308800549064A884201D836
:10387400904202D88D464FF00000034B18470000D9
:103884000000012000E00020B5380000BFF34F8F96
:103894000549064BCA6802F4E0621343CB60BFF3E8
:1038A4004F8F00BFFDE700BF00ED00E00400FA0504
:1038B4002DE9F74F0646FDF74FFFFDF71FFD0028E2
:1038C400FBD1394C394A3A4B3A4D9F6A6B88A41A5A
:1038D400E408240444F00104002E5ED0D3B1B2699C
:1038E40035492046FDF7BAFE6B889BB1F368019316
:1038F400B36800933149D6E900232046FDF7CDFE95
:103904006B883BB1F36900932D49D6E90423204623
:10391400FDF7B7FE264BDB6A980705D56B881BB10C
:1039240028492046FDF796FEDFF8ACA0DFF8ACB0DE
:103934004FF000084FF0010909FA08F33B4208D0A0
:103944005AF828202AB16B881BB159462046FDF746
:1039540085FE08F10108B8F11A0FEDD1390607D533
:103964006B882BB1124B18495A6B2046FDF776FE33
:103974003A0407D56B882BB10D4B14499A6B20463A
:10398400FDF76CFE124B1B68DB0700D500BE30460A
:10399400FFF77CFF03B0BDE8F08F002BBAD00D49D0
:1039A4002046FDF757FEB5E768AC0000C0AB000049
:1039B40000ED00E0C4000020BBC10000D0C1000045
:1039C40005C2000060C20000AFC20000CFC2000008
:1039D400F0ED00E02DC20000ECC20000A4C2000023
:1039E40007B5ADF8000001916A46002144F20200D7
:1039F400FEF7EEF903B05DF804FB10B561B1B2FB5C
:103A0400F3F403FB1424A4B244B9C0E900148460A1
:103A14008281C381204610BD0E20FCE70920FAE70D
:103A240037B550E8013F9DB2C48925448489A54235
:103A340028BF2D1B0489A54202BFBFF32F8F00228C
:103A440007E0C5EA030540E80154002CE9D14FF032
:103A540001028DF803200193019B9DF803200B6064
:103A640002F0FF0322B10B880068184403B030BD94
:103A74001846FBE70A884B889A4209D150E8012F7F
:103A8400C2EA024240E80123002BF7D1012070472B
:103A94000020704737B550E8023F1FFAA3F5C488E9
:103AA400A54202BFBFF32F8F00220DE0C489254435
:103AB4008489A54228BF2D1BC3EA054540E802546A
:103AC400002CE8D14FF001028DF803200193019BF3
:103AD4009DF803200B6002F0FF0322B14B880068BD
:103AE400184403B030BD1846FBE70A884B889A4255
:103AF40009D150E8022FC2EA224240E80223002BF7
:103B0400F7D1012070470020704750E8002F0B4682
:103B140040E8003C9CF0000FF7D11046704750E895
:103B2400002F42EA010340E8003C9CF0000FF6D16C
:103B34001046704750E8003F43EA010240E8002C79
:103B44009CF0000FF6D11046704750E8002F02EAAF
:103B5400010340E8003C9CF0000FF6D1104670478A
:103B640050E8003F03EA010240E8002C9CF0000FFB
:103B7400F6D11046704750E8002F02EB010340E8ED
:103B8400003C9CF0000FF6D11046704750E8003F0F
:103B940003EB010240E8002C9CF0000FF6D1104624
:103BA400704750E8003FA3EB010240E8002C9CF072
:103BB400000FF6D1104670470121FFF7B0BF012175
:103BC400FFF7B8BF0021FFF7C0BF0021FFF7C8BF50
:103BD4002DE9F0478368D3F85443C4F3400488B014
:103BE400074634B10022114608B0BDE8F04702F0A0
:103BF400BFB8012906D91E4A022108B0BDE8F04722
:103C040000F002BE1B4D1C4EDFF870A04FF064089C
:103C1400A146761B1C23B6FBF3F6A64205F11C0550
:103C240002D108B0BDE8F08755F81C0C55E906230D
:103C3400017900689A1A1B1ADBB2039308FB03F399
:103C4400B3FBF2F3CDE9019335F8043C0093CDE9DD
:103C5400061255F8083C11FB08F13846B1FBF2F1A5
:103C6400CDE904215246082100F0CEFD0134D4E709
:103C74009EC8000008AD00005CAD0000B1C80000A3
:103C840010B50446002834D003681BB91A49FF2034
:103C9400FFF7A6FE636823B917494FF48070FFF756
:103CA4009FFEA36823B9144940F20110FFF798FE60
:103CB400E36823B910494FF48170FFF791FE238B19
:103CC40023B90D4940F20310FFF78AFED4E901231A
:103CD40021689B1ADBB20A60013BDBB2FF2B22682E
:103CE40002D10020107110BD1168481C10600B70C7
:103CF400F2E70E20F7E700BF3CC8000038B50446E1
:103D040020B911494FF49270FFF76AFE0020FEF7C4
:103D14005DFB226863681168994213D9481E1060DC
:103D240011F8015CE368218B01FB0535A368117967
:103D34001B1ADBB2994200D213710020FEF756FB26
:103D4400284638BD0025F8E73CC8000038B50C46C5
:103D5400054620B90E4940F24710FFF741FE24B949
:103D64000B494FF4A470FFF73BFE0020FEF72EFB37
:103D74002A681368591C1160EA68A41A2A8BB4FBD8
:103D8400F2F41C700020BDE83840FEF72FBB00BFE2
:103D94003CC80000436810B59C6860680368012152
:103DA4009B689847A36810B903221A7010BD0422B7
:103DB400FBE7000038B505460C4621B9064940F634
:103DC4002F20FFF70DFE35B1A268B2F8543343F04B
:103DD4002003A2F8543338BDC6C9000038B50D46D7
:103DE400044620B9084940F62320FFF7F9FD25B918
:103DF400054940F62420FFF7F3FD29682068BDE853
:103E0400384006F05EBA00BFC6C900002DE9F84389
:103E1400089C1E460F46E1B9184D194C641BE40872
:103E2400944204D9174800EB8208BC4201D1002314
:103E34000AE06B68D8F80000196806F042FAA9464F
:103E4400083520B9D9F804303360BDE8F883013768
:103E5400EBE70028EBD00178436839B121461046DE
:103E640098472368002BE2D03460EEE712019918DA
:103E74009B58002BDBD03160E7E700BFC0AA0000ED
:103E840050AB00000000002010B5044620B90949D9
:103E94004FF4EA70FFF7A4FD236923B905494FF4F1
:103EA400EA70FFF79DFD2069034A0449BDE810400C
:103EB40002F06EBDC6C9000022CA0000D0CD0000C9
:103EC40010B5044620B909494FF4ED70FFF788FD99
:103ED400236923B905494FF4ED70FFF781FD20698B
:103EE400034A0449BDE8104002F052BDC6C90000AF
:103EF40026CA0000D0CD000010B5044620B90949F7
:103F04004FF4F070FFF76CFD236923B905494FF4B2
:103F1400F070FFF765FD2069034A0449BDE81040CD
:103F240002F036BDC6C9000029CA0000D0CD000089
:103F340008B106F0EDB9704710B50446FFF7F8FF75
:103F440023462044834201D1002010BD13F8012BE5
:103F54003F2A01D02A2AF5D10120F6E738B5836833
:103F6400054600681C8DFFF7E3FFAB68DA8B20443D
:103F7400B0FBF2F302FB1300B0FA80F0400938BD45
:103F840010B584680068FFF7D3FF238DE28B84F8B3
:103F94002000C0B20344B3FBF2F102FB113301333E
:103FA400A382E38C013118442183B0FBF2F3591C42
:103FB40002FB130301336183E38204F1140010BD97
:103FC40038B5836805460068DC8CFFF7B1FFAB6841
:103FD400DA8B2044B0FBF2F302FB1300B0FA80F05A
:103FE400400938BD30B50368D3F84C5385B0044656
:103FF400EDB100230A2201A9284603F083F92368BE
:10400400029AC3F84C2300210A2201A806F004F9FD
:1040140000230A2201A9284603F060F9284603F088
:1040240005F92368D3F84C0318B9C3F8480305B05D
:1040340030BD01A900230A2203F064F9206800239B
:104044000A2201A9D0F84C03019303F047F9EEE7E3
:1040540007B58368C9B193F822208A4212D00D4A69
:10406400009233228DF8042001F12F028DF80520EF
:104074006D22ADF8062083F822106A4606490069CD
:1040840002F086FC03B05DF804FB83F82210034AB7
:10409400F4E700BF1B5B313BD0CD00002CCA00000D
:1040A400836807B593F823208A4214D045F61B325F
:1040B400ADF8002034228DF8022001F12F028DF892
:1040C40003206D22ADF8042083F823106A460349C7
:1040D400006902F05DFC03B05DF804FBD0CD000084
:1040E400014902F055BC00BF22E400000A46006802
:1040F400014902F04DBC00BF65CA000009B1FFF7D9
:10410400F5BF70472DE9F047002506460F461446D3
:104114000560207840B105F0BAFDA0B1002304F891
:10412400013B33680B2BF4D933680C2B04D9584961
:1041340040F22A50FFF754FC3368002247F823204A
:104144002846BDE8F08733685A1C326047F823409C
:10415400054694F80080B8F1000FE2D0002D40F03D
:104164008280B8F1270F06D0B8F15C0F00F083808D
:10417400B8F1220F6FD12046FFF7DAFE611C024628
:10418400204605F017FE4546E3E72046FFF7D0FE3C
:10419400611C0246204605F00DFE0025D9E73028B3
:1041A40025D102234FF00008E05CA0F13001C9B230
:1041B40007295FFA83F917D8013341EAC801052BAF
:1041C4005FFA81F8F0D199462046FFF7B1FE09F174
:1041D400FF3AA244821CA2EB09025146204605F094
:1041E400E9FD04F8018BB4E7B9F1020FECD17828AA
:1041F40037D102214FF00008635CA3F13002D2B240
:10420400092AC8B214D842EA081303295FFA83F8CA
:104214000CD14FF0040A2046FFF78AFE0AF1FF3959
:10422400A144821CA2EB0A024946D7E70321E3E733
:10423400A3F16102052A03D8573B43EA0813E4E7D4
:10424400A3F14102052A01D8373BF6E7022808D03A
:104254004FF0030ADFE7404605F019FD00287FF41C
:1042640060AF013475E7A8458FD0B8F15C0FF8D181
:104274006078854293D12046FFF75AFE04F1010885
:1042840002464146204605F095FD444661E700BFDD
:10429400C6C9000070B50D461646044620B90B4940
:1042A40040F22310FFF79CFB636823B907494FF4DE
:1042B4009270FFF795FB606803681C6929463346D2
:1042C400A4460122BDE87040604700BFC6C9000093
:1042D400F7B505468068424E00244FF4C07221466B
:1042E40000F5D6708DF8034005F096FF3D49286926
:1042F40002F04EFB286902F039FB4FF47A7746F05E
:10430400010601AA0DF103012846FFF7C3FF019B33
:104314005BB94FF6C010B047019A002AF1D17B1E59
:104324009FB2002FEDD10D2035E09DF80330AA682F
:104334001B2B49D092F8AC111B29EDD1522B43D140
:104344001444002384F8AC3192F8AD115B291FD1D9
:1043540002F5D77002251E4610F8011B01353B29D2
:10436400ADB21AD1B5F5C07F20D005F5D67414448A
:10437400002314F8010BD8B9FA2B28BFFA23FA2E1C
:104384009382334628BFFA23138382F8AC0102E0F8
:1043940082F8AC310B2003B0F0BD06EB860301EBD1
:1043A4004303303BB5F5C07F9EB2D5D10C20F2E774
:1043B40003EB8303013500EB4300ADB23038B5F5B0
:1043C400C07F83B2D5D3F1E711190134A4B2092C0B
:1043D40081F8AC31A0D9002382F8AC310420DAE7AB
:1043E40080CA000050CA00002DE9F7430F46144666
:1043F400054600B119B91D49F420FFF7F1FA6B68BD
:104404001B681BB91949F520FFF7EAFADFF85C804D
:10441400002614B903B0BDE8F08368680368224637
:10442400D3F80C90B91901ABC84718B14146FF2025
:10443400FFF7D6FA019B9C4204D241464FF48070A8
:10444400FFF7CEFA019B1E44E41A002BE1D1AB68BE
:104454001A78032ADDD0D3F854239206FBD5B3F897
:1044640054236FF34512A3F85423D2E7C6C90000BE
:104474002DE9F04F054685B090460F46002971D0CE
:104484000024385D05F003FC40BB1FFA88FB05F1EE
:10449400100A3846FFF74CFDAB68DB8B001BA3EB1F
:1044A4000803984207EB04091AD94A46002612F871
:1044B400010B02930192039205F0E9FBDDE901236C
:1044C40020B112F8013C0A2B35D03346A968C88BB9
:1044D40008EB060188422DD90136E8E70134D0E71C
:1044E4004B460026B04219D013F8012B0A2A04EBDC
:1044F400060A1DD1286902F039FA32462E46494689
:104504002846FFF771FF56F8100FFFF7E9FD1FFA71
:1045140088F130460AF10104FFF7F0FD28693919E2
:1045240002F036FA286905B0BDE8F04FFFF7D8BDB0
:104534000136D7E71E46286902F018FA3246494682
:104544002846FFF751FF3444385D05F0A0FB38B925
:104554002869FFF7C5FD59465046FFF7CFFD98E798
:104564000134F1E705B0BDE8F08F00000A4619B147
:104574000249006802F00CBA704700BF6BCA000021
:104584000A4619B10249006802F002BA704700BF36
:104594005FCA000070B50546FFF7F2FC037B028892
:1045A400818801339A42044601D1012915D0012999
:1045B40005F1100604D9013989B23046FFF7D6FF58
:1045C4002388217B8B4209D9013B591A89B2304691
:1045D400FFF7D6FFAB6800221A8570BDC91A0131F6
:1045E40089B23046FFF78AFDF4E7F8B50546FFF7D0
:1045F400C7FC04468788C6882846FFF7AFFC78B115
:104604002869FFF76DFDB74205F110050ED16188E9
:104614002388C91A284689B2BDE8F840FFF7B0BF1D
:104624002846FFF7CDFC0028EAD1ECE7A388E1880F
:10463400C91A89B22846FFF799FF238861888B42FB
:10464400E7D9591A284689B2BDE8F840FFF756BDA4
:104654000A4619B10249006802F09AB9704700BFCE
:1046640059CA000070B50546FFF78AFC43880288E2
:10467400C1889A420446838801D18B4214D099425E
:1046840005F1100604D9C91A89B23046FFF7E0FFD4
:10469400238861888B4208D9591A89B23046FFF7BA
:1046A4006FFFAB68DA8C1A8570BDC91A89B23046BF
:1046B400FFF724FDF5E700002DE9F74F0F461646F6
:1046C4000193044648B9484940F6A220FFF788F907
:1046D400454940F64520FFF783F9A3681BB1636899
:1046E4000BB1236823B9404940F64620FFF778F917
:1046F400E36860685B683D4A9C60036839461D68EE
:104704002346A8470546002850D1636923B9364992
:1047140040F65520FFF764F9606902F085FD05460F
:10472400002843D1A068DFF8D8A0314FDFF8CC804F
:10473400DFF8B4904FF45672C0E9D255294605F01B
:104744006BFDA368B3F8542342F02002A3F854236A
:10475400B3F8542366F38202A3F85423B3F8542322
:1047640042F00802A3F8542301221A70A7EB0A07A7
:10477400204ADA614FEAD70B2E465E451AD1072F3D
:1047840005D91D4B1D480422314605F030FB019B21
:1047940063B19DF83010E068FCF79EFF0028A1BFCC
:1047A400E368DB6801225A71B8BF0425284603B0C8
:1047B400BDE8F08FBAF1000F04D1494640F67120EC
:1047C400FFF70EF9DAF80420126822B9494640F6D8
:1047D4007220FFF705F9DAF80420126848F8042B70
:1047E40001360AF1080AC8E7C6C90000B93D00004D
:1047F40050AB000018005000E13D00000000002014
:10480400C0AA0000FFF7F0BD0CB473B5069D0446C2
:104814000E4625B9224940F65F30FFF7E1F824B986
:104824001F494FF43660FFF7DBF8A3681BB16368D8
:104834000BB1236823B91A4940F66130FFF7D0F869
:1048440007ABA1680193D1F854335B0721D591F8E4
:104854002230B3421DD002222231684605F0B3FC57
:1048640031462046FFF7F4FB01AA2946206902F0ED
:1048740029F99DF800102046FFF7EAFB9DF8011086
:1048840011B12046FFF70CFC02B0BDE8704002B045
:10489400704701AA2946206902F014F9F4E700BF21
:1048A400C6C90000F8B5044616460F4621B9234987
:1048B40040F25360FFF794F8A068C58CAB19B3F5C8
:1048C400C07F3ADA002E38D0038DED1A03F12C01A3
:1048D40033442C33ADB201446A1C184405F06AFA1F
:1048E400A068038D2C3332463946184405F062FA29
:1048F400A0682C30FFF71CFBA268138DD0842C33E6
:10490400134420460E4A0821FFF77EFFA3681A8D40
:1049140016441E852046FFF721FB40B12069FFF7AE
:10492400DFFB55B12046BDE8F840FFF75EBE2046E8
:10493400FFF746FB0028F1D1F3E7F8BDC6C9000034
:10494400D0CD00002DE9F04104468068D0F85433FE
:10495400C28CC3F30008038D5FFA88F7D51A0E469C
:10496400ADB2002F3FD1B2F5BF7F41D83DB103F1C5
:104974002C012D3301442A46184405F01BFAA36880
:104984001A8D1A4482F82C60002F6CD1DA8C013213
:1049940092B2DA84134483F82C80002D6CD0204624
:1049A400FFF7EEFA8288C3889A4204F1100621D1F7
:1049B400A268138D2C33134408212046314AFFF793
:1049C40023FFE91B89B23046FFF7DAFDA268138D95
:1049D400013313852046FFF7C1FAF8B12069BDE819
:1049E400F041FFF77DBBB2F5BF7FC8D9002DC6D11A
:1049F400BDE8F0812046FFF763FAA268138D2C33DB
:104A0400134408211F4A2046FFF7FEFE2046FFF705
:104A140073FA01213046FFF769FBD7E72046FFF719
:104A2400CFFA0028E4D02046FFF7AAFAC188838889
:104A3400013904F11006C91A054689B23046FFF758
:104A440007FE2069FFF74CFBE988AB88C91A30469A
:104A540089B2FFF78BFD29880139304689B2BDE858
:104A6400F041FFF74BBB002D99D1DA8C013292B2A1
:104A7400DA84134483F82C5032460349206901F048
:104A840087FFA3E7D0CD0000C8B80000F0B5826866
:104A940085B000250446CDE90155ADF80C50D2F897
:104AA40050630F46002942D1002E3BD0FFF772FD20
:104AB400A0683B46D0F850030A2201A902F022FC68
:104AC400A068029BC0F85033C58C002B4ED100F572
:104AD400D670FFF72DFAA36830B303F5D67103F14E
:104AE4002C0005F0CCFBA0682C30FFF721FAADF8C0
:104AF4000C00BDF80C30A268AB421385D38402D2FB
:104B04002046FFF7C1F9A3682D4A20462C3308211B
:104B1400FFF77AFE2046FFF721FA002849D02069E2
:104B2400FFF7DEFA05B0F0BD83F82C00DBE7D2F81E
:104B34004C33B342F6D0D2F84833002BF2D0FFF70F
:104B440029FDA368D3F8500338BB03F12C00FFF709
:104B5400EFF985B2A068D0F84833C0F85033CDB12E
:104B640000F12C0100F5D67005F089FBA06801A9BD
:104B740000230A22D0F8500302F0C4FBA068BDF859
:104B84000C2000F12C010A230132D0F8500302F06A
:104B9400B9FBAEE780F8AC51E8E72B460A2201A93D
:104BA40002F0B0FBA368019ABDF80C50C3F850237F
:104BB400DCE72046FFF704FA0028B0D1B2E700BFD3
:104BC400D0CD000038B504468068038DC58CED1A3D
:104BD400ADB2002D43D003F12D012C3301442A46FC
:104BE400184405F0E7F8A268D38C013BD38420462F
:104BF400FFF7C6F98288C3889A421CD1A268138D34
:104C04002C3313440821164A2046FFF7FDFD23697F
:104C140023B9144940F28F40FEF7E2FE54F8100F16
:104C24000F49114A01F0B4FE691E204689B2BDE85D
:104C34003840FFF7A5BC2046FFF742F92046FFF7AE
:104C440023F9A268138D2C3313442046044A082107
:104C5400FFF7DAFD2046BDE83840FFF74DB938BD0F
:104C6400D0CD0000C6C9000030CA0000F0B5C3684A
:104C74005B6891B004460D46002203A9186802F04F
:104C84000DFC002840F08A8085B1039802F017FBE0
:104C9400A268D2F844330133C2F8443303F0070363
:104CA400012B03D00125284611B0F0BD2046FFF7A3
:104CB40067F981880129064605D9013989B204F1C9
:104CC4001000FFF753FC3188012905D9013989B255
:104CD40004F11000FFF754FC2046FFF7D5F82DB17E
:104CE4002F4A02212046FFF78FFDDCE700230C2228
:104CF40004A9039802F006FB069B0793059B0893FF
:104D040001238DF825309DF8103003F00302012AA9
:104D140025D1BDF81050049E0398C3F3C203C5F314
:104D240083158DF82430AA000C230AA902F0EAFAAC
:104D3400C6F39526236900932A4607AB0AA9304691
:104D4400FCF780FE039802F0BAFAE3685B6800227D
:104D540003A9186802F0A2FB0028C7D0A2E7022A20
:104D6400F0D1BDF81250C3F3C203AD098DF824305D
:104D74000C27082D2E4628BF08263B4632460AA992
:104D8400039802F0BFFAAD1B236907AA31460AA8AB
:104D94003744FCF7BBFE002DEBD1D3E7002582E7B7
:104DA40098C9000013B5436801A9002218689C68DB
:104DB40002F074FB014610B92046FFF757FF02B01A
:104DC40010BDF7B547680191BC68A3681E78042E2E
:104DD4000ED001A9386802F0DBFA054650B90198F3
:104DE40002F069FA032E03D129462046FFF73EFF5D
:104DF40003B0F0BDF11E18BF01212046FFF736FFB6
:104E0400E7E70000836802221A70002283F82C204E
:104E14001A85DA8403210368014AFFF7F5BC00BF51
:104E2400D0CD00002DE9F04F0446A5B020B99D492E
:104E340040F62930FEF7D4FDA3681BB163680BB1BB
:104E4400236823B9974940F62A30FEF7C9FDA068C4
:104E5400102100F55570FEF76DFEA3681B78022B38
:104E640040F08A8000230B930BAA0DF12B012046FE
:104E7400FFF710FA0B9B002B65D09DF92B30002B0C
:104E8400F2DB02F053FAA5686B78022B00F232874A
:104E9400DFE813F00300650678069DF82B000D2863
:104EA40036D00A2834D0B5F854336FF38D13A5F8EF
:104EB4005433092800F0628400F25483032800F07C
:104EC400778300F209830028CED0012800F0FA8607
:104ED40004F0E7FE0028C7D0A3689DF82B10D3F890
:104EE4005453C5F3C00515F0FF0F40F07C85D88CF2
:104EF400B0F5BF7FB8D81E8D721C92B21A851E44BD
:104F04001A44013086F82C1082F82C50D884ABE770
:104F1400D5F8543313F47F5F05D0D5F85433C3F375
:104F240087139842C5D1B5F8543360F38D13A5F8AF
:104F34005433EB8C6BBBC5F850332069FFF7D0F8C2
:104F44002046FFF75FFF00212046FFF78FFE98B150
:104F54002368554A03212046FFF756FCA368D3F87B
:104F64005423120708D520462C334F4A0821FFF753
:104F74004BFC2046FFF739FB206901F0F7FCA068E1
:104F84006FF0100100F55570FEF7EAFD25B0BDE89D
:104F9400F08F95F82C30002B40F09080A0682C30D6
:104FA400FEF7C6FFA368002785B20646C3F8507310
:104FB4001DB3D3F84803002800F0C1803B460A2201
:104FC40017A902F09FF9BDF864309D4240F0B78004
:104FD400A0680A2300F5D6716A1CD0F8480302F0D1
:104FE40091F9A06800F5D6712C3005F06AF9A36830
:104FF400002840F0A28083F8AC01A0684FF4C0728E
:10500400002100F5D67005F007F9A068C28C00F104
:105014002C0100F5D67005F0D6F8A368039303F5C8
:10502400D6794846FEF784FF86B2B9F1000F40F006
:105034000081A06800F5D670FEF77AFFA3680130FE
:1050440058852046FFF70EFB2046FEF787FF10B970
:105054002069FFF745F8A26817A92C320CA8FFF7BE
:1050640051F80C9A0346002A3FF467AF002840F039
:10507400E3800E4F0E4EF61BF6080546AE42179B14
:1050840040F0E0800B4A009202210B4A2046FFF7D1
:10509400BBFB55E70135B5F5803F10D1002283F8FD
:1050A4002C207BE7C6C90000D0CD0000C0AA0000B8
:1050B40050AB0000E4CC000022CC00000025A36823
:1050C4002B44AEB293F82C0004F0E1FDA368002851
:1050D400E0D16EB1DA8C03F12C000132521B41197C
:1050E40004F068FEA268D38C9B1B9BB2D384138507
:1050F400A568EB8C2B331D441FFA85F8A946AFB283
:10510400A8EB070699F80000B6B2013D04F0BFFD14
:105114000028F3D1A568EB8C03F12B0129448945C0
:105124003FF43CAF9E1BA7EB08022E4413449BB2F2
:1051340086F82C00EB842B8530E783F8AC710827C4
:10514400B6B20B3604EB07083146606902F084F806
:105154000546002833D0A368D3F84803A8B9C3E9A7
:10516400D255CDE91700DB8CADF8643017A9284679
:1051740000230A2202F0B2F8A168CA8C0A23013281
:105184002C31284602F0AAF837E700230A2217A98F
:1051940002F0B8F8A068189500230A2217A9D0F8DD
:1051A400480302F09BF800231893A368D3F848231C
:1051B4001792DA8CADF86420C3F84853D6E740461A
:1051C400FEF710FF013FBFD117E7BAF1000F0BD074
:1051D400A6EB0A0604900BF10100721C484404F08B
:1051E400E9FD049BB6B29A46731E9D42BFF621AFF9
:1051F40019F8050004F04BFDAB460135ADB20028AB
:10520400F2D0039B05F5D67898442F46B742EBD2EB
:1052140041460491087804F03AFD08F10108049924
:105224000028D2D00AF1010201371FFA82FABFB274
:10523400ECE70025AA46D7E7A04A02212046FFF75B
:10524400E3FA7DE67A681846116805F03AF8B8463C
:10525400083718B10135AE42BFF410AF98F80030EA
:1052640023B1974940F6A310FEF7BAFBA0680021CA
:10527400102204300D9104F0CFFFD8F80450EB68ED
:105284002BB195E80F00A668043686E80F00AB68DA
:1052940004934FF00008CDF814800125C3460C9BFD
:1052A400AB4210D924AB03EB8506864956F8340C7F
:1052B40005F007F800282ED1A268B2F8543343F061
:1052C4000203A2F85433B8F1000F0ED0A068428D47
:1052D40000F5D6712C3004F076FFA268538DD38488
:1052E40017A92C320CA8FEF70DFFA3681B69002B2D
:1052F40000F0E180059A059817A901EB82020C9948
:10530400091A20469847A368B3F854236FF341025F
:10531400A3F8542314E66C4956F8340C04F0D1FF76
:105324000028C9D056F8340CFEF706FE002800F019
:10533400888056F8343C039300260E96B14609F152
:105344000103079313AB00934A460EAB2946049816
:10535400FEF75CFD0E9BDBB1002219680398FEF793
:1053640078FA002867D10E9B1B6806931846FEF74F
:10537400DFFDA26883B21F460893538D01333B447B
:10538400B3F5C07F37D9514A04212046FFF73CFAD0
:10539400002E98D0A068039900F5D67004F09DFE05
:1053A40007460398FEF7C4FD1FFA80F9F7B1A36816
:1053B40003F5D6739F4209D917F8013C202B02BF8D
:1053C40009F101091FFA89F907F1FF373846FEF799
:1053D400AFFDA268538DA3EB09035385421CA2EBD6
:1053E400090207EB0901384604F0E4FCB044013536
:1053F4005F46BB4653E7039902F5D67004F06DFE91
:1054040082460028C4D0FEF793FD82B2781C013294
:105414005146504404F0CEFC3A460699504604F0F6
:10542400D2FE20230AF80730A2680899538D01336D
:10543400194451850136B9F1FF3FA9D0DDF81C901C
:105444007DE70FAB0BF1010700935A460DAB2946DC
:105454000498FEF7DBFC002F3FF435AF0D9B002BC7
:105464003FF431AF196856F8340C04F02AFF0028D1
:10547400BFD10D9FFB68CBB1B8F1000F0FD0204610
:10548400FFF7F0F82046FEF769FD10B92069FEF732
:1054940027FE0F4A02212046FFF7B6F933E797E8C3
:1054A4000F00A6680595043686E80F00BB680493D0
:1054B400013500279DE7074AECE700BFD0CC000088
:1054C400C6C90000F8CC0000FBCC000002CD0000EF
:1054D40050CD00007FCD0000052800F0EC830828A3
:1054E4007FF4F6ACD5F854331E077FF5BDACEE8CD3
:1054F400002E3FF4B9AC288D00283FF4B5AC361A21
:1055040000F12C01B6B22B30721C2944284404F05B
:1055140051FCA3681A8D013A1A85DA8C013ADA84AF
:10552400002E00F0158308228F49206901F030FA1B
:105534002046FEF725FD8288C3889A4240F0F8820F
:10554400A268138D2C3313440821884A2046FFF7A0
:105554005BF92046FEF798FC314604F11000FFF792
:105564000FF881E417285FD011D80C282ED0152805
:105574007FF4AEAC2046FFF70DF8A368002283F851
:105584002C201A85DA842046FEF77EFC6CE41B2866
:105594000BD07F287FF49CACD5F8543318077FF5E3
:1055A40063AC2046FFF70EFB5EE401236B705BE403
:1055B4002046FFF757F82046FEF7D0FC10B92069C3
:1055C400FEF78EFD2046FFF71DFC4DE4236923B949
:1055D400674940F2EC70FEF703FA664A63492069B2
:1055E40001F0D6F9236923B9614940F2ED70FEF761
:1055F400F7F9614A5D49206901F0CAF923685B4AF9
:1056040003212046FFF700F9A368D3F854231207B7
:105614007FF52AAC20462C33544A0821FFF7F4F8CE
:105624002046FEF7E2FF1FE4EB8C002B3FF41CAC9A
:10563400B5F82880B8F1000F3FF416AC08F12B033D
:105644002B44002713F80129A8EB0706202AB6B239
:105654006FD006F12B032B44A8EB0607BFB21EB193
:1056640013F80129202A6AD12068FEF761FCE98B2E
:10567400D4F808903044B0FBF1F52068FEF758FCEC
:105684004044B9F81E80B0FBF8F0A5EB0008A5680B
:105694002068B5F82890FEF74BFCEB8BD4F808A0F3
:1056A4003044B0FBF3F503FB15052068FEF740FC1E
:1056B400BAF81E104844B0FBF1F301FB1300A368D1
:1056C400F119DA8C2D1A2C3106F12C00D21B194455
:1056D400184404F06FFBA368DA8C1E85D71BBFB295
:1056E4000022DF843B44954283F82C202ADDA9B2B2
:1056F40004F11000FEF702FDB8F1000F2ADD1FFAD5
:1057040088F104F11000FEF7A3FF2046FEF7D8FB52
:10571400A268138D2C3313442046144A0821FFF742
:1057240073F82046FEF7B0FB2046FEF7E5FBFFF7D3
:105734009BBB0137BFB2B84584D1002694E7013E34
:10574400B6B289E7D8D0694289B204F11000FEF7F5
:1057540017FFD1E7D9D0C8F1000189B204F11000D4
:10576400FEF704FFD1E700BFC8B80000D0CD0000A9
:10577400C6C9000034CA000038CA0000D5F8543342
:105784001B077FF571ABEE8CC6F5BF760136B6B25A
:10579400002E3FF469AB05F12C012A8D05F5D67076
:1057A40004F011FDA3681A8D1344002583F8AC514D
:1057B40093F82B0004F06BFAA2680690431B18BF01
:1057C4000123C2F8505317A902F5D6720CA8079307
:1057D400FEF798FC1798FEF7ABFBCDE90D551FFAC1
:1057E40080F804952F46AB46039505950C9B2BB189
:1057F400079A013B1344BB4200F28780069B002BAF
:1058040037D124AB03EB870353F8340CFEF790FB3A
:105814001FFA80F824AB03EB87034FF0000A0993C7
:105824000AF1010308930FAB009352460DAB3946BE
:105834002846FEF7EBFA0D9B002B58D01968099BFC
:10584400424653F8340C04F017FC8146B0B90D9B62
:1058540018680E9B0BF1010B9BB9FEF769FB83B231
:10586400A3EB08008642049300DD86B2CDF80CA0B9
:1058740030E04FF00008CDE7CDF814A0DDF820A00B
:10588400CEE7FEF755FB049B80B2834238BF034644
:105894000493FEB113AB009328460EAB059A394628
:1058A400FEF7B4FA0D9B18680E9BD3F800C009EB01
:1058B40008031FFA89F1C25C1AB98E4228BF0E464A
:1058C40008E01CF803309342F7D109F10109B9F556
:1058D400803FECD10D9B0E93089B002BCCD1A34AA7
:1058E40004212046FEF790FF4FF0FF330593002D6F
:1058F4003AD00D9B002B37D00C9B079A0137BFB2CF
:1059040013449F42FFF472AF2EE024AB4FF0000922
:1059140003EB870A0FAB00934A460DAB3946284682
:10592400FEF774FAB9F1FF3F06D1904A04212046EC
:10593400FEF76AFFFFF798BA0D9B002B3FF494AA79
:105944005AF8340CFEF7F8FA0028D0D10D9B5AF817
:10595400340C196804F0B5FC09F101090028D9D107
:105964000D9B9D68002DC7D1BBF1000F3FF47CAAAD
:10597400BBF1010F5BD12B783BB10FAB0093059AC0
:105984000EAB39462846FEF741FA0E9B1868FEF71F
:10599400CFFA404506D00E9B196832464144204652
:1059A400FEF780FFA3681A8D134493F82C0004F0CB
:1059B4006EF9A368E0B9D3F85423D70712D5B3F826
:1059C400542360F30002A3F8542320212046FEF759
:1059D400B9FFA268B2F8543343F00103A2F8543378
:1059E400FFF742BA20212046FEF7ACFFFFF73CBA8E
:1059F4001A8DDB8C9A42BFF437AA2046FEF7C0FA10
:105A0400A2688588138D013313852046FEF7B8FA02
:105A14008388AB4206D1012104F11000FEF766FB36
:105A2400FFF722BA2069FEF75BFBFFF71DBAA368F4
:105A3400DFF84CA100229A8424AB03EB870306937E
:105A4400039B039A013305930FAB009339460DABC7
:105A54002846FEF7DBF90D9B1968069B424653F86E
:105A6400340C04F009FB10BB0D9B1B680BF1FF3BCE
:105A740003BBA2689384BBF1000F18D123683C4A8E
:105A840020460321FEF7C0FEA3683A4A2C330821BE
:105A94002046FEF7B9FE2046FEF7A7FD0E9B1968C7
:105AA400324641442046FEF7FDFEFFF7DDB9059B73
:105AB4000393C5E750460793FEF73AFA049BA1689F
:105AC400184482B25046B1F81E900392FEF730FAA1
:105AD400079B08901846FEF72BFA039A0899101AA8
